{
  "contractName": "HealthSystem",
  "abi": [
    {
      "anonymous": false,
      "inputs": [
        {
          "indexed": true,
          "internalType": "address",
          "name": "metaMaskAccount",
          "type": "address"
        },
        {
          "indexed": false,
          "internalType": "string",
          "name": "role",
          "type": "string"
        }
      ],
      "name": "AccountExists",
      "type": "event"
    },
    {
      "anonymous": false,
      "inputs": [
        {
          "indexed": true,
          "internalType": "address",
          "name": "metaMaskAccount",
          "type": "address"
        },
        {
          "indexed": false,
          "internalType": "string",
          "name": "role",
          "type": "string"
        }
      ],
      "name": "AccountRegistered",
      "type": "event"
    },
    {
      "anonymous": false,
      "inputs": [
        {
          "indexed": true,
          "internalType": "address",
          "name": "metaMaskAccount",
          "type": "address"
        },
        {
          "components": [
            {
              "internalType": "string",
              "name": "firstName",
              "type": "string"
            },
            {
              "internalType": "string",
              "name": "lastName",
              "type": "string"
            },
            {
              "internalType": "string",
              "name": "dateOfBirth",
              "type": "string"
            },
            {
              "internalType": "string",
              "name": "email",
              "type": "string"
            },
            {
              "internalType": "string",
              "name": "doctorAddress",
              "type": "string"
            },
            {
              "internalType": "string",
              "name": "phoneNumber",
              "type": "string"
            },
            {
              "internalType": "address",
              "name": "metaMaskAccount",
              "type": "address"
            },
            {
              "internalType": "string",
              "name": "specialization",
              "type": "string"
            },
            {
              "internalType": "string",
              "name": "medicalLicenseNumber",
              "type": "string"
            },
            {
              "internalType": "string",
              "name": "yearsOfExperience",
              "type": "string"
            }
          ],
          "indexed": false,
          "internalType": "struct HealthSystem.Doctor",
          "name": "doctor",
          "type": "tuple"
        }
      ],
      "name": "DoctorExists",
      "type": "event"
    },
    {
      "anonymous": false,
      "inputs": [
        {
          "indexed": true,
          "internalType": "address",
          "name": "metaMaskAccount",
          "type": "address"
        },
        {
          "indexed": false,
          "internalType": "string",
          "name": "email",
          "type": "string"
        }
      ],
      "name": "DoctorRegistered",
      "type": "event"
    },
    {
      "anonymous": false,
      "inputs": [
        {
          "indexed": true,
          "internalType": "address",
          "name": "metaMaskAccount",
          "type": "address"
        },
        {
          "components": [
            {
              "internalType": "string",
              "name": "firstName",
              "type": "string"
            },
            {
              "internalType": "string",
              "name": "lastName",
              "type": "string"
            },
            {
              "internalType": "string",
              "name": "dateOfBirth",
              "type": "string"
            },
            {
              "internalType": "string",
              "name": "email",
              "type": "string"
            },
            {
              "internalType": "string",
              "name": "gender",
              "type": "string"
            },
            {
              "internalType": "string",
              "name": "patientAddress",
              "type": "string"
            },
            {
              "internalType": "string",
              "name": "phoneNumber",
              "type": "string"
            },
            {
              "internalType": "string",
              "name": "bloodgroup",
              "type": "string"
            },
            {
              "internalType": "address",
              "name": "metaMaskAccount",
              "type": "address"
            },
            {
              "internalType": "string",
              "name": "insuranceProvider",
              "type": "string"
            },
            {
              "internalType": "string",
              "name": "policyNumber",
              "type": "string"
            }
          ],
          "indexed": false,
          "internalType": "struct HealthSystem.Patient",
          "name": "patient",
          "type": "tuple"
        }
      ],
      "name": "PatientExists",
      "type": "event"
    },
    {
      "anonymous": false,
      "inputs": [
        {
          "indexed": true,
          "internalType": "address",
          "name": "metaMaskAccount",
          "type": "address"
        },
        {
          "indexed": false,
          "internalType": "string",
          "name": "email",
          "type": "string"
        }
      ],
      "name": "PatientRegistered",
      "type": "event"
    },
    {
      "inputs": [
        {
          "internalType": "address",
          "name": "",
          "type": "address"
        }
      ],
      "name": "accounts",
      "outputs": [
        {
          "internalType": "address",
          "name": "metaMaskAccount",
          "type": "address"
        },
        {
          "internalType": "string",
          "name": "role",
          "type": "string"
        },
        {
          "internalType": "bool",
          "name": "isRegistered",
          "type": "bool"
        }
      ],
      "stateMutability": "view",
      "type": "function",
      "constant": true
    },
    {
      "inputs": [
        {
          "internalType": "address",
          "name": "",
          "type": "address"
        }
      ],
      "name": "doctors",
      "outputs": [
        {
          "internalType": "string",
          "name": "firstName",
          "type": "string"
        },
        {
          "internalType": "string",
          "name": "lastName",
          "type": "string"
        },
        {
          "internalType": "string",
          "name": "dateOfBirth",
          "type": "string"
        },
        {
          "internalType": "string",
          "name": "email",
          "type": "string"
        },
        {
          "internalType": "string",
          "name": "doctorAddress",
          "type": "string"
        },
        {
          "internalType": "string",
          "name": "phoneNumber",
          "type": "string"
        },
        {
          "internalType": "address",
          "name": "metaMaskAccount",
          "type": "address"
        },
        {
          "internalType": "string",
          "name": "specialization",
          "type": "string"
        },
        {
          "internalType": "string",
          "name": "medicalLicenseNumber",
          "type": "string"
        },
        {
          "internalType": "string",
          "name": "yearsOfExperience",
          "type": "string"
        }
      ],
      "stateMutability": "view",
      "type": "function",
      "constant": true
    },
    {
      "inputs": [
        {
          "internalType": "address",
          "name": "",
          "type": "address"
        }
      ],
      "name": "metaMaskToEmail",
      "outputs": [
        {
          "internalType": "string",
          "name": "",
          "type": "string"
        }
      ],
      "stateMutability": "view",
      "type": "function",
      "constant": true
    },
    {
      "inputs": [
        {
          "internalType": "address",
          "name": "",
          "type": "address"
        }
      ],
      "name": "patients",
      "outputs": [
        {
          "internalType": "string",
          "name": "firstName",
          "type": "string"
        },
        {
          "internalType": "string",
          "name": "lastName",
          "type": "string"
        },
        {
          "internalType": "string",
          "name": "dateOfBirth",
          "type": "string"
        },
        {
          "internalType": "string",
          "name": "email",
          "type": "string"
        },
        {
          "internalType": "string",
          "name": "gender",
          "type": "string"
        },
        {
          "internalType": "string",
          "name": "patientAddress",
          "type": "string"
        },
        {
          "internalType": "string",
          "name": "phoneNumber",
          "type": "string"
        },
        {
          "internalType": "string",
          "name": "bloodgroup",
          "type": "string"
        },
        {
          "internalType": "address",
          "name": "metaMaskAccount",
          "type": "address"
        },
        {
          "internalType": "string",
          "name": "insuranceProvider",
          "type": "string"
        },
        {
          "internalType": "string",
          "name": "policyNumber",
          "type": "string"
        }
      ],
      "stateMutability": "view",
      "type": "function",
      "constant": true
    },
    {
      "inputs": [
        {
          "internalType": "string",
          "name": "_firstName",
          "type": "string"
        },
        {
          "internalType": "string",
          "name": "_lastName",
          "type": "string"
        },
        {
          "internalType": "string",
          "name": "_dateOfBirth",
          "type": "string"
        },
        {
          "internalType": "string",
          "name": "_email",
          "type": "string"
        },
        {
          "internalType": "string",
          "name": "_gender",
          "type": "string"
        },
        {
          "internalType": "string",
          "name": "_patientAddress",
          "type": "string"
        },
        {
          "internalType": "string",
          "name": "_phoneNumber",
          "type": "string"
        },
        {
          "internalType": "string",
          "name": "_bloodgroup",
          "type": "string"
        },
        {
          "internalType": "address",
          "name": "_metaMaskAccount",
          "type": "address"
        },
        {
          "internalType": "string",
          "name": "_insuranceProvider",
          "type": "string"
        },
        {
          "internalType": "string",
          "name": "_policyNumber",
          "type": "string"
        }
      ],
      "name": "registerPatient",
      "outputs": [],
      "stateMutability": "nonpayable",
      "type": "function"
    },
    {
      "inputs": [
        {
          "internalType": "string",
          "name": "_firstName",
          "type": "string"
        },
        {
          "internalType": "string",
          "name": "_lastName",
          "type": "string"
        },
        {
          "internalType": "string",
          "name": "_dateOfBirth",
          "type": "string"
        },
        {
          "internalType": "string",
          "name": "_email",
          "type": "string"
        },
        {
          "internalType": "string",
          "name": "_doctorAddress",
          "type": "string"
        },
        {
          "internalType": "string",
          "name": "_phoneNumber",
          "type": "string"
        },
        {
          "internalType": "address",
          "name": "_metaMaskAccount",
          "type": "address"
        },
        {
          "internalType": "string",
          "name": "_specialization",
          "type": "string"
        },
        {
          "internalType": "string",
          "name": "_medicalLicenseNumber",
          "type": "string"
        },
        {
          "internalType": "string",
          "name": "_yearsOfExperience",
          "type": "string"
        }
      ],
      "name": "registerDoctor",
      "outputs": [],
      "stateMutability": "nonpayable",
      "type": "function"
    },
    {
      "inputs": [
        {
          "internalType": "address",
          "name": "_metaMaskAccount",
          "type": "address"
        },
        {
          "internalType": "string",
          "name": "_role",
          "type": "string"
        }
      ],
      "name": "registerAccount",
      "outputs": [],
      "stateMutability": "nonpayable",
      "type": "function"
    },
    {
      "inputs": [
        {
          "internalType": "address",
          "name": "_metaMaskAccount",
          "type": "address"
        }
      ],
      "name": "getPatient",
      "outputs": [
        {
          "components": [
            {
              "internalType": "string",
              "name": "firstName",
              "type": "string"
            },
            {
              "internalType": "string",
              "name": "lastName",
              "type": "string"
            },
            {
              "internalType": "string",
              "name": "dateOfBirth",
              "type": "string"
            },
            {
              "internalType": "string",
              "name": "email",
              "type": "string"
            },
            {
              "internalType": "string",
              "name": "gender",
              "type": "string"
            },
            {
              "internalType": "string",
              "name": "patientAddress",
              "type": "string"
            },
            {
              "internalType": "string",
              "name": "phoneNumber",
              "type": "string"
            },
            {
              "internalType": "string",
              "name": "bloodgroup",
              "type": "string"
            },
            {
              "internalType": "address",
              "name": "metaMaskAccount",
              "type": "address"
            },
            {
              "internalType": "string",
              "name": "insuranceProvider",
              "type": "string"
            },
            {
              "internalType": "string",
              "name": "policyNumber",
              "type": "string"
            }
          ],
          "internalType": "struct HealthSystem.Patient",
          "name": "",
          "type": "tuple"
        }
      ],
      "stateMutability": "view",
      "type": "function",
      "constant": true
    },
    {
      "inputs": [
        {
          "internalType": "address",
          "name": "_metaMaskAccount",
          "type": "address"
        }
      ],
      "name": "getDoctor",
      "outputs": [
        {
          "components": [
            {
              "internalType": "string",
              "name": "firstName",
              "type": "string"
            },
            {
              "internalType": "string",
              "name": "lastName",
              "type": "string"
            },
            {
              "internalType": "string",
              "name": "dateOfBirth",
              "type": "string"
            },
            {
              "internalType": "string",
              "name": "email",
              "type": "string"
            },
            {
              "internalType": "string",
              "name": "doctorAddress",
              "type": "string"
            },
            {
              "internalType": "string",
              "name": "phoneNumber",
              "type": "string"
            },
            {
              "internalType": "address",
              "name": "metaMaskAccount",
              "type": "address"
            },
            {
              "internalType": "string",
              "name": "specialization",
              "type": "string"
            },
            {
              "internalType": "string",
              "name": "medicalLicenseNumber",
              "type": "string"
            },
            {
              "internalType": "string",
              "name": "yearsOfExperience",
              "type": "string"
            }
          ],
          "internalType": "struct HealthSystem.Doctor",
          "name": "",
          "type": "tuple"
        }
      ],
      "stateMutability": "view",
      "type": "function",
      "constant": true
    },
    {
      "inputs": [
        {
          "internalType": "address",
          "name": "_metaMaskAccount",
          "type": "address"
        }
      ],
      "name": "getEmailByMetaMask",
      "outputs": [
        {
          "internalType": "string",
          "name": "",
          "type": "string"
        }
      ],
      "stateMutability": "view",
      "type": "function",
      "constant": true
    },
    {
      "inputs": [
        {
          "internalType": "address",
          "name": "_metaMaskAccount",
          "type": "address"
        }
      ],
      "name": "getAccount",
      "outputs": [
        {
          "components": [
            {
              "internalType": "address",
              "name": "metaMaskAccount",
              "type": "address"
            },
            {
              "internalType": "string",
              "name": "role",
              "type": "string"
            },
            {
              "internalType": "bool",
              "name": "isRegistered",
              "type": "bool"
            }
          ],
          "internalType": "struct HealthSystem.Account",
          "name": "",
          "type": "tuple"
        }
      ],
      "stateMutability": "view",
      "type": "function",
      "constant": true
    },
    {
      "inputs": [
        {
          "internalType": "address",
          "name": "_metaMaskAccount",
          "type": "address"
        }
      ],
      "name": "hasPersonalInfo",
      "outputs": [
        {
          "internalType": "bool",
          "name": "",
          "type": "bool"
        }
      ],
      "stateMutability": "view",
      "type": "function",
      "constant": true
    },
    {
      "inputs": [
        {
          "internalType": "address",
          "name": "_metaMaskAccount",
          "type": "address"
        }
      ],
      "name": "performAction",
      "outputs": [],
      "stateMutability": "view",
      "type": "function",
      "constant": true
    }
  ],
  "bytecode": "0x608060405234801561001057600080fd5b50614729806100206000396000f3fe608060405234801561001057600080fd5b50600436106100cf5760003560e01c80635e5c06e21161008c578063d0bbbf4b11610066578063d0bbbf4b1461025d578063ea3fc82314610279578063f17245f9146102a9578063fbcbc0f1146102d9576100cf565b80635e5c06e2146101c2578063a9583c22146101f4578063b5368e201461022d576100cf565b80630869cfbc146100d457806310ff38821461010e57806324736ccf1461012a57806326159c121461014657806328fce6ca146101625780632f04e06414610192575b600080fd5b6100ee60048036038101906100e99190613594565b610309565b6040516101059b9a99989796959493929190613669565b60405180910390f35b6101286004803603810190610123919061388f565b6108d3565b005b610144600480360381019061013f9190613594565b610aaf565b005b610160600480360381019061015b91906138eb565b610b8b565b005b61017c60048036038101906101779190613594565b610eb0565b6040516101899190613ac6565b60405180910390f35b6101ac60048036038101906101a79190613594565b610f80565b6040516101b99190613c53565b60405180910390f35b6101dc60048036038101906101d79190613594565b611552565b6040516101eb93929190613c90565b60405180910390f35b61020e60048036038101906102099190613594565b611631565b6040516102249a99989796959493929190613cce565b60405180910390f35b61024760048036038101906102429190613594565b611b6d565b6040516102549190613ed7565b60405180910390f35b61027760048036038101906102729190613ef9565b6121d1565b005b610293600480360381019061028e9190613594565b61251b565b6040516102a09190613ac6565b60405180910390f35b6102c360048036038101906102be9190613594565b6125bb565b6040516102d09190614105565b60405180910390f35b6102f360048036038101906102ee9190613594565b613211565b604051610300919061417f565b60405180910390f35b600160205280600052604060002060009150905080600001805461032c906141d0565b80601f0160208091040260200160405190810160405280929190818152602001828054610358906141d0565b80156103a55780601f1061037a576101008083540402835291602001916103a5565b820191906000526020600020905b81548152906001019060200180831161038857829003601f168201915b5050505050908060010180546103ba906141d0565b80601f01602080910402602001604051908101604052809291908181526020018280546103e6906141d0565b80156104335780601f1061040857610100808354040283529160200191610433565b820191906000526020600020905b81548152906001019060200180831161041657829003601f168201915b505050505090806002018054610448906141d0565b80601f0160208091040260200160405190810160405280929190818152602001828054610474906141d0565b80156104c15780601f10610496576101008083540402835291602001916104c1565b820191906000526020600020905b8154815290600101906020018083116104a457829003601f168201915b5050505050908060030180546104d6906141d0565b80601f0160208091040260200160405190810160405280929190818152602001828054610502906141d0565b801561054f5780601f106105245761010080835404028352916020019161054f565b820191906000526020600020905b81548152906001019060200180831161053257829003601f168201915b505050505090806004018054610564906141d0565b80601f0160208091040260200160405190810160405280929190818152602001828054610590906141d0565b80156105dd5780601f106105b2576101008083540402835291602001916105dd565b820191906000526020600020905b8154815290600101906020018083116105c057829003601f168201915b5050505050908060050180546105f2906141d0565b80601f016020809104026020016040519081016040528092919081815260200182805461061e906141d0565b801561066b5780601f106106405761010080835404028352916020019161066b565b820191906000526020600020905b81548152906001019060200180831161064e57829003601f168201915b505050505090806006018054610680906141d0565b80601f01602080910402602001604051908101604052809291908181526020018280546106ac906141d0565b80156106f95780601f106106ce576101008083540402835291602001916106f9565b820191906000526020600020905b8154815290600101906020018083116106dc57829003601f168201915b50505050509080600701805461070e906141d0565b80601f016020809104026020016040519081016040528092919081815260200182805461073a906141d0565b80156107875780601f1061075c57610100808354040283529160200191610787565b820191906000526020600020905b81548152906001019060200180831161076a57829003601f168201915b5050505050908060080160009054906101000a900473ffffffffffffffffffffffffffffffffffffffff16908060090180546107c2906141d0565b80601f01602080910402602001604051908101604052809291908181526020018280546107ee906141d0565b801561083b5780601f106108105761010080835404028352916020019161083b565b820191906000526020600020905b81548152906001019060200180831161081e57829003601f168201915b50505050509080600a018054610850906141d0565b80601f016020809104026020016040519081016040528092919081815260200182805461087c906141d0565b80156108c95780601f1061089e576101008083540402835291602001916108c9565b820191906000526020600020905b8154815290600101906020018083116108ac57829003601f168201915b505050505090508b565b600360008373ffffffffffffffffffffffffffffffffffffffff1673ffffffffffffffffffffffffffffffffffffffff16815260200190815260200160002060020160009054906101000a900460ff1615610963576040517f08c379a000000000000000000000000000000000000000000000000000000000815260040161095a90614273565b60405180910390fd5b60405180606001604052808373ffffffffffffffffffffffffffffffffffffffff16815260200182815260200160011515815250600360008473ffffffffffffffffffffffffffffffffffffffff1673ffffffffffffffffffffffffffffffffffffffff16815260200190815260200160002060008201518160000160006101000a81548173ffffffffffffffffffffffffffffffffffffffff021916908373ffffffffffffffffffffffffffffffffffffffff1602179055506020820151816001019080519060200190610a3992919061336d565b5060408201518160020160006101000a81548160ff0219169083151502179055509050508173ffffffffffffffffffffffffffffffffffffffff167f64f73046f77686e7ba3aebcaac09e4568d436c6968f446459528ce3ac8ccb60f82604051610aa39190613ac6565b60405180910390a25050565b80600360008273ffffffffffffffffffffffffffffffffffffffff1673ffffffffffffffffffffffffffffffffffffffff16815260200190815260200160002060020160009054906101000a900460ff16610b3f576040517f08c379a0000000000000000000000000000000000000000000000000000000008152600401610b36906142df565b60405180910390fd5b610b48826125bb565b610b87576040517f08c379a0000000000000000000000000000000000000000000000000000000008152600401610b7e90614371565b60405180910390fd5b5050565b6040518061014001604052808b81526020018a81526020018981526020018881526020018781526020018681526020018573ffffffffffffffffffffffffffffffffffffffff16815260200184815260200183815260200182815250600260008673ffffffffffffffffffffffffffffffffffffffff1673ffffffffffffffffffffffffffffffffffffffff1681526020019081526020016000206000820151816000019080519060200190610c4292919061336d565b506020820151816001019080519060200190610c5f92919061336d565b506040820151816002019080519060200190610c7c92919061336d565b506060820151816003019080519060200190610c9992919061336d565b506080820151816004019080519060200190610cb692919061336d565b5060a0820151816005019080519060200190610cd392919061336d565b5060c08201518160060160006101000a81548173ffffffffffffffffffffffffffffffffffffffff021916908373ffffffffffffffffffffffffffffffffffffffff16021790555060e0820151816007019080519060200190610d3792919061336d565b50610100820151816008019080519060200190610d5592919061336d565b50610120820151816009019080519060200190610d7392919061336d565b50905050866000808673ffffffffffffffffffffffffffffffffffffffff1673ffffffffffffffffffffffffffffffffffffffff1681526020019081526020016000209080519060200190610dc992919061336d565b508373ffffffffffffffffffffffffffffffffffffffff167f20481b8112b5bf4734f45a473c373db9df6a79ce946cdc0e7dbc22b4f7d7f98688604051610e109190613ac6565b60405180910390a28373ffffffffffffffffffffffffffffffffffffffff167f10c28cae0b1f35902e277fe1301d6797e5f9ba724013e7bf14101dff2d4175ef600260008773ffffffffffffffffffffffffffffffffffffffff1673ffffffffffffffffffffffffffffffffffffffff168152602001908152602001600020604051610e9c9190614581565b60405180910390a250505050505050505050565b60606000808373ffffffffffffffffffffffffffffffffffffffff1673ffffffffffffffffffffffffffffffffffffffff1681526020019081526020016000208054610efb906141d0565b80601f0160208091040260200160405190810160405280929190818152602001828054610f27906141d0565b8015610f745780601f10610f4957610100808354040283529160200191610f74565b820191906000526020600020905b815481529060010190602001808311610f5757829003601f168201915b50505050509050919050565b610f886133f3565b600260008373ffffffffffffffffffffffffffffffffffffffff1673ffffffffffffffffffffffffffffffffffffffff16815260200190815260200160002060405180610140016040529081600082018054610fe3906141d0565b80601f016020809104026020016040519081016040528092919081815260200182805461100f906141d0565b801561105c5780601f106110315761010080835404028352916020019161105c565b820191906000526020600020905b81548152906001019060200180831161103f57829003601f168201915b50505050508152602001600182018054611075906141d0565b80601f01602080910402602001604051908101604052809291908181526020018280546110a1906141d0565b80156110ee5780601f106110c3576101008083540402835291602001916110ee565b820191906000526020600020905b8154815290600101906020018083116110d157829003601f168201915b50505050508152602001600282018054611107906141d0565b80601f0160208091040260200160405190810160405280929190818152602001828054611133906141d0565b80156111805780601f1061115557610100808354040283529160200191611180565b820191906000526020600020905b81548152906001019060200180831161116357829003601f168201915b50505050508152602001600382018054611199906141d0565b80601f01602080910402602001604051908101604052809291908181526020018280546111c5906141d0565b80156112125780601f106111e757610100808354040283529160200191611212565b820191906000526020600020905b8154815290600101906020018083116111f557829003601f168201915b5050505050815260200160048201805461122b906141d0565b80601f0160208091040260200160405190810160405280929190818152602001828054611257906141d0565b80156112a45780601f10611279576101008083540402835291602001916112a4565b820191906000526020600020905b81548152906001019060200180831161128757829003601f168201915b505050505081526020016005820180546112bd906141d0565b80601f01602080910402602001604051908101604052809291908181526020018280546112e9906141d0565b80156113365780601f1061130b57610100808354040283529160200191611336565b820191906000526020600020905b81548152906001019060200180831161131957829003601f168201915b505050505081526020016006820160009054906101000a900473ffffffffffffffffffffffffffffffffffffffff1673ffffffffffffffffffffffffffffffffffffffff1673ffffffffffffffffffffffffffffffffffffffff1681526020016007820180546113a5906141d0565b80601f01602080910402602001604051908101604052809291908181526020018280546113d1906141d0565b801561141e5780601f106113f35761010080835404028352916020019161141e565b820191906000526020600020905b81548152906001019060200180831161140157829003601f168201915b50505050508152602001600882018054611437906141d0565b80601f0160208091040260200160405190810160405280929190818152602001828054611463906141d0565b80156114b05780601f10611485576101008083540402835291602001916114b0565b820191906000526020600020905b81548152906001019060200180831161149357829003601f168201915b505050505081526020016009820180546114c9906141d0565b80601f01602080910402602001604051908101604052809291908181526020018280546114f5906141d0565b80156115425780601f1061151757610100808354040283529160200191611542565b820191906000526020600020905b81548152906001019060200180831161152557829003601f168201915b5050505050815250509050919050565b60036020528060005260406000206000915090508060000160009054906101000a900473ffffffffffffffffffffffffffffffffffffffff169080600101805461159b906141d0565b80601f01602080910402602001604051908101604052809291908181526020018280546115c7906141d0565b80156116145780601f106115e957610100808354040283529160200191611614565b820191906000526020600020905b8154815290600101906020018083116115f757829003601f168201915b5050505050908060020160009054906101000a900460ff16905083565b6002602052806000526040600020600091509050806000018054611654906141d0565b80601f0160208091040260200160405190810160405280929190818152602001828054611680906141d0565b80156116cd5780601f106116a2576101008083540402835291602001916116cd565b820191906000526020600020905b8154815290600101906020018083116116b057829003601f168201915b5050505050908060010180546116e2906141d0565b80601f016020809104026020016040519081016040528092919081815260200182805461170e906141d0565b801561175b5780601f106117305761010080835404028352916020019161175b565b820191906000526020600020905b81548152906001019060200180831161173e57829003601f168201915b505050505090806002018054611770906141d0565b80601f016020809104026020016040519081016040528092919081815260200182805461179c906141d0565b80156117e95780601f106117be576101008083540402835291602001916117e9565b820191906000526020600020905b8154815290600101906020018083116117cc57829003601f168201915b5050505050908060030180546117fe906141d0565b80601f016020809104026020016040519081016040528092919081815260200182805461182a906141d0565b80156118775780601f1061184c57610100808354040283529160200191611877565b820191906000526020600020905b81548152906001019060200180831161185a57829003601f168201915b50505050509080600401805461188c906141d0565b80601f01602080910402602001604051908101604052809291908181526020018280546118b8906141d0565b80156119055780601f106118da57610100808354040283529160200191611905565b820191906000526020600020905b8154815290600101906020018083116118e857829003601f168201915b50505050509080600501805461191a906141d0565b80601f0160208091040260200160405190810160405280929190818152602001828054611946906141d0565b80156119935780601f1061196857610100808354040283529160200191611993565b820191906000526020600020905b81548152906001019060200180831161197657829003601f168201915b5050505050908060060160009054906101000a900473ffffffffffffffffffffffffffffffffffffffff16908060070180546119ce906141d0565b80601f01602080910402602001604051908101604052809291908181526020018280546119fa906141d0565b8015611a475780601f10611a1c57610100808354040283529160200191611a47565b820191906000526020600020905b815481529060010190602001808311611a2a57829003601f168201915b505050505090806008018054611a5c906141d0565b80601f0160208091040260200160405190810160405280929190818152602001828054611a88906141d0565b8015611ad55780601f10611aaa57610100808354040283529160200191611ad5565b820191906000526020600020905b815481529060010190602001808311611ab857829003601f168201915b505050505090806009018054611aea906141d0565b80601f0160208091040260200160405190810160405280929190818152602001828054611b16906141d0565b8015611b635780601f10611b3857610100808354040283529160200191611b63565b820191906000526020600020905b815481529060010190602001808311611b4657829003601f168201915b505050505090508a565b611b7561345c565b600160008373ffffffffffffffffffffffffffffffffffffffff1673ffffffffffffffffffffffffffffffffffffffff16815260200190815260200160002060405180610160016040529081600082018054611bd0906141d0565b80601f0160208091040260200160405190810160405280929190818152602001828054611bfc906141d0565b8015611c495780601f10611c1e57610100808354040283529160200191611c49565b820191906000526020600020905b815481529060010190602001808311611c2c57829003601f168201915b50505050508152602001600182018054611c62906141d0565b80601f0160208091040260200160405190810160405280929190818152602001828054611c8e906141d0565b8015611cdb5780601f10611cb057610100808354040283529160200191611cdb565b820191906000526020600020905b815481529060010190602001808311611cbe57829003601f168201915b50505050508152602001600282018054611cf4906141d0565b80601f0160208091040260200160405190810160405280929190818152602001828054611d20906141d0565b8015611d6d5780601f10611d4257610100808354040283529160200191611d6d565b820191906000526020600020905b815481529060010190602001808311611d5057829003601f168201915b50505050508152602001600382018054611d86906141d0565b80601f0160208091040260200160405190810160405280929190818152602001828054611db2906141d0565b8015611dff5780601f10611dd457610100808354040283529160200191611dff565b820191906000526020600020905b815481529060010190602001808311611de257829003601f168201915b50505050508152602001600482018054611e18906141d0565b80601f0160208091040260200160405190810160405280929190818152602001828054611e44906141d0565b8015611e915780601f10611e6657610100808354040283529160200191611e91565b820191906000526020600020905b815481529060010190602001808311611e7457829003601f168201915b50505050508152602001600582018054611eaa906141d0565b80601f0160208091040260200160405190810160405280929190818152602001828054611ed6906141d0565b8015611f235780601f10611ef857610100808354040283529160200191611f23565b820191906000526020600020905b815481529060010190602001808311611f0657829003601f168201915b50505050508152602001600682018054611f3c906141d0565b80601f0160208091040260200160405190810160405280929190818152602001828054611f68906141d0565b8015611fb55780601f10611f8a57610100808354040283529160200191611fb5565b820191906000526020600020905b815481529060010190602001808311611f9857829003601f168201915b50505050508152602001600782018054611fce906141d0565b80601f0160208091040260200160405190810160405280929190818152602001828054611ffa906141d0565b80156120475780601f1061201c57610100808354040283529160200191612047565b820191906000526020600020905b81548152906001019060200180831161202a57829003601f168201915b505050505081526020016008820160009054906101000a900473ffffffffffffffffffffffffffffffffffffffff1673ffffffffffffffffffffffffffffffffffffffff1673ffffffffffffffffffffffffffffffffffffffff1681526020016009820180546120b6906141d0565b80601f01602080910402602001604051908101604052809291908181526020018280546120e2906141d0565b801561212f5780601f106121045761010080835404028352916020019161212f565b820191906000526020600020905b81548152906001019060200180831161211257829003601f168201915b50505050508152602001600a82018054612148906141d0565b80601f0160208091040260200160405190810160405280929190818152602001828054612174906141d0565b80156121c15780601f10612196576101008083540402835291602001916121c1565b820191906000526020600020905b8154815290600101906020018083116121a457829003601f168201915b5050505050815250509050919050565b6040518061016001604052808c81526020018b81526020018a81526020018981526020018881526020018781526020018681526020018581526020018473ffffffffffffffffffffffffffffffffffffffff16815260200183815260200182815250600160008573ffffffffffffffffffffffffffffffffffffffff1673ffffffffffffffffffffffffffffffffffffffff168152602001908152602001600020600082015181600001908051906020019061228e92919061336d565b5060208201518160010190805190602001906122ab92919061336d565b5060408201518160020190805190602001906122c892919061336d565b5060608201518160030190805190602001906122e592919061336d565b50608082015181600401908051906020019061230292919061336d565b5060a082015181600501908051906020019061231f92919061336d565b5060c082015181600601908051906020019061233c92919061336d565b5060e082015181600701908051906020019061235992919061336d565b506101008201518160080160006101000a81548173ffffffffffffffffffffffffffffffffffffffff021916908373ffffffffffffffffffffffffffffffffffffffff1602179055506101208201518160090190805190602001906123bf92919061336d565b5061014082015181600a0190805190602001906123dd92919061336d565b50905050876000808573ffffffffffffffffffffffffffffffffffffffff1673ffffffffffffffffffffffffffffffffffffffff168152602001908152602001600020908051906020019061243392919061336d565b508273ffffffffffffffffffffffffffffffffffffffff167fc85b128388b9c331a2a5485dce4cd0f3db9f7c279d327ce95d6d39d6c94644c78960405161247a9190613ac6565b60405180910390a28273ffffffffffffffffffffffffffffffffffffffff167f0cdc4407c9dcc11c0d05b4ee0ec812e97f49258c780bee88b720bb3191c870bb600160008673ffffffffffffffffffffffffffffffffffffffff1673ffffffffffffffffffffffffffffffffffffffff16815260200190815260200160002060405161250691906146d1565b60405180910390a25050505050505050505050565b6000602052806000526040600020600091509050805461253a906141d0565b80601f0160208091040260200160405190810160405280929190818152602001828054612566906141d0565b80156125b35780601f10612588576101008083540402835291602001916125b3565b820191906000526020600020905b81548152906001019060200180831161259657829003601f168201915b505050505081565b600080600160008473ffffffffffffffffffffffffffffffffffffffff1673ffffffffffffffffffffffffffffffffffffffff16815260200190815260200160002060405180610160016040529081600082018054612619906141d0565b80601f0160208091040260200160405190810160405280929190818152602001828054612645906141d0565b80156126925780601f1061266757610100808354040283529160200191612692565b820191906000526020600020905b81548152906001019060200180831161267557829003601f168201915b505050505081526020016001820180546126ab906141d0565b80601f01602080910402602001604051908101604052809291908181526020018280546126d7906141d0565b80156127245780601f106126f957610100808354040283529160200191612724565b820191906000526020600020905b81548152906001019060200180831161270757829003601f168201915b5050505050815260200160028201805461273d906141d0565b80601f0160208091040260200160405190810160405280929190818152602001828054612769906141d0565b80156127b65780601f1061278b576101008083540402835291602001916127b6565b820191906000526020600020905b81548152906001019060200180831161279957829003601f168201915b505050505081526020016003820180546127cf906141d0565b80601f01602080910402602001604051908101604052809291908181526020018280546127fb906141d0565b80156128485780601f1061281d57610100808354040283529160200191612848565b820191906000526020600020905b81548152906001019060200180831161282b57829003601f168201915b50505050508152602001600482018054612861906141d0565b80601f016020809104026020016040519081016040528092919081815260200182805461288d906141d0565b80156128da5780601f106128af576101008083540402835291602001916128da565b820191906000526020600020905b8154815290600101906020018083116128bd57829003601f168201915b505050505081526020016005820180546128f3906141d0565b80601f016020809104026020016040519081016040528092919081815260200182805461291f906141d0565b801561296c5780601f106129415761010080835404028352916020019161296c565b820191906000526020600020905b81548152906001019060200180831161294f57829003601f168201915b50505050508152602001600682018054612985906141d0565b80601f01602080910402602001604051908101604052809291908181526020018280546129b1906141d0565b80156129fe5780601f106129d3576101008083540402835291602001916129fe565b820191906000526020600020905b8154815290600101906020018083116129e157829003601f168201915b50505050508152602001600782018054612a17906141d0565b80601f0160208091040260200160405190810160405280929190818152602001828054612a43906141d0565b8015612a905780601f10612a6557610100808354040283529160200191612a90565b820191906000526020600020905b815481529060010190602001808311612a7357829003601f168201915b505050505081526020016008820160009054906101000a900473ffffffffffffffffffffffffffffffffffffffff1673ffffffffffffffffffffffffffffffffffffffff1673ffffffffffffffffffffffffffffffffffffffff168152602001600982018054612aff906141d0565b80601f0160208091040260200160405190810160405280929190818152602001828054612b2b906141d0565b8015612b785780601f10612b4d57610100808354040283529160200191612b78565b820191906000526020600020905b815481529060010190602001808311612b5b57829003601f168201915b50505050508152602001600a82018054612b91906141d0565b80601f0160208091040260200160405190810160405280929190818152602001828054612bbd906141d0565b8015612c0a5780601f10612bdf57610100808354040283529160200191612c0a565b820191906000526020600020905b815481529060010190602001808311612bed57829003601f168201915b50505050508152505090506000600260008573ffffffffffffffffffffffffffffffffffffffff1673ffffffffffffffffffffffffffffffffffffffff16815260200190815260200160002060405180610140016040529081600082018054612c72906141d0565b80601f0160208091040260200160405190810160405280929190818152602001828054612c9e906141d0565b8015612ceb5780601f10612cc057610100808354040283529160200191612ceb565b820191906000526020600020905b815481529060010190602001808311612cce57829003601f168201915b50505050508152602001600182018054612d04906141d0565b80601f0160208091040260200160405190810160405280929190818152602001828054612d30906141d0565b8015612d7d5780601f10612d5257610100808354040283529160200191612d7d565b820191906000526020600020905b815481529060010190602001808311612d6057829003601f168201915b50505050508152602001600282018054612d96906141d0565b80601f0160208091040260200160405190810160405280929190818152602001828054612dc2906141d0565b8015612e0f5780601f10612de457610100808354040283529160200191612e0f565b820191906000526020600020905b815481529060010190602001808311612df257829003601f168201915b50505050508152602001600382018054612e28906141d0565b80601f0160208091040260200160405190810160405280929190818152602001828054612e54906141d0565b8015612ea15780601f10612e7657610100808354040283529160200191612ea1565b820191906000526020600020905b815481529060010190602001808311612e8457829003601f168201915b50505050508152602001600482018054612eba906141d0565b80601f0160208091040260200160405190810160405280929190818152602001828054612ee6906141d0565b8015612f335780601f10612f0857610100808354040283529160200191612f33565b820191906000526020600020905b815481529060010190602001808311612f1657829003601f168201915b50505050508152602001600582018054612f4c906141d0565b80601f0160208091040260200160405190810160405280929190818152602001828054612f78906141d0565b8015612fc55780601f10612f9a57610100808354040283529160200191612fc5565b820191906000526020600020905b815481529060010190602001808311612fa857829003601f168201915b505050505081526020016006820160009054906101000a900473ffffffffffffffffffffffffffffffffffffffff1673ffffffffffffffffffffffffffffffffffffffff1673ffffffffffffffffffffffffffffffffffffffff168152602001600782018054613034906141d0565b80601f0160208091040260200160405190810160405280929190818152602001828054613060906141d0565b80156130ad5780601f10613082576101008083540402835291602001916130ad565b820191906000526020600020905b81548152906001019060200180831161309057829003601f168201915b505050505081526020016008820180546130c6906141d0565b80601f01602080910402602001604051908101604052809291908181526020018280546130f2906141d0565b801561313f5780601f106131145761010080835404028352916020019161313f565b820191906000526020600020905b81548152906001019060200180831161312257829003601f168201915b50505050508152602001600982018054613158906141d0565b80601f0160208091040260200160405190810160405280929190818152602001828054613184906141d0565b80156131d15780601f106131a6576101008083540402835291602001916131d1565b820191906000526020600020905b8154815290600101906020018083116131b457829003601f168201915b5050505050815250509050600082600001515111806131f557506000816000015151115b156132055760019250505061320c565b6000925050505b919050565b6132196134cc565b600360008373ffffffffffffffffffffffffffffffffffffffff1673ffffffffffffffffffffffffffffffffffffffff1681526020019081526020016000206040518060600160405290816000820160009054906101000a900473ffffffffffffffffffffffffffffffffffffffff1673ffffffffffffffffffffffffffffffffffffffff1673ffffffffffffffffffffffffffffffffffffffff1681526020016001820180546132c9906141d0565b80601f01602080910402602001604051908101604052809291908181526020018280546132f5906141d0565b80156133425780601f1061331757610100808354040283529160200191613342565b820191906000526020600020905b81548152906001019060200180831161332557829003601f168201915b505050505081526020016002820160009054906101000a900460ff1615151515815250509050919050565b828054613379906141d0565b90600052602060002090601f01602090048101928261339b57600085556133e2565b82601f106133b457805160ff19168380011785556133e2565b828001600101855582156133e2579182015b828111156133e15782518255916020019190600101906133c6565b5b5090506133ef9190613505565b5090565b604051806101400160405280606081526020016060815260200160608152602001606081526020016060815260200160608152602001600073ffffffffffffffffffffffffffffffffffffffff1681526020016060815260200160608152602001606081525090565b6040518061016001604052806060815260200160608152602001606081526020016060815260200160608152602001606081526020016060815260200160608152602001600073ffffffffffffffffffffffffffffffffffffffff16815260200160608152602001606081525090565b6040518060600160405280600073ffffffffffffffffffffffffffffffffffffffff168152602001606081526020016000151581525090565b5b8082111561351e576000816000905550600101613506565b5090565b6000604051905090565b600080fd5b600080fd5b600073ffffffffffffffffffffffffffffffffffffffff82169050919050565b600061356182613536565b9050919050565b61357181613556565b811461357c57600080fd5b50565b60008135905061358e81613568565b92915050565b6000602082840312156135aa576135a961352c565b5b60006135b88482850161357f565b91505092915050565b600081519050919050565b600082825260208201905092915050565b60005b838110156135fb5780820151818401526020810190506135e0565b8381111561360a576000848401525b50505050565b6000601f19601f8301169050919050565b600061362c826135c1565b61363681856135cc565b93506136468185602086016135dd565b61364f81613610565b840191505092915050565b61366381613556565b82525050565b6000610160820190508181036000830152613684818e613621565b90508181036020830152613698818d613621565b905081810360408301526136ac818c613621565b905081810360608301526136c0818b613621565b905081810360808301526136d4818a613621565b905081810360a08301526136e88189613621565b905081810360c08301526136fc8188613621565b905081810360e08301526137108187613621565b905061372061010083018661365a565b8181036101208301526137338185613621565b90508181036101408301526137488184613621565b90509c9b505050505050505050505050565b600080fd5b600080fd5b7f4e487b7100000000000000000000000000000000000000000000000000000000600052604160045260246000fd5b61379c82613610565b810181811067ffffffffffffffff821117156137bb576137ba613764565b5b80604052505050565b60006137ce613522565b90506137da8282613793565b919050565b600067ffffffffffffffff8211156137fa576137f9613764565b5b61380382613610565b9050602081019050919050565b82818337600083830152505050565b600061383261382d846137df565b6137c4565b90508281526020810184848401111561384e5761384d61375f565b5b613859848285613810565b509392505050565b600082601f8301126138765761387561375a565b5b813561388684826020860161381f565b91505092915050565b600080604083850312156138a6576138a561352c565b5b60006138b48582860161357f565b925050602083013567ffffffffffffffff8111156138d5576138d4613531565b5b6138e185828601613861565b9150509250929050565b6000806000806000806000806000806101408b8d03121561390f5761390e61352c565b5b60008b013567ffffffffffffffff81111561392d5761392c613531565b5b6139398d828e01613861565b9a505060208b013567ffffffffffffffff81111561395a57613959613531565b5b6139668d828e01613861565b99505060408b013567ffffffffffffffff81111561398757613986613531565b5b6139938d828e01613861565b98505060608b013567ffffffffffffffff8111156139b4576139b3613531565b5b6139c08d828e01613861565b97505060808b013567ffffffffffffffff8111156139e1576139e0613531565b5b6139ed8d828e01613861565b96505060a08b013567ffffffffffffffff811115613a0e57613a0d613531565b5b613a1a8d828e01613861565b95505060c0613a2b8d828e0161357f565b94505060e08b013567ffffffffffffffff811115613a4c57613a4b613531565b5b613a588d828e01613861565b9350506101008b013567ffffffffffffffff811115613a7a57613a79613531565b5b613a868d828e01613861565b9250506101208b013567ffffffffffffffff811115613aa857613aa7613531565b5b613ab48d828e01613861565b9150509295989b9194979a5092959850565b60006020820190508181036000830152613ae08184613621565b905092915050565b600082825260208201905092915050565b6000613b04826135c1565b613b0e8185613ae8565b9350613b1e8185602086016135dd565b613b2781613610565b840191505092915050565b613b3b81613556565b82525050565b6000610140830160008301518482036000860152613b5f8282613af9565b91505060208301518482036020860152613b798282613af9565b91505060408301518482036040860152613b938282613af9565b91505060608301518482036060860152613bad8282613af9565b91505060808301518482036080860152613bc78282613af9565b91505060a083015184820360a0860152613be18282613af9565b91505060c0830151613bf660c0860182613b32565b5060e083015184820360e0860152613c0e8282613af9565b915050610100830151848203610100860152613c2a8282613af9565b915050610120830151848203610120860152613c468282613af9565b9150508091505092915050565b60006020820190508181036000830152613c6d8184613b41565b905092915050565b60008115159050919050565b613c8a81613c75565b82525050565b6000606082019050613ca5600083018661365a565b8181036020830152613cb78185613621565b9050613cc66040830184613c81565b949350505050565b6000610140820190508181036000830152613ce9818d613621565b90508181036020830152613cfd818c613621565b90508181036040830152613d11818b613621565b90508181036060830152613d25818a613621565b90508181036080830152613d398189613621565b905081810360a0830152613d4d8188613621565b9050613d5c60c083018761365a565b81810360e0830152613d6e8186613621565b9050818103610100830152613d838185613621565b9050818103610120830152613d988184613621565b90509b9a5050505050505050505050565b6000610160830160008301518482036000860152613dc78282613af9565b91505060208301518482036020860152613de18282613af9565b91505060408301518482036040860152613dfb8282613af9565b91505060608301518482036060860152613e158282613af9565b91505060808301518482036080860152613e2f8282613af9565b91505060a083015184820360a0860152613e498282613af9565b91505060c083015184820360c0860152613e638282613af9565b91505060e083015184820360e0860152613e7d8282613af9565b915050610100830151613e94610100860182613b32565b50610120830151848203610120860152613eae8282613af9565b915050610140830151848203610140860152613eca8282613af9565b9150508091505092915050565b60006020820190508181036000830152613ef18184613da9565b905092915050565b60008060008060008060008060008060006101608c8e031215613f1f57613f1e61352c565b5b60008c013567ffffffffffffffff811115613f3d57613f3c613531565b5b613f498e828f01613861565b9b505060208c013567ffffffffffffffff811115613f6a57613f69613531565b5b613f768e828f01613861565b9a505060408c013567ffffffffffffffff811115613f9757613f96613531565b5b613fa38e828f01613861565b99505060608c013567ffffffffffffffff811115613fc457613fc3613531565b5b613fd08e828f01613861565b98505060808c013567ffffffffffffffff811115613ff157613ff0613531565b5b613ffd8e828f01613861565b97505060a08c013567ffffffffffffffff81111561401e5761401d613531565b5b61402a8e828f01613861565b96505060c08c013567ffffffffffffffff81111561404b5761404a613531565b5b6140578e828f01613861565b95505060e08c013567ffffffffffffffff81111561407857614077613531565b5b6140848e828f01613861565b9450506101006140968e828f0161357f565b9350506101208c013567ffffffffffffffff8111156140b8576140b7613531565b5b6140c48e828f01613861565b9250506101408c013567ffffffffffffffff8111156140e6576140e5613531565b5b6140f28e828f01613861565b9150509295989b509295989b9093969950565b600060208201905061411a6000830184613c81565b92915050565b61412981613c75565b82525050565b60006060830160008301516141476000860182613b32565b506020830151848203602086015261415f8282613af9565b91505060408301516141746040860182614120565b508091505092915050565b60006020820190508181036000830152614199818461412f565b905092915050565b7f4e487b7100000000000000000000000000000000000000000000000000000000600052602260045260246000fd5b600060028204905060018216806141e857607f821691505b6020821081036141fb576141fa6141a1565b5b50919050565b7f4163636f756e7420616c726561647920686173206120726f6c6520726567697360008201527f7465726564000000000000000000000000000000000000000000000000000000602082015250565b600061425d6025836135cc565b915061426882614201565b604082019050919050565b6000602082019050818103600083015261428c81614250565b9050919050565b7f4163636f756e74206973206e6f74207265676973746572656400000000000000600082015250565b60006142c96019836135cc565b91506142d482614293565b602082019050919050565b600060208201905081810360008301526142f8816142bc565b9050919050565b7f4163636f756e7420646f6573206e6f74206861766520706572736f6e616c206960008201527f6e666f2073746f72656400000000000000000000000000000000000000000000602082015250565b600061435b602a836135cc565b9150614366826142ff565b604082019050919050565b6000602082019050818103600083015261438a8161434e565b9050919050565b60008190508160005260206000209050919050565b600081546143b3816141d0565b6143bd8186613ae8565b945060018216600081146143d857600181146143ea5761441d565b60ff198316865260208601935061441d565b6143f385614391565b60005b83811015614415578154818901526001820191506020810190506143f6565b808801955050505b50505092915050565b60008160001c9050919050565b600073ffffffffffffffffffffffffffffffffffffffff82169050919050565b600061446661446183614426565b614433565b9050919050565b600061014083016000808401858303600087015261448b83826143a6565b9250506001840185830360208701526144a483826143a6565b9250506002840185830360408701526144bd83826143a6565b9250506003840185830360608701526144d683826143a6565b9250506004840185830360808701526144ef83826143a6565b9250506005840185830360a087015261450883826143a6565b9250506006840154905061451b81614453565b61452860c0870182613b32565b506007840185830360e087015261453f83826143a6565b9250506008840185830361010087015261455983826143a6565b9250506009840185830361012087015261457383826143a6565b925050819250505092915050565b6000602082019050818103600083015261459b818461446d565b905092915050565b60006101608301600080840185830360008701526145c183826143a6565b9250506001840185830360208701526145da83826143a6565b9250506002840185830360408701526145f383826143a6565b92505060038401858303606087015261460c83826143a6565b92505060048401858303608087015261462583826143a6565b9250506005840185830360a087015261463e83826143a6565b9250506006840185830360c087015261465783826143a6565b9250506007840185830360e087015261467083826143a6565b9250506008840154905061468381614453565b614691610100870182613b32565b50600984018583036101208701526146a983826143a6565b925050600a84018583036101408701526146c383826143a6565b925050819250505092915050565b600060208201905081810360008301526146eb81846145a3565b90509291505056fea2646970667358221220f79c8d252a979fb1567bed0b0c1a53c5923c0066b21b80716fc27ccaaff7128f64736f6c634300080d0033",
  "immutableReferences": {},
  "source": "// SPDX-License-Identifier: MIT\r\npragma solidity ^0.8.13;\r\n\r\ncontract HealthSystem {\r\n    struct Patient {\r\n        string firstName;\r\n        string lastName;\r\n        string dateOfBirth;\r\n        string email;\r\n        string gender;\r\n        string patientAddress;\r\n        string phoneNumber;\r\n        string bloodgroup;\r\n        address metaMaskAccount;\r\n        string insuranceProvider;\r\n        string policyNumber;\r\n    }\r\n\r\n    struct Doctor {\r\n        string firstName;\r\n        string lastName;\r\n        string dateOfBirth;\r\n        string email;\r\n        string doctorAddress;\r\n        string phoneNumber;\r\n        address metaMaskAccount;\r\n        string specialization;\r\n        string medicalLicenseNumber;\r\n        string yearsOfExperience;\r\n    }\r\n\r\n    struct Account {\r\n        address metaMaskAccount;\r\n        string role;\r\n        bool isRegistered;\r\n    }\r\n\r\n    mapping(address => string) public metaMaskToEmail;\r\n    mapping(address => Patient) public patients;\r\n    mapping(address => Doctor) public doctors;\r\n    mapping(address => Account) public accounts;\r\n\r\n    event PatientExists(address indexed metaMaskAccount, Patient patient);\r\n    event PatientRegistered(address indexed metaMaskAccount, string email);\r\n    event DoctorExists(address indexed metaMaskAccount, Doctor doctor);\r\n    event DoctorRegistered(address indexed metaMaskAccount, string email);\r\n    event AccountRegistered(address indexed metaMaskAccount, string role);\r\n    event AccountExists(address indexed metaMaskAccount, string role);\r\n\r\n    modifier onlyRegisteredAccount(address _metaMaskAccount) {\r\n        require(accounts[_metaMaskAccount].isRegistered, \"Account is not registered\");\r\n        _;\r\n    }\r\n\r\n    function registerPatient(\r\n        string memory _firstName,\r\n        string memory _lastName,\r\n        string memory _dateOfBirth,\r\n        string memory _email,\r\n        string memory _gender,\r\n        string memory _patientAddress,\r\n        string memory _phoneNumber,\r\n        string memory _bloodgroup,\r\n        address _metaMaskAccount,\r\n        string memory _insuranceProvider,\r\n        string memory _policyNumber\r\n    ) public {\r\n        // Store the patient details in the mapping\r\n        patients[_metaMaskAccount] = Patient(\r\n            _firstName,\r\n            _lastName,\r\n            _dateOfBirth,\r\n            _email,\r\n            _gender,\r\n            _patientAddress,\r\n            _phoneNumber,\r\n            _bloodgroup,\r\n            _metaMaskAccount,\r\n            _insuranceProvider,\r\n            _policyNumber\r\n        );\r\n\r\n        // Map the MetaMask address to the email\r\n        metaMaskToEmail[_metaMaskAccount] = _email;\r\n\r\n        // Emit events for patient registration and existence\r\n        emit PatientRegistered(_metaMaskAccount, _email);\r\n        emit PatientExists(_metaMaskAccount, patients[_metaMaskAccount]);\r\n    }\r\n\r\n    function registerDoctor(\r\n        string memory _firstName,\r\n        string memory _lastName,\r\n        string memory _dateOfBirth,\r\n        string memory _email,\r\n        string memory _doctorAddress,\r\n        string memory _phoneNumber,\r\n        address _metaMaskAccount,\r\n        string memory _specialization,\r\n        string memory _medicalLicenseNumber,\r\n        string memory _yearsOfExperience\r\n    ) public {\r\n        // Store the doctor details in the mapping\r\n        doctors[_metaMaskAccount] = Doctor(\r\n            _firstName,\r\n            _lastName,\r\n            _dateOfBirth,\r\n            _email,\r\n            _doctorAddress,\r\n            _phoneNumber,\r\n            _metaMaskAccount,\r\n            _specialization,\r\n            _medicalLicenseNumber,\r\n            _yearsOfExperience\r\n        );\r\n\r\n        // Map the MetaMask address to the email\r\n        metaMaskToEmail[_metaMaskAccount] = _email;\r\n\r\n        // Emit events for doctor registration and existence\r\n        emit DoctorRegistered(_metaMaskAccount, _email);\r\n        emit DoctorExists(_metaMaskAccount, doctors[_metaMaskAccount]);\r\n    }\r\n\r\n    function registerAccount(address _metaMaskAccount, string memory _role) public {\r\n        // Check if the account already has a role registered\r\n        if (accounts[_metaMaskAccount].isRegistered) {\r\n            revert(\"Account already has a role registered\");\r\n        }\r\n\r\n        // Store the account details with role in the mapping\r\n        accounts[_metaMaskAccount] = Account({\r\n            metaMaskAccount: _metaMaskAccount,\r\n            role: _role,\r\n            isRegistered: true\r\n        });\r\n\r\n        // Emit event for account registration\r\n        emit AccountRegistered(_metaMaskAccount, _role);\r\n    }\r\n\r\n    function getPatient(address _metaMaskAccount) public view returns (Patient memory) {\r\n        return patients[_metaMaskAccount];\r\n    }\r\n\r\n    function getDoctor(address _metaMaskAccount) public view returns (Doctor memory) {\r\n        return doctors[_metaMaskAccount];\r\n    }\r\n\r\n    function getEmailByMetaMask(address _metaMaskAccount) public view returns (string memory) {\r\n        return metaMaskToEmail[_metaMaskAccount];\r\n    }\r\n\r\n    function getAccount(address _metaMaskAccount) public view returns (Account memory) {\r\n        return accounts[_metaMaskAccount];\r\n    }\r\n\r\n    function hasPersonalInfo(address _metaMaskAccount) public view returns (bool) {\r\n        Patient memory patient = patients[_metaMaskAccount];\r\n        Doctor memory doctor = doctors[_metaMaskAccount];\r\n        if (bytes(patient.firstName).length > 0 || bytes(doctor.firstName).length > 0) {\r\n            return true;\r\n        }\r\n        return false;\r\n    }\r\n\r\n    function performAction(address _metaMaskAccount) public view onlyRegisteredAccount(_metaMaskAccount) {\r\n        require(hasPersonalInfo(_metaMaskAccount), \"Account does not have personal info stored\");\r\n    }\r\n}\r\n",
  "sourcePath": "C:\\Users\\Pranith\\Documents\\GitHub\\Electronic_Health_Records\\Truffle\\contracts\\HealthSystem.sol",
  "compiler": {
    "name": "solc",
    "version": "0.8.13+commit.abaa5c0e.Emscripten.clang"
  },
  "schemaVersion": "3.4.16",
  "updatedAt": "2024-07-05T06:22:02.365Z",
  "networkType": "ethereum",
  "devdoc": {
    "kind": "dev",
    "methods": {},
    "version": 1
  },
  "userdoc": {
    "kind": "user",
    "methods": {},
    "version": 1
  }
}