{
  "contractName": "HealthSystem",
  "abi": [
    {
      "anonymous": false,
      "inputs": [
        {
          "indexed": false,
          "internalType": "address",
          "name": "metaMaskAccount",
          "type": "address"
        },
        {
          "indexed": false,
          "internalType": "string",
          "name": "role",
          "type": "string"
        }
      ],
      "name": "AccountExists",
      "type": "event"
    },
    {
      "anonymous": false,
      "inputs": [
        {
          "indexed": false,
          "internalType": "address",
          "name": "metaMaskAccount",
          "type": "address"
        },
        {
          "indexed": false,
          "internalType": "string",
          "name": "role",
          "type": "string"
        }
      ],
      "name": "AccountRegistered",
      "type": "event"
    },
    {
      "anonymous": false,
      "inputs": [
        {
          "components": [
            {
              "internalType": "string",
              "name": "firstName",
              "type": "string"
            },
            {
              "internalType": "string",
              "name": "lastName",
              "type": "string"
            },
            {
              "internalType": "string",
              "name": "dateOfBirth",
              "type": "string"
            },
            {
              "internalType": "string",
              "name": "email",
              "type": "string"
            },
            {
              "internalType": "string",
              "name": "gender",
              "type": "string"
            },
            {
              "internalType": "string",
              "name": "patientAddress",
              "type": "string"
            },
            {
              "internalType": "string",
              "name": "phoneNumber",
              "type": "string"
            },
            {
              "internalType": "string",
              "name": "bloodgroup",
              "type": "string"
            },
            {
              "internalType": "address",
              "name": "metaMaskAccount",
              "type": "address"
            },
            {
              "internalType": "string",
              "name": "insuranceProvider",
              "type": "string"
            },
            {
              "internalType": "string",
              "name": "policyNumber",
              "type": "string"
            }
          ],
          "indexed": false,
          "internalType": "struct HealthSystem.Patient",
          "name": "patient",
          "type": "tuple"
        }
      ],
      "name": "PatientExists",
      "type": "event"
    },
    {
      "anonymous": false,
      "inputs": [
        {
          "indexed": false,
          "internalType": "address",
          "name": "metaMaskAccount",
          "type": "address"
        },
        {
          "indexed": false,
          "internalType": "string",
          "name": "email",
          "type": "string"
        }
      ],
      "name": "PatientRegistered",
      "type": "event"
    },
    {
      "inputs": [
        {
          "internalType": "address",
          "name": "",
          "type": "address"
        }
      ],
      "name": "accounts",
      "outputs": [
        {
          "internalType": "address",
          "name": "metaMaskAccount",
          "type": "address"
        },
        {
          "internalType": "string",
          "name": "role",
          "type": "string"
        },
        {
          "internalType": "bool",
          "name": "isRegistered",
          "type": "bool"
        }
      ],
      "stateMutability": "view",
      "type": "function",
      "constant": true
    },
    {
      "inputs": [
        {
          "internalType": "address",
          "name": "",
          "type": "address"
        }
      ],
      "name": "metaMaskToEmail",
      "outputs": [
        {
          "internalType": "string",
          "name": "",
          "type": "string"
        }
      ],
      "stateMutability": "view",
      "type": "function",
      "constant": true
    },
    {
      "inputs": [
        {
          "internalType": "address",
          "name": "",
          "type": "address"
        }
      ],
      "name": "patients",
      "outputs": [
        {
          "internalType": "string",
          "name": "firstName",
          "type": "string"
        },
        {
          "internalType": "string",
          "name": "lastName",
          "type": "string"
        },
        {
          "internalType": "string",
          "name": "dateOfBirth",
          "type": "string"
        },
        {
          "internalType": "string",
          "name": "email",
          "type": "string"
        },
        {
          "internalType": "string",
          "name": "gender",
          "type": "string"
        },
        {
          "internalType": "string",
          "name": "patientAddress",
          "type": "string"
        },
        {
          "internalType": "string",
          "name": "phoneNumber",
          "type": "string"
        },
        {
          "internalType": "string",
          "name": "bloodgroup",
          "type": "string"
        },
        {
          "internalType": "address",
          "name": "metaMaskAccount",
          "type": "address"
        },
        {
          "internalType": "string",
          "name": "insuranceProvider",
          "type": "string"
        },
        {
          "internalType": "string",
          "name": "policyNumber",
          "type": "string"
        }
      ],
      "stateMutability": "view",
      "type": "function",
      "constant": true
    },
    {
      "inputs": [
        {
          "internalType": "string",
          "name": "_firstName",
          "type": "string"
        },
        {
          "internalType": "string",
          "name": "_lastName",
          "type": "string"
        },
        {
          "internalType": "string",
          "name": "_dateOfBirth",
          "type": "string"
        },
        {
          "internalType": "string",
          "name": "_email",
          "type": "string"
        },
        {
          "internalType": "string",
          "name": "_gender",
          "type": "string"
        },
        {
          "internalType": "string",
          "name": "_patientAddress",
          "type": "string"
        },
        {
          "internalType": "string",
          "name": "_phoneNumber",
          "type": "string"
        },
        {
          "internalType": "string",
          "name": "_bloodgroup",
          "type": "string"
        },
        {
          "internalType": "address",
          "name": "_metaMaskAccount",
          "type": "address"
        },
        {
          "internalType": "string",
          "name": "_insuranceProvider",
          "type": "string"
        },
        {
          "internalType": "string",
          "name": "_policyNumber",
          "type": "string"
        }
      ],
      "name": "registerPatient",
      "outputs": [],
      "stateMutability": "nonpayable",
      "type": "function"
    },
    {
      "inputs": [
        {
          "internalType": "address",
          "name": "_metaMaskAccount",
          "type": "address"
        },
        {
          "internalType": "string",
          "name": "_role",
          "type": "string"
        }
      ],
      "name": "registerAccount",
      "outputs": [],
      "stateMutability": "nonpayable",
      "type": "function"
    },
    {
      "inputs": [
        {
          "internalType": "address",
          "name": "_metaMaskAccount",
          "type": "address"
        }
      ],
      "name": "getPatient",
      "outputs": [
        {
          "components": [
            {
              "internalType": "string",
              "name": "firstName",
              "type": "string"
            },
            {
              "internalType": "string",
              "name": "lastName",
              "type": "string"
            },
            {
              "internalType": "string",
              "name": "dateOfBirth",
              "type": "string"
            },
            {
              "internalType": "string",
              "name": "email",
              "type": "string"
            },
            {
              "internalType": "string",
              "name": "gender",
              "type": "string"
            },
            {
              "internalType": "string",
              "name": "patientAddress",
              "type": "string"
            },
            {
              "internalType": "string",
              "name": "phoneNumber",
              "type": "string"
            },
            {
              "internalType": "string",
              "name": "bloodgroup",
              "type": "string"
            },
            {
              "internalType": "address",
              "name": "metaMaskAccount",
              "type": "address"
            },
            {
              "internalType": "string",
              "name": "insuranceProvider",
              "type": "string"
            },
            {
              "internalType": "string",
              "name": "policyNumber",
              "type": "string"
            }
          ],
          "internalType": "struct HealthSystem.Patient",
          "name": "",
          "type": "tuple"
        }
      ],
      "stateMutability": "view",
      "type": "function",
      "constant": true
    },
    {
      "inputs": [
        {
          "internalType": "address",
          "name": "_metaMaskAccount",
          "type": "address"
        }
      ],
      "name": "getEmailByMetaMask",
      "outputs": [
        {
          "internalType": "string",
          "name": "",
          "type": "string"
        }
      ],
      "stateMutability": "view",
      "type": "function",
      "constant": true
    },
    {
      "inputs": [
        {
          "internalType": "address",
          "name": "_metaMaskAccount",
          "type": "address"
        }
      ],
      "name": "getAccount",
      "outputs": [
        {
          "components": [
            {
              "internalType": "address",
              "name": "metaMaskAccount",
              "type": "address"
            },
            {
              "internalType": "string",
              "name": "role",
              "type": "string"
            },
            {
              "internalType": "bool",
              "name": "isRegistered",
              "type": "bool"
            }
          ],
          "internalType": "struct HealthSystem.Account",
          "name": "",
          "type": "tuple"
        }
      ],
      "stateMutability": "view",
      "type": "function",
      "constant": true
    },
    {
      "inputs": [
        {
          "internalType": "address",
          "name": "_metaMaskAccount",
          "type": "address"
        }
      ],
      "name": "hasPersonalInfo",
      "outputs": [
        {
          "internalType": "bool",
          "name": "",
          "type": "bool"
        }
      ],
      "stateMutability": "view",
      "type": "function",
      "constant": true
    },
    {
      "inputs": [
        {
          "internalType": "address",
          "name": "_metaMaskAccount",
          "type": "address"
        }
      ],
      "name": "performAction",
      "outputs": [],
      "stateMutability": "view",
      "type": "function",
      "constant": true
    }
  ],
  "bytecode": "0x608060405234801561001057600080fd5b50613115806100206000396000f3fe608060405234801561001057600080fd5b506004361061009e5760003560e01c8063b5368e2011610066578063b5368e2014610177578063d0bbbf4b146101a7578063ea3fc823146101c3578063f17245f9146101f3578063fbcbc0f1146102235761009e565b80630869cfbc146100a357806310ff3882146100dd57806324736ccf146100f957806328fce6ca146101155780635e5c06e214610145575b600080fd5b6100bd60048036038101906100b8919061269c565b610253565b6040516100d49b9a99989796959493929190612771565b60405180910390f35b6100f760048036038101906100f29190612997565b61081d565b005b610113600480360381019061010e919061269c565b6109e4565b005b61012f600480360381019061012a919061269c565b610ac0565b60405161013c91906129f3565b60405180910390f35b61015f600480360381019061015a919061269c565b610b90565b60405161016e93929190612a30565b60405180910390f35b610191600480360381019061018c919061269c565b610c6f565b60405161019e9190612bf5565b60405180910390f35b6101c160048036038101906101bc9190612c17565b6112d3565b005b6101dd60048036038101906101d8919061269c565b611c65565b6040516101ea91906129f3565b60405180910390f35b61020d6004803603810190610208919061269c565b611d05565b60405161021a9190612e23565b60405180910390f35b61023d6004803603810190610238919061269c565b612382565b60405161024a9190612e9d565b60405180910390f35b600160205280600052604060002060009150905080600001805461027690612eee565b80601f01602080910402602001604051908101604052809291908181526020018280546102a290612eee565b80156102ef5780601f106102c4576101008083540402835291602001916102ef565b820191906000526020600020905b8154815290600101906020018083116102d257829003601f168201915b50505050509080600101805461030490612eee565b80601f016020809104026020016040519081016040528092919081815260200182805461033090612eee565b801561037d5780601f106103525761010080835404028352916020019161037d565b820191906000526020600020905b81548152906001019060200180831161036057829003601f168201915b50505050509080600201805461039290612eee565b80601f01602080910402602001604051908101604052809291908181526020018280546103be90612eee565b801561040b5780601f106103e05761010080835404028352916020019161040b565b820191906000526020600020905b8154815290600101906020018083116103ee57829003601f168201915b50505050509080600301805461042090612eee565b80601f016020809104026020016040519081016040528092919081815260200182805461044c90612eee565b80156104995780601f1061046e57610100808354040283529160200191610499565b820191906000526020600020905b81548152906001019060200180831161047c57829003601f168201915b5050505050908060040180546104ae90612eee565b80601f01602080910402602001604051908101604052809291908181526020018280546104da90612eee565b80156105275780601f106104fc57610100808354040283529160200191610527565b820191906000526020600020905b81548152906001019060200180831161050a57829003601f168201915b50505050509080600501805461053c90612eee565b80601f016020809104026020016040519081016040528092919081815260200182805461056890612eee565b80156105b55780601f1061058a576101008083540402835291602001916105b5565b820191906000526020600020905b81548152906001019060200180831161059857829003601f168201915b5050505050908060060180546105ca90612eee565b80601f01602080910402602001604051908101604052809291908181526020018280546105f690612eee565b80156106435780601f1061061857610100808354040283529160200191610643565b820191906000526020600020905b81548152906001019060200180831161062657829003601f168201915b50505050509080600701805461065890612eee565b80601f016020809104026020016040519081016040528092919081815260200182805461068490612eee565b80156106d15780601f106106a6576101008083540402835291602001916106d1565b820191906000526020600020905b8154815290600101906020018083116106b457829003601f168201915b5050505050908060080160009054906101000a900473ffffffffffffffffffffffffffffffffffffffff169080600901805461070c90612eee565b80601f016020809104026020016040519081016040528092919081815260200182805461073890612eee565b80156107855780601f1061075a57610100808354040283529160200191610785565b820191906000526020600020905b81548152906001019060200180831161076857829003601f168201915b50505050509080600a01805461079a90612eee565b80601f01602080910402602001604051908101604052809291908181526020018280546107c690612eee565b80156108135780601f106107e857610100808354040283529160200191610813565b820191906000526020600020905b8154815290600101906020018083116107f657829003601f168201915b505050505090508b565b600260008373ffffffffffffffffffffffffffffffffffffffff1673ffffffffffffffffffffffffffffffffffffffff16815260200190815260200160002060020160009054906101000a900460ff16156108ad576040517f08c379a00000000000000000000000000000000000000000000000000000000081526004016108a490612f91565b60405180910390fd5b60405180606001604052808373ffffffffffffffffffffffffffffffffffffffff16815260200182815260200160011515815250600260008473ffffffffffffffffffffffffffffffffffffffff1673ffffffffffffffffffffffffffffffffffffffff16815260200190815260200160002060008201518160000160006101000a81548173ffffffffffffffffffffffffffffffffffffffff021916908373ffffffffffffffffffffffffffffffffffffffff16021790555060208201518160010190805190602001906109839291906124de565b5060408201518160020160006101000a81548160ff0219169083151502179055509050507f64f73046f77686e7ba3aebcaac09e4568d436c6968f446459528ce3ac8ccb60f82826040516109d8929190612fb1565b60405180910390a15050565b80600260008273ffffffffffffffffffffffffffffffffffffffff1673ffffffffffffffffffffffffffffffffffffffff16815260200190815260200160002060020160009054906101000a900460ff16610a74576040517f08c379a0000000000000000000000000000000000000000000000000000000008152600401610a6b9061302d565b60405180910390fd5b610a7d82611d05565b610abc576040517f08c379a0000000000000000000000000000000000000000000000000000000008152600401610ab3906130bf565b60405180910390fd5b5050565b60606000808373ffffffffffffffffffffffffffffffffffffffff1673ffffffffffffffffffffffffffffffffffffffff1681526020019081526020016000208054610b0b90612eee565b80601f0160208091040260200160405190810160405280929190818152602001828054610b3790612eee565b8015610b845780601f10610b5957610100808354040283529160200191610b84565b820191906000526020600020905b815481529060010190602001808311610b6757829003601f168201915b50505050509050919050565b60026020528060005260406000206000915090508060000160009054906101000a900473ffffffffffffffffffffffffffffffffffffffff1690806001018054610bd990612eee565b80601f0160208091040260200160405190810160405280929190818152602001828054610c0590612eee565b8015610c525780601f10610c2757610100808354040283529160200191610c52565b820191906000526020600020905b815481529060010190602001808311610c3557829003601f168201915b5050505050908060020160009054906101000a900460ff16905083565b610c77612564565b600160008373ffffffffffffffffffffffffffffffffffffffff1673ffffffffffffffffffffffffffffffffffffffff16815260200190815260200160002060405180610160016040529081600082018054610cd290612eee565b80601f0160208091040260200160405190810160405280929190818152602001828054610cfe90612eee565b8015610d4b5780601f10610d2057610100808354040283529160200191610d4b565b820191906000526020600020905b815481529060010190602001808311610d2e57829003601f168201915b50505050508152602001600182018054610d6490612eee565b80601f0160208091040260200160405190810160405280929190818152602001828054610d9090612eee565b8015610ddd5780601f10610db257610100808354040283529160200191610ddd565b820191906000526020600020905b815481529060010190602001808311610dc057829003601f168201915b50505050508152602001600282018054610df690612eee565b80601f0160208091040260200160405190810160405280929190818152602001828054610e2290612eee565b8015610e6f5780601f10610e4457610100808354040283529160200191610e6f565b820191906000526020600020905b815481529060010190602001808311610e5257829003601f168201915b50505050508152602001600382018054610e8890612eee565b80601f0160208091040260200160405190810160405280929190818152602001828054610eb490612eee565b8015610f015780601f10610ed657610100808354040283529160200191610f01565b820191906000526020600020905b815481529060010190602001808311610ee457829003601f168201915b50505050508152602001600482018054610f1a90612eee565b80601f0160208091040260200160405190810160405280929190818152602001828054610f4690612eee565b8015610f935780601f10610f6857610100808354040283529160200191610f93565b820191906000526020600020905b815481529060010190602001808311610f7657829003601f168201915b50505050508152602001600582018054610fac90612eee565b80601f0160208091040260200160405190810160405280929190818152602001828054610fd890612eee565b80156110255780601f10610ffa57610100808354040283529160200191611025565b820191906000526020600020905b81548152906001019060200180831161100857829003601f168201915b5050505050815260200160068201805461103e90612eee565b80601f016020809104026020016040519081016040528092919081815260200182805461106a90612eee565b80156110b75780601f1061108c576101008083540402835291602001916110b7565b820191906000526020600020905b81548152906001019060200180831161109a57829003601f168201915b505050505081526020016007820180546110d090612eee565b80601f01602080910402602001604051908101604052809291908181526020018280546110fc90612eee565b80156111495780601f1061111e57610100808354040283529160200191611149565b820191906000526020600020905b81548152906001019060200180831161112c57829003601f168201915b505050505081526020016008820160009054906101000a900473ffffffffffffffffffffffffffffffffffffffff1673ffffffffffffffffffffffffffffffffffffffff1673ffffffffffffffffffffffffffffffffffffffff1681526020016009820180546111b890612eee565b80601f01602080910402602001604051908101604052809291908181526020018280546111e490612eee565b80156112315780601f1061120657610100808354040283529160200191611231565b820191906000526020600020905b81548152906001019060200180831161121457829003601f168201915b50505050508152602001600a8201805461124a90612eee565b80601f016020809104026020016040519081016040528092919081815260200182805461127690612eee565b80156112c35780601f10611298576101008083540402835291602001916112c3565b820191906000526020600020905b8154815290600101906020018083116112a657829003601f168201915b5050505050815250509050919050565b60008060008573ffffffffffffffffffffffffffffffffffffffff1673ffffffffffffffffffffffffffffffffffffffff168152602001908152602001600020805461131e90612eee565b9050146119bb576000600160008573ffffffffffffffffffffffffffffffffffffffff1673ffffffffffffffffffffffffffffffffffffffff1681526020019081526020016000206040518061016001604052908160008201805461138290612eee565b80601f01602080910402602001604051908101604052809291908181526020018280546113ae90612eee565b80156113fb5780601f106113d0576101008083540402835291602001916113fb565b820191906000526020600020905b8154815290600101906020018083116113de57829003601f168201915b5050505050815260200160018201805461141490612eee565b80601f016020809104026020016040519081016040528092919081815260200182805461144090612eee565b801561148d5780601f106114625761010080835404028352916020019161148d565b820191906000526020600020905b81548152906001019060200180831161147057829003601f168201915b505050505081526020016002820180546114a690612eee565b80601f01602080910402602001604051908101604052809291908181526020018280546114d290612eee565b801561151f5780601f106114f45761010080835404028352916020019161151f565b820191906000526020600020905b81548152906001019060200180831161150257829003601f168201915b5050505050815260200160038201805461153890612eee565b80601f016020809104026020016040519081016040528092919081815260200182805461156490612eee565b80156115b15780601f10611586576101008083540402835291602001916115b1565b820191906000526020600020905b81548152906001019060200180831161159457829003601f168201915b505050505081526020016004820180546115ca90612eee565b80601f01602080910402602001604051908101604052809291908181526020018280546115f690612eee565b80156116435780601f1061161857610100808354040283529160200191611643565b820191906000526020600020905b81548152906001019060200180831161162657829003601f168201915b5050505050815260200160058201805461165c90612eee565b80601f016020809104026020016040519081016040528092919081815260200182805461168890612eee565b80156116d55780601f106116aa576101008083540402835291602001916116d5565b820191906000526020600020905b8154815290600101906020018083116116b857829003601f168201915b505050505081526020016006820180546116ee90612eee565b80601f016020809104026020016040519081016040528092919081815260200182805461171a90612eee565b80156117675780601f1061173c57610100808354040283529160200191611767565b820191906000526020600020905b81548152906001019060200180831161174a57829003601f168201915b5050505050815260200160078201805461178090612eee565b80601f01602080910402602001604051908101604052809291908181526020018280546117ac90612eee565b80156117f95780601f106117ce576101008083540402835291602001916117f9565b820191906000526020600020905b8154815290600101906020018083116117dc57829003601f168201915b505050505081526020016008820160009054906101000a900473ffffffffffffffffffffffffffffffffffffffff1673ffffffffffffffffffffffffffffffffffffffff1673ffffffffffffffffffffffffffffffffffffffff16815260200160098201805461186890612eee565b80601f016020809104026020016040519081016040528092919081815260200182805461189490612eee565b80156118e15780601f106118b6576101008083540402835291602001916118e1565b820191906000526020600020905b8154815290600101906020018083116118c457829003601f168201915b50505050508152602001600a820180546118fa90612eee565b80601f016020809104026020016040519081016040528092919081815260200182805461192690612eee565b80156119735780601f1061194857610100808354040283529160200191611973565b820191906000526020600020905b81548152906001019060200180831161195657829003601f168201915b50505050508152505090507f9a4160c92f9f641f42960fd85f950d79d6934b716d57af40c04ef39ba0ec4150816040516119ad9190612bf5565b60405180910390a150611c58565b6040518061016001604052808c81526020018b81526020018a81526020018981526020018881526020018781526020018681526020018581526020018473ffffffffffffffffffffffffffffffffffffffff16815260200183815260200182815250600160008573ffffffffffffffffffffffffffffffffffffffff1673ffffffffffffffffffffffffffffffffffffffff1681526020019081526020016000206000820151816000019080519060200190611a789291906124de565b506020820151816001019080519060200190611a959291906124de565b506040820151816002019080519060200190611ab29291906124de565b506060820151816003019080519060200190611acf9291906124de565b506080820151816004019080519060200190611aec9291906124de565b5060a0820151816005019080519060200190611b099291906124de565b5060c0820151816006019080519060200190611b269291906124de565b5060e0820151816007019080519060200190611b439291906124de565b506101008201518160080160006101000a81548173ffffffffffffffffffffffffffffffffffffffff021916908373ffffffffffffffffffffffffffffffffffffffff160217905550610120820151816009019080519060200190611ba99291906124de565b5061014082015181600a019080519060200190611bc79291906124de565b50905050876000808573ffffffffffffffffffffffffffffffffffffffff1673ffffffffffffffffffffffffffffffffffffffff1681526020019081526020016000209080519060200190611c1d9291906124de565b507fc85b128388b9c331a2a5485dce4cd0f3db9f7c279d327ce95d6d39d6c94644c78389604051611c4f929190612fb1565b60405180910390a15b5050505050505050505050565b60006020528060005260406000206000915090508054611c8490612eee565b80601f0160208091040260200160405190810160405280929190818152602001828054611cb090612eee565b8015611cfd5780601f10611cd257610100808354040283529160200191611cfd565b820191906000526020600020905b815481529060010190602001808311611ce057829003601f168201915b505050505081565b600080600160008473ffffffffffffffffffffffffffffffffffffffff1673ffffffffffffffffffffffffffffffffffffffff16815260200190815260200160002060405180610160016040529081600082018054611d6390612eee565b80601f0160208091040260200160405190810160405280929190818152602001828054611d8f90612eee565b8015611ddc5780601f10611db157610100808354040283529160200191611ddc565b820191906000526020600020905b815481529060010190602001808311611dbf57829003601f168201915b50505050508152602001600182018054611df590612eee565b80601f0160208091040260200160405190810160405280929190818152602001828054611e2190612eee565b8015611e6e5780601f10611e4357610100808354040283529160200191611e6e565b820191906000526020600020905b815481529060010190602001808311611e5157829003601f168201915b50505050508152602001600282018054611e8790612eee565b80601f0160208091040260200160405190810160405280929190818152602001828054611eb390612eee565b8015611f005780601f10611ed557610100808354040283529160200191611f00565b820191906000526020600020905b815481529060010190602001808311611ee357829003601f168201915b50505050508152602001600382018054611f1990612eee565b80601f0160208091040260200160405190810160405280929190818152602001828054611f4590612eee565b8015611f925780601f10611f6757610100808354040283529160200191611f92565b820191906000526020600020905b815481529060010190602001808311611f7557829003601f168201915b50505050508152602001600482018054611fab90612eee565b80601f0160208091040260200160405190810160405280929190818152602001828054611fd790612eee565b80156120245780601f10611ff957610100808354040283529160200191612024565b820191906000526020600020905b81548152906001019060200180831161200757829003601f168201915b5050505050815260200160058201805461203d90612eee565b80601f016020809104026020016040519081016040528092919081815260200182805461206990612eee565b80156120b65780601f1061208b576101008083540402835291602001916120b6565b820191906000526020600020905b81548152906001019060200180831161209957829003601f168201915b505050505081526020016006820180546120cf90612eee565b80601f01602080910402602001604051908101604052809291908181526020018280546120fb90612eee565b80156121485780601f1061211d57610100808354040283529160200191612148565b820191906000526020600020905b81548152906001019060200180831161212b57829003601f168201915b5050505050815260200160078201805461216190612eee565b80601f016020809104026020016040519081016040528092919081815260200182805461218d90612eee565b80156121da5780601f106121af576101008083540402835291602001916121da565b820191906000526020600020905b8154815290600101906020018083116121bd57829003601f168201915b505050505081526020016008820160009054906101000a900473ffffffffffffffffffffffffffffffffffffffff1673ffffffffffffffffffffffffffffffffffffffff1673ffffffffffffffffffffffffffffffffffffffff16815260200160098201805461224990612eee565b80601f016020809104026020016040519081016040528092919081815260200182805461227590612eee565b80156122c25780601f10612297576101008083540402835291602001916122c2565b820191906000526020600020905b8154815290600101906020018083116122a557829003601f168201915b50505050508152602001600a820180546122db90612eee565b80601f016020809104026020016040519081016040528092919081815260200182805461230790612eee565b80156123545780601f1061232957610100808354040283529160200191612354565b820191906000526020600020905b81548152906001019060200180831161233757829003601f168201915b50505050508152505090506000816000015151111561237757600191505061237d565b60009150505b919050565b61238a6125d4565b600260008373ffffffffffffffffffffffffffffffffffffffff1673ffffffffffffffffffffffffffffffffffffffff1681526020019081526020016000206040518060600160405290816000820160009054906101000a900473ffffffffffffffffffffffffffffffffffffffff1673ffffffffffffffffffffffffffffffffffffffff1673ffffffffffffffffffffffffffffffffffffffff16815260200160018201805461243a90612eee565b80601f016020809104026020016040519081016040528092919081815260200182805461246690612eee565b80156124b35780601f10612488576101008083540402835291602001916124b3565b820191906000526020600020905b81548152906001019060200180831161249657829003601f168201915b505050505081526020016002820160009054906101000a900460ff1615151515815250509050919050565b8280546124ea90612eee565b90600052602060002090601f01602090048101928261250c5760008555612553565b82601f1061252557805160ff1916838001178555612553565b82800160010185558215612553579182015b82811115612552578251825591602001919060010190612537565b5b509050612560919061260d565b5090565b6040518061016001604052806060815260200160608152602001606081526020016060815260200160608152602001606081526020016060815260200160608152602001600073ffffffffffffffffffffffffffffffffffffffff16815260200160608152602001606081525090565b6040518060600160405280600073ffffffffffffffffffffffffffffffffffffffff168152602001606081526020016000151581525090565b5b8082111561262657600081600090555060010161260e565b5090565b6000604051905090565b600080fd5b600080fd5b600073ffffffffffffffffffffffffffffffffffffffff82169050919050565b60006126698261263e565b9050919050565b6126798161265e565b811461268457600080fd5b50565b60008135905061269681612670565b92915050565b6000602082840312156126b2576126b1612634565b5b60006126c084828501612687565b91505092915050565b600081519050919050565b600082825260208201905092915050565b60005b838110156127035780820151818401526020810190506126e8565b83811115612712576000848401525b50505050565b6000601f19601f8301169050919050565b6000612734826126c9565b61273e81856126d4565b935061274e8185602086016126e5565b61275781612718565b840191505092915050565b61276b8161265e565b82525050565b600061016082019050818103600083015261278c818e612729565b905081810360208301526127a0818d612729565b905081810360408301526127b4818c612729565b905081810360608301526127c8818b612729565b905081810360808301526127dc818a612729565b905081810360a08301526127f08189612729565b905081810360c08301526128048188612729565b905081810360e08301526128188187612729565b9050612828610100830186612762565b81810361012083015261283b8185612729565b90508181036101408301526128508184612729565b90509c9b505050505050505050505050565b600080fd5b600080fd5b7f4e487b7100000000000000000000000000000000000000000000000000000000600052604160045260246000fd5b6128a482612718565b810181811067ffffffffffffffff821117156128c3576128c261286c565b5b80604052505050565b60006128d661262a565b90506128e2828261289b565b919050565b600067ffffffffffffffff8211156129025761290161286c565b5b61290b82612718565b9050602081019050919050565b82818337600083830152505050565b600061293a612935846128e7565b6128cc565b90508281526020810184848401111561295657612955612867565b5b612961848285612918565b509392505050565b600082601f83011261297e5761297d612862565b5b813561298e848260208601612927565b91505092915050565b600080604083850312156129ae576129ad612634565b5b60006129bc85828601612687565b925050602083013567ffffffffffffffff8111156129dd576129dc612639565b5b6129e985828601612969565b9150509250929050565b60006020820190508181036000830152612a0d8184612729565b905092915050565b60008115159050919050565b612a2a81612a15565b82525050565b6000606082019050612a456000830186612762565b8181036020830152612a578185612729565b9050612a666040830184612a21565b949350505050565b600082825260208201905092915050565b6000612a8a826126c9565b612a948185612a6e565b9350612aa48185602086016126e5565b612aad81612718565b840191505092915050565b612ac18161265e565b82525050565b6000610160830160008301518482036000860152612ae58282612a7f565b91505060208301518482036020860152612aff8282612a7f565b91505060408301518482036040860152612b198282612a7f565b91505060608301518482036060860152612b338282612a7f565b91505060808301518482036080860152612b4d8282612a7f565b91505060a083015184820360a0860152612b678282612a7f565b91505060c083015184820360c0860152612b818282612a7f565b91505060e083015184820360e0860152612b9b8282612a7f565b915050610100830151612bb2610100860182612ab8565b50610120830151848203610120860152612bcc8282612a7f565b915050610140830151848203610140860152612be88282612a7f565b9150508091505092915050565b60006020820190508181036000830152612c0f8184612ac7565b905092915050565b60008060008060008060008060008060006101608c8e031215612c3d57612c3c612634565b5b60008c013567ffffffffffffffff811115612c5b57612c5a612639565b5b612c678e828f01612969565b9b505060208c013567ffffffffffffffff811115612c8857612c87612639565b5b612c948e828f01612969565b9a505060408c013567ffffffffffffffff811115612cb557612cb4612639565b5b612cc18e828f01612969565b99505060608c013567ffffffffffffffff811115612ce257612ce1612639565b5b612cee8e828f01612969565b98505060808c013567ffffffffffffffff811115612d0f57612d0e612639565b5b612d1b8e828f01612969565b97505060a08c013567ffffffffffffffff811115612d3c57612d3b612639565b5b612d488e828f01612969565b96505060c08c013567ffffffffffffffff811115612d6957612d68612639565b5b612d758e828f01612969565b95505060e08c013567ffffffffffffffff811115612d9657612d95612639565b5b612da28e828f01612969565b945050610100612db48e828f01612687565b9350506101208c013567ffffffffffffffff811115612dd657612dd5612639565b5b612de28e828f01612969565b9250506101408c013567ffffffffffffffff811115612e0457612e03612639565b5b612e108e828f01612969565b9150509295989b509295989b9093969950565b6000602082019050612e386000830184612a21565b92915050565b612e4781612a15565b82525050565b6000606083016000830151612e656000860182612ab8565b5060208301518482036020860152612e7d8282612a7f565b9150506040830151612e926040860182612e3e565b508091505092915050565b60006020820190508181036000830152612eb78184612e4d565b905092915050565b7f4e487b7100000000000000000000000000000000000000000000000000000000600052602260045260246000fd5b60006002820490506001821680612f0657607f821691505b602082108103612f1957612f18612ebf565b5b50919050565b7f4163636f756e7420616c726561647920686173206120726f6c6520726567697360008201527f7465726564000000000000000000000000000000000000000000000000000000602082015250565b6000612f7b6025836126d4565b9150612f8682612f1f565b604082019050919050565b60006020820190508181036000830152612faa81612f6e565b9050919050565b6000604082019050612fc66000830185612762565b8181036020830152612fd88184612729565b90509392505050565b7f4163636f756e74206973206e6f74207265676973746572656400000000000000600082015250565b60006130176019836126d4565b915061302282612fe1565b602082019050919050565b600060208201905081810360008301526130468161300a565b9050919050565b7f50617469656e7420646f6573206e6f74206861766520706572736f6e616c206960008201527f6e666f2073746f72656400000000000000000000000000000000000000000000602082015250565b60006130a9602a836126d4565b91506130b48261304d565b604082019050919050565b600060208201905081810360008301526130d88161309c565b905091905056fea26469706673582212204de15e8864494f1d569c94faea011fe6bce5cca109371c8255b4df810c1ee74d64736f6c634300080d0033",
  "immutableReferences": {},
  "source": "// SPDX-License-Identifier: MIT\r\npragma solidity ^0.8.13;\r\n\r\ncontract HealthSystem {\r\n    struct Patient {\r\n        string firstName;\r\n        string lastName;\r\n        string dateOfBirth;\r\n        string email;\r\n        string gender;\r\n        string patientAddress;\r\n        string phoneNumber;\r\n        string bloodgroup;\r\n        address metaMaskAccount;\r\n        string insuranceProvider;\r\n        string policyNumber;\r\n    }\r\n\r\n    struct Account {\r\n        address metaMaskAccount;\r\n        string role;\r\n        bool isRegistered;\r\n    }\r\n\r\n    mapping(address => string) public metaMaskToEmail;\r\n    mapping(address => Patient) public patients;\r\n    mapping(address => Account) public accounts;\r\n\r\n    event PatientExists(Patient patient);\r\n    event PatientRegistered(address metaMaskAccount, string email);\r\n    event AccountRegistered(address metaMaskAccount, string role);\r\n    event AccountExists(address metaMaskAccount, string role);\r\n\r\n    modifier onlyRegisteredPatient(address _metaMaskAccount) {\r\n        require(accounts[_metaMaskAccount].isRegistered, \"Account is not registered\");\r\n        _;\r\n    }\r\n\r\n    function registerPatient(\r\n        string memory _firstName,\r\n        string memory _lastName,\r\n        string memory _dateOfBirth,\r\n        string memory _email,\r\n        string memory _gender,\r\n        string memory _patientAddress,\r\n        string memory _phoneNumber,\r\n        string memory _bloodgroup,\r\n        address _metaMaskAccount,\r\n        string memory _insuranceProvider,\r\n        string memory _policyNumber\r\n    ) public {\r\n        // Check if the MetaMask account is already registered as a patient\r\n        if (bytes(metaMaskToEmail[_metaMaskAccount]).length != 0) {\r\n            Patient memory existingPatient = patients[_metaMaskAccount];\r\n            emit PatientExists(existingPatient);\r\n            return;\r\n        }\r\n\r\n        // Store the patient details in the mapping\r\n        patients[_metaMaskAccount] = Patient(\r\n            _firstName,\r\n            _lastName,\r\n            _dateOfBirth,\r\n            _email,\r\n            _gender,\r\n            _patientAddress,\r\n            _phoneNumber,\r\n            _bloodgroup,\r\n            _metaMaskAccount,\r\n            _insuranceProvider,\r\n            _policyNumber\r\n        );\r\n\r\n        // Map the MetaMask address to the email\r\n        metaMaskToEmail[_metaMaskAccount] = _email;\r\n\r\n        // Emit event for patient registration\r\n        emit PatientRegistered(_metaMaskAccount, _email);\r\n    }\r\n\r\n    function registerAccount(address _metaMaskAccount, string memory _role) public {\r\n        // Check if the account already has a role registered\r\n        if (accounts[_metaMaskAccount].isRegistered) {\r\n            revert(\"Account already has a role registered\");\r\n        }\r\n\r\n        // Store the account details with role in the mapping\r\n        accounts[_metaMaskAccount] = Account({\r\n            metaMaskAccount: _metaMaskAccount,\r\n            role: _role,\r\n            isRegistered: true\r\n        });\r\n\r\n        // Emit event for account registration\r\n        emit AccountRegistered(_metaMaskAccount, _role);\r\n    }\r\n\r\n    function getPatient(address _metaMaskAccount) public view returns (Patient memory) {\r\n        return patients[_metaMaskAccount];\r\n    }\r\n\r\n    function getEmailByMetaMask(address _metaMaskAccount) public view returns (string memory) {\r\n        return metaMaskToEmail[_metaMaskAccount];\r\n    }\r\n\r\n    function getAccount(address _metaMaskAccount) public view returns (Account memory) {\r\n        return accounts[_metaMaskAccount];\r\n    }\r\n\r\n    function hasPersonalInfo(address _metaMaskAccount) public view returns (bool) {\r\n        Patient memory patient = patients[_metaMaskAccount];\r\n        if (bytes(patient.firstName).length > 0) {\r\n            return true;\r\n        }\r\n        return false;\r\n    }\r\n\r\n    // Example of function that requires both registration and personal info\r\n    function performAction(address _metaMaskAccount) public view onlyRegisteredPatient(_metaMaskAccount) {\r\n        require(hasPersonalInfo(_metaMaskAccount), \"Patient does not have personal info stored\");\r\n        // Perform action that requires both registration and personal info\r\n    }\r\n}\r\n",
  "sourcePath": "C:\\Users\\Pranith\\Documents\\GitHub\\Electronic_Health_Records\\Truffle\\contracts\\HealthSystem.sol",
  "compiler": {
    "name": "solc",
    "version": "0.8.13+commit.abaa5c0e.Emscripten.clang"
  },
  "schemaVersion": "3.4.16",
  "updatedAt": "2024-07-03T20:28:58.181Z",
  "networkType": "ethereum",
  "devdoc": {
    "kind": "dev",
    "methods": {},
    "version": 1
  },
  "userdoc": {
    "kind": "user",
    "methods": {},
    "version": 1
  }
}