{
  "contractName": "HealthSystem",
  "abi": [
    {
      "anonymous": false,
      "inputs": [
        {
          "indexed": true,
          "internalType": "address",
          "name": "metaMaskAccount",
          "type": "address"
        },
        {
          "components": [
            {
              "internalType": "address",
              "name": "metaMaskAccount",
              "type": "address"
            },
            {
              "internalType": "string",
              "name": "role",
              "type": "string"
            },
            {
              "internalType": "bool",
              "name": "isRegistered",
              "type": "bool"
            }
          ],
          "indexed": false,
          "internalType": "struct HealthSystem.Account",
          "name": "account",
          "type": "tuple"
        }
      ],
      "name": "AccountExists",
      "type": "event"
    },
    {
      "anonymous": false,
      "inputs": [
        {
          "indexed": true,
          "internalType": "address",
          "name": "metaMaskAccount",
          "type": "address"
        },
        {
          "indexed": false,
          "internalType": "string",
          "name": "role",
          "type": "string"
        }
      ],
      "name": "AccountRegistered",
      "type": "event"
    },
    {
      "anonymous": false,
      "inputs": [
        {
          "indexed": true,
          "internalType": "address",
          "name": "metaMaskAccount",
          "type": "address"
        },
        {
          "components": [
            {
              "internalType": "string",
              "name": "firstName",
              "type": "string"
            },
            {
              "internalType": "string",
              "name": "lastName",
              "type": "string"
            },
            {
              "internalType": "string",
              "name": "dateOfBirth",
              "type": "string"
            },
            {
              "internalType": "string",
              "name": "email",
              "type": "string"
            },
            {
              "internalType": "string",
              "name": "doctorAddress",
              "type": "string"
            },
            {
              "internalType": "string",
              "name": "phoneNumber",
              "type": "string"
            },
            {
              "internalType": "address",
              "name": "metaMaskAccount",
              "type": "address"
            },
            {
              "internalType": "string",
              "name": "specialization",
              "type": "string"
            },
            {
              "internalType": "string",
              "name": "medicalLicenseNumber",
              "type": "string"
            },
            {
              "internalType": "string",
              "name": "yearsOfExperience",
              "type": "string"
            }
          ],
          "indexed": false,
          "internalType": "struct HealthSystem.Doctor",
          "name": "doctor",
          "type": "tuple"
        }
      ],
      "name": "DoctorExists",
      "type": "event"
    },
    {
      "anonymous": false,
      "inputs": [
        {
          "indexed": true,
          "internalType": "address",
          "name": "metaMaskAccount",
          "type": "address"
        },
        {
          "indexed": false,
          "internalType": "string",
          "name": "email",
          "type": "string"
        }
      ],
      "name": "DoctorRegistered",
      "type": "event"
    },
    {
      "anonymous": false,
      "inputs": [
        {
          "indexed": true,
          "internalType": "address",
          "name": "metaMaskAccount",
          "type": "address"
        },
        {
          "components": [
            {
              "internalType": "string",
              "name": "firstName",
              "type": "string"
            },
            {
              "internalType": "string",
              "name": "lastName",
              "type": "string"
            },
            {
              "internalType": "string",
              "name": "dateOfBirth",
              "type": "string"
            },
            {
              "internalType": "string",
              "name": "email",
              "type": "string"
            },
            {
              "internalType": "string",
              "name": "gender",
              "type": "string"
            },
            {
              "internalType": "string",
              "name": "patientAddress",
              "type": "string"
            },
            {
              "internalType": "string",
              "name": "phoneNumber",
              "type": "string"
            },
            {
              "internalType": "string",
              "name": "bloodgroup",
              "type": "string"
            },
            {
              "internalType": "address",
              "name": "metaMaskAccount",
              "type": "address"
            },
            {
              "internalType": "string",
              "name": "insuranceProvider",
              "type": "string"
            },
            {
              "internalType": "string",
              "name": "policyNumber",
              "type": "string"
            }
          ],
          "indexed": false,
          "internalType": "struct HealthSystem.Patient",
          "name": "patient",
          "type": "tuple"
        }
      ],
      "name": "PatientExists",
      "type": "event"
    },
    {
      "anonymous": false,
      "inputs": [
        {
          "indexed": true,
          "internalType": "address",
          "name": "metaMaskAccount",
          "type": "address"
        },
        {
          "indexed": false,
          "internalType": "string",
          "name": "email",
          "type": "string"
        }
      ],
      "name": "PatientRegistered",
      "type": "event"
    },
    {
      "inputs": [
        {
          "internalType": "address",
          "name": "",
          "type": "address"
        }
      ],
      "name": "accounts",
      "outputs": [
        {
          "internalType": "address",
          "name": "metaMaskAccount",
          "type": "address"
        },
        {
          "internalType": "string",
          "name": "role",
          "type": "string"
        },
        {
          "internalType": "bool",
          "name": "isRegistered",
          "type": "bool"
        }
      ],
      "stateMutability": "view",
      "type": "function",
      "constant": true
    },
    {
      "inputs": [
        {
          "internalType": "address",
          "name": "",
          "type": "address"
        }
      ],
      "name": "doctors",
      "outputs": [
        {
          "internalType": "string",
          "name": "firstName",
          "type": "string"
        },
        {
          "internalType": "string",
          "name": "lastName",
          "type": "string"
        },
        {
          "internalType": "string",
          "name": "dateOfBirth",
          "type": "string"
        },
        {
          "internalType": "string",
          "name": "email",
          "type": "string"
        },
        {
          "internalType": "string",
          "name": "doctorAddress",
          "type": "string"
        },
        {
          "internalType": "string",
          "name": "phoneNumber",
          "type": "string"
        },
        {
          "internalType": "address",
          "name": "metaMaskAccount",
          "type": "address"
        },
        {
          "internalType": "string",
          "name": "specialization",
          "type": "string"
        },
        {
          "internalType": "string",
          "name": "medicalLicenseNumber",
          "type": "string"
        },
        {
          "internalType": "string",
          "name": "yearsOfExperience",
          "type": "string"
        }
      ],
      "stateMutability": "view",
      "type": "function",
      "constant": true
    },
    {
      "inputs": [
        {
          "internalType": "address",
          "name": "",
          "type": "address"
        }
      ],
      "name": "metaMaskToEmail",
      "outputs": [
        {
          "internalType": "string",
          "name": "",
          "type": "string"
        }
      ],
      "stateMutability": "view",
      "type": "function",
      "constant": true
    },
    {
      "inputs": [
        {
          "internalType": "address",
          "name": "",
          "type": "address"
        }
      ],
      "name": "patients",
      "outputs": [
        {
          "internalType": "string",
          "name": "firstName",
          "type": "string"
        },
        {
          "internalType": "string",
          "name": "lastName",
          "type": "string"
        },
        {
          "internalType": "string",
          "name": "dateOfBirth",
          "type": "string"
        },
        {
          "internalType": "string",
          "name": "email",
          "type": "string"
        },
        {
          "internalType": "string",
          "name": "gender",
          "type": "string"
        },
        {
          "internalType": "string",
          "name": "patientAddress",
          "type": "string"
        },
        {
          "internalType": "string",
          "name": "phoneNumber",
          "type": "string"
        },
        {
          "internalType": "string",
          "name": "bloodgroup",
          "type": "string"
        },
        {
          "internalType": "address",
          "name": "metaMaskAccount",
          "type": "address"
        },
        {
          "internalType": "string",
          "name": "insuranceProvider",
          "type": "string"
        },
        {
          "internalType": "string",
          "name": "policyNumber",
          "type": "string"
        }
      ],
      "stateMutability": "view",
      "type": "function",
      "constant": true
    },
    {
      "inputs": [
        {
          "internalType": "string",
          "name": "_firstName",
          "type": "string"
        },
        {
          "internalType": "string",
          "name": "_lastName",
          "type": "string"
        },
        {
          "internalType": "string",
          "name": "_dateOfBirth",
          "type": "string"
        },
        {
          "internalType": "string",
          "name": "_email",
          "type": "string"
        },
        {
          "internalType": "string",
          "name": "_gender",
          "type": "string"
        },
        {
          "internalType": "string",
          "name": "_patientAddress",
          "type": "string"
        },
        {
          "internalType": "string",
          "name": "_phoneNumber",
          "type": "string"
        },
        {
          "internalType": "string",
          "name": "_bloodgroup",
          "type": "string"
        },
        {
          "internalType": "address",
          "name": "_metaMaskAccount",
          "type": "address"
        },
        {
          "internalType": "string",
          "name": "_insuranceProvider",
          "type": "string"
        },
        {
          "internalType": "string",
          "name": "_policyNumber",
          "type": "string"
        }
      ],
      "name": "registerPatient",
      "outputs": [],
      "stateMutability": "nonpayable",
      "type": "function"
    },
    {
      "inputs": [
        {
          "internalType": "string",
          "name": "_firstName",
          "type": "string"
        },
        {
          "internalType": "string",
          "name": "_lastName",
          "type": "string"
        },
        {
          "internalType": "string",
          "name": "_dateOfBirth",
          "type": "string"
        },
        {
          "internalType": "string",
          "name": "_email",
          "type": "string"
        },
        {
          "internalType": "string",
          "name": "_doctorAddress",
          "type": "string"
        },
        {
          "internalType": "string",
          "name": "_phoneNumber",
          "type": "string"
        },
        {
          "internalType": "address",
          "name": "_metaMaskAccount",
          "type": "address"
        },
        {
          "internalType": "string",
          "name": "_specialization",
          "type": "string"
        },
        {
          "internalType": "string",
          "name": "_medicalLicenseNumber",
          "type": "string"
        },
        {
          "internalType": "string",
          "name": "_yearsOfExperience",
          "type": "string"
        }
      ],
      "name": "registerDoctor",
      "outputs": [],
      "stateMutability": "nonpayable",
      "type": "function"
    },
    {
      "inputs": [
        {
          "internalType": "address",
          "name": "_metaMaskAccount",
          "type": "address"
        },
        {
          "internalType": "string",
          "name": "_role",
          "type": "string"
        }
      ],
      "name": "registerAccount",
      "outputs": [],
      "stateMutability": "nonpayable",
      "type": "function"
    },
    {
      "inputs": [
        {
          "internalType": "address",
          "name": "_metaMaskAccount",
          "type": "address"
        }
      ],
      "name": "getPatient",
      "outputs": [
        {
          "components": [
            {
              "internalType": "string",
              "name": "firstName",
              "type": "string"
            },
            {
              "internalType": "string",
              "name": "lastName",
              "type": "string"
            },
            {
              "internalType": "string",
              "name": "dateOfBirth",
              "type": "string"
            },
            {
              "internalType": "string",
              "name": "email",
              "type": "string"
            },
            {
              "internalType": "string",
              "name": "gender",
              "type": "string"
            },
            {
              "internalType": "string",
              "name": "patientAddress",
              "type": "string"
            },
            {
              "internalType": "string",
              "name": "phoneNumber",
              "type": "string"
            },
            {
              "internalType": "string",
              "name": "bloodgroup",
              "type": "string"
            },
            {
              "internalType": "address",
              "name": "metaMaskAccount",
              "type": "address"
            },
            {
              "internalType": "string",
              "name": "insuranceProvider",
              "type": "string"
            },
            {
              "internalType": "string",
              "name": "policyNumber",
              "type": "string"
            }
          ],
          "internalType": "struct HealthSystem.Patient",
          "name": "",
          "type": "tuple"
        }
      ],
      "stateMutability": "view",
      "type": "function",
      "constant": true
    },
    {
      "inputs": [
        {
          "internalType": "address",
          "name": "_metaMaskAccount",
          "type": "address"
        }
      ],
      "name": "getDoctor",
      "outputs": [
        {
          "components": [
            {
              "internalType": "string",
              "name": "firstName",
              "type": "string"
            },
            {
              "internalType": "string",
              "name": "lastName",
              "type": "string"
            },
            {
              "internalType": "string",
              "name": "dateOfBirth",
              "type": "string"
            },
            {
              "internalType": "string",
              "name": "email",
              "type": "string"
            },
            {
              "internalType": "string",
              "name": "doctorAddress",
              "type": "string"
            },
            {
              "internalType": "string",
              "name": "phoneNumber",
              "type": "string"
            },
            {
              "internalType": "address",
              "name": "metaMaskAccount",
              "type": "address"
            },
            {
              "internalType": "string",
              "name": "specialization",
              "type": "string"
            },
            {
              "internalType": "string",
              "name": "medicalLicenseNumber",
              "type": "string"
            },
            {
              "internalType": "string",
              "name": "yearsOfExperience",
              "type": "string"
            }
          ],
          "internalType": "struct HealthSystem.Doctor",
          "name": "",
          "type": "tuple"
        }
      ],
      "stateMutability": "view",
      "type": "function",
      "constant": true
    },
    {
      "inputs": [
        {
          "internalType": "address",
          "name": "_metaMaskAccount",
          "type": "address"
        }
      ],
      "name": "getEmailByMetaMask",
      "outputs": [
        {
          "internalType": "string",
          "name": "",
          "type": "string"
        }
      ],
      "stateMutability": "view",
      "type": "function",
      "constant": true
    },
    {
      "inputs": [
        {
          "internalType": "address",
          "name": "_metaMaskAccount",
          "type": "address"
        }
      ],
      "name": "getAccount",
      "outputs": [
        {
          "components": [
            {
              "internalType": "address",
              "name": "metaMaskAccount",
              "type": "address"
            },
            {
              "internalType": "string",
              "name": "role",
              "type": "string"
            },
            {
              "internalType": "bool",
              "name": "isRegistered",
              "type": "bool"
            }
          ],
          "internalType": "struct HealthSystem.Account",
          "name": "",
          "type": "tuple"
        }
      ],
      "stateMutability": "view",
      "type": "function",
      "constant": true
    },
    {
      "inputs": [
        {
          "internalType": "address",
          "name": "_metaMaskAccount",
          "type": "address"
        }
      ],
      "name": "hasPersonalInfo",
      "outputs": [
        {
          "internalType": "bool",
          "name": "",
          "type": "bool"
        }
      ],
      "stateMutability": "view",
      "type": "function",
      "constant": true
    },
    {
      "inputs": [
        {
          "internalType": "address",
          "name": "_metaMaskAccount",
          "type": "address"
        }
      ],
      "name": "performAction",
      "outputs": [],
      "stateMutability": "view",
      "type": "function",
      "constant": true
    }
  ],
  "bytecode": "0x608060405234801561001057600080fd5b50614865806100206000396000f3fe608060405234801561001057600080fd5b50600436106100cf5760003560e01c80635e5c06e21161008c578063d0bbbf4b11610066578063d0bbbf4b1461025d578063ea3fc82314610279578063f17245f9146102a9578063fbcbc0f1146102d9576100cf565b80635e5c06e2146101c2578063a9583c22146101f4578063b5368e201461022d576100cf565b80630869cfbc146100d457806310ff38821461010e57806324736ccf1461012a57806326159c121461014657806328fce6ca146101625780632f04e06414610192575b600080fd5b6100ee60048036038101906100e99190613620565b610309565b6040516101059b9a999897969594939291906136f5565b60405180910390f35b6101286004803603810190610123919061391b565b6108d3565b005b610144600480360381019061013f9190613620565b610b3b565b005b610160600480360381019061015b9190613977565b610c17565b005b61017c60048036038101906101779190613620565b610f3c565b6040516101899190613b52565b60405180910390f35b6101ac60048036038101906101a79190613620565b61100c565b6040516101b99190613cdf565b60405180910390f35b6101dc60048036038101906101d79190613620565b6115de565b6040516101eb93929190613d1c565b60405180910390f35b61020e60048036038101906102099190613620565b6116bd565b6040516102249a99989796959493929190613d5a565b60405180910390f35b61024760048036038101906102429190613620565b611bf9565b6040516102549190613f63565b60405180910390f35b61027760048036038101906102729190613f85565b61225d565b005b610293600480360381019061028e9190613620565b6125a7565b6040516102a09190613b52565b60405180910390f35b6102c360048036038101906102be9190613620565b612647565b6040516102d09190614191565b60405180910390f35b6102f360048036038101906102ee9190613620565b61329d565b604051610300919061420b565b60405180910390f35b600160205280600052604060002060009150905080600001805461032c9061425c565b80601f01602080910402602001604051908101604052809291908181526020018280546103589061425c565b80156103a55780601f1061037a576101008083540402835291602001916103a5565b820191906000526020600020905b81548152906001019060200180831161038857829003601f168201915b5050505050908060010180546103ba9061425c565b80601f01602080910402602001604051908101604052809291908181526020018280546103e69061425c565b80156104335780601f1061040857610100808354040283529160200191610433565b820191906000526020600020905b81548152906001019060200180831161041657829003601f168201915b5050505050908060020180546104489061425c565b80601f01602080910402602001604051908101604052809291908181526020018280546104749061425c565b80156104c15780601f10610496576101008083540402835291602001916104c1565b820191906000526020600020905b8154815290600101906020018083116104a457829003601f168201915b5050505050908060030180546104d69061425c565b80601f01602080910402602001604051908101604052809291908181526020018280546105029061425c565b801561054f5780601f106105245761010080835404028352916020019161054f565b820191906000526020600020905b81548152906001019060200180831161053257829003601f168201915b5050505050908060040180546105649061425c565b80601f01602080910402602001604051908101604052809291908181526020018280546105909061425c565b80156105dd5780601f106105b2576101008083540402835291602001916105dd565b820191906000526020600020905b8154815290600101906020018083116105c057829003601f168201915b5050505050908060050180546105f29061425c565b80601f016020809104026020016040519081016040528092919081815260200182805461061e9061425c565b801561066b5780601f106106405761010080835404028352916020019161066b565b820191906000526020600020905b81548152906001019060200180831161064e57829003601f168201915b5050505050908060060180546106809061425c565b80601f01602080910402602001604051908101604052809291908181526020018280546106ac9061425c565b80156106f95780601f106106ce576101008083540402835291602001916106f9565b820191906000526020600020905b8154815290600101906020018083116106dc57829003601f168201915b50505050509080600701805461070e9061425c565b80601f016020809104026020016040519081016040528092919081815260200182805461073a9061425c565b80156107875780601f1061075c57610100808354040283529160200191610787565b820191906000526020600020905b81548152906001019060200180831161076a57829003601f168201915b5050505050908060080160009054906101000a900473ffffffffffffffffffffffffffffffffffffffff16908060090180546107c29061425c565b80601f01602080910402602001604051908101604052809291908181526020018280546107ee9061425c565b801561083b5780601f106108105761010080835404028352916020019161083b565b820191906000526020600020905b81548152906001019060200180831161081e57829003601f168201915b50505050509080600a0180546108509061425c565b80601f016020809104026020016040519081016040528092919081815260200182805461087c9061425c565b80156108c95780601f1061089e576101008083540402835291602001916108c9565b820191906000526020600020905b8154815290600101906020018083116108ac57829003601f168201915b505050505090508b565b600360008373ffffffffffffffffffffffffffffffffffffffff1673ffffffffffffffffffffffffffffffffffffffff16815260200190815260200160002060020160009054906101000a900460ff1615610963576040517f08c379a000000000000000000000000000000000000000000000000000000000815260040161095a906142ff565b60405180910390fd5b60405180606001604052808373ffffffffffffffffffffffffffffffffffffffff16815260200182815260200160011515815250600360008473ffffffffffffffffffffffffffffffffffffffff1673ffffffffffffffffffffffffffffffffffffffff16815260200190815260200160002060008201518160000160006101000a81548173ffffffffffffffffffffffffffffffffffffffff021916908373ffffffffffffffffffffffffffffffffffffffff1602179055506020820151816001019080519060200190610a399291906133f9565b5060408201518160020160006101000a81548160ff0219169083151502179055509050508173ffffffffffffffffffffffffffffffffffffffff167f64f73046f77686e7ba3aebcaac09e4568d436c6968f446459528ce3ac8ccb60f82604051610aa39190613b52565b60405180910390a28173ffffffffffffffffffffffffffffffffffffffff167ffa083db9409b5197355745f366350bf24b6135c7ef2ff570f179861fd107b185600360008573ffffffffffffffffffffffffffffffffffffffff1673ffffffffffffffffffffffffffffffffffffffff168152602001908152602001600020604051610b2f9190614489565b60405180910390a25050565b80600360008273ffffffffffffffffffffffffffffffffffffffff1673ffffffffffffffffffffffffffffffffffffffff16815260200190815260200160002060020160009054906101000a900460ff16610bcb576040517f08c379a0000000000000000000000000000000000000000000000000000000008152600401610bc2906144f7565b60405180910390fd5b610bd482612647565b610c13576040517f08c379a0000000000000000000000000000000000000000000000000000000008152600401610c0a90614589565b60405180910390fd5b5050565b6040518061014001604052808b81526020018a81526020018981526020018881526020018781526020018681526020018573ffffffffffffffffffffffffffffffffffffffff16815260200184815260200183815260200182815250600260008673ffffffffffffffffffffffffffffffffffffffff1673ffffffffffffffffffffffffffffffffffffffff1681526020019081526020016000206000820151816000019080519060200190610cce9291906133f9565b506020820151816001019080519060200190610ceb9291906133f9565b506040820151816002019080519060200190610d089291906133f9565b506060820151816003019080519060200190610d259291906133f9565b506080820151816004019080519060200190610d429291906133f9565b5060a0820151816005019080519060200190610d5f9291906133f9565b5060c08201518160060160006101000a81548173ffffffffffffffffffffffffffffffffffffffff021916908373ffffffffffffffffffffffffffffffffffffffff16021790555060e0820151816007019080519060200190610dc39291906133f9565b50610100820151816008019080519060200190610de19291906133f9565b50610120820151816009019080519060200190610dff9291906133f9565b50905050866000808673ffffffffffffffffffffffffffffffffffffffff1673ffffffffffffffffffffffffffffffffffffffff1681526020019081526020016000209080519060200190610e559291906133f9565b508373ffffffffffffffffffffffffffffffffffffffff167f20481b8112b5bf4734f45a473c373db9df6a79ce946cdc0e7dbc22b4f7d7f98688604051610e9c9190613b52565b60405180910390a28373ffffffffffffffffffffffffffffffffffffffff167f10c28cae0b1f35902e277fe1301d6797e5f9ba724013e7bf14101dff2d4175ef600260008773ffffffffffffffffffffffffffffffffffffffff1673ffffffffffffffffffffffffffffffffffffffff168152602001908152602001600020604051610f2891906146bd565b60405180910390a250505050505050505050565b60606000808373ffffffffffffffffffffffffffffffffffffffff1673ffffffffffffffffffffffffffffffffffffffff1681526020019081526020016000208054610f879061425c565b80601f0160208091040260200160405190810160405280929190818152602001828054610fb39061425c565b80156110005780601f10610fd557610100808354040283529160200191611000565b820191906000526020600020905b815481529060010190602001808311610fe357829003601f168201915b50505050509050919050565b61101461347f565b600260008373ffffffffffffffffffffffffffffffffffffffff1673ffffffffffffffffffffffffffffffffffffffff1681526020019081526020016000206040518061014001604052908160008201805461106f9061425c565b80601f016020809104026020016040519081016040528092919081815260200182805461109b9061425c565b80156110e85780601f106110bd576101008083540402835291602001916110e8565b820191906000526020600020905b8154815290600101906020018083116110cb57829003601f168201915b505050505081526020016001820180546111019061425c565b80601f016020809104026020016040519081016040528092919081815260200182805461112d9061425c565b801561117a5780601f1061114f5761010080835404028352916020019161117a565b820191906000526020600020905b81548152906001019060200180831161115d57829003601f168201915b505050505081526020016002820180546111939061425c565b80601f01602080910402602001604051908101604052809291908181526020018280546111bf9061425c565b801561120c5780601f106111e15761010080835404028352916020019161120c565b820191906000526020600020905b8154815290600101906020018083116111ef57829003601f168201915b505050505081526020016003820180546112259061425c565b80601f01602080910402602001604051908101604052809291908181526020018280546112519061425c565b801561129e5780601f106112735761010080835404028352916020019161129e565b820191906000526020600020905b81548152906001019060200180831161128157829003601f168201915b505050505081526020016004820180546112b79061425c565b80601f01602080910402602001604051908101604052809291908181526020018280546112e39061425c565b80156113305780601f1061130557610100808354040283529160200191611330565b820191906000526020600020905b81548152906001019060200180831161131357829003601f168201915b505050505081526020016005820180546113499061425c565b80601f01602080910402602001604051908101604052809291908181526020018280546113759061425c565b80156113c25780601f10611397576101008083540402835291602001916113c2565b820191906000526020600020905b8154815290600101906020018083116113a557829003601f168201915b505050505081526020016006820160009054906101000a900473ffffffffffffffffffffffffffffffffffffffff1673ffffffffffffffffffffffffffffffffffffffff1673ffffffffffffffffffffffffffffffffffffffff1681526020016007820180546114319061425c565b80601f016020809104026020016040519081016040528092919081815260200182805461145d9061425c565b80156114aa5780601f1061147f576101008083540402835291602001916114aa565b820191906000526020600020905b81548152906001019060200180831161148d57829003601f168201915b505050505081526020016008820180546114c39061425c565b80601f01602080910402602001604051908101604052809291908181526020018280546114ef9061425c565b801561153c5780601f106115115761010080835404028352916020019161153c565b820191906000526020600020905b81548152906001019060200180831161151f57829003601f168201915b505050505081526020016009820180546115559061425c565b80601f01602080910402602001604051908101604052809291908181526020018280546115819061425c565b80156115ce5780601f106115a3576101008083540402835291602001916115ce565b820191906000526020600020905b8154815290600101906020018083116115b157829003601f168201915b5050505050815250509050919050565b60036020528060005260406000206000915090508060000160009054906101000a900473ffffffffffffffffffffffffffffffffffffffff16908060010180546116279061425c565b80601f01602080910402602001604051908101604052809291908181526020018280546116539061425c565b80156116a05780601f10611675576101008083540402835291602001916116a0565b820191906000526020600020905b81548152906001019060200180831161168357829003601f168201915b5050505050908060020160009054906101000a900460ff16905083565b60026020528060005260406000206000915090508060000180546116e09061425c565b80601f016020809104026020016040519081016040528092919081815260200182805461170c9061425c565b80156117595780601f1061172e57610100808354040283529160200191611759565b820191906000526020600020905b81548152906001019060200180831161173c57829003601f168201915b50505050509080600101805461176e9061425c565b80601f016020809104026020016040519081016040528092919081815260200182805461179a9061425c565b80156117e75780601f106117bc576101008083540402835291602001916117e7565b820191906000526020600020905b8154815290600101906020018083116117ca57829003601f168201915b5050505050908060020180546117fc9061425c565b80601f01602080910402602001604051908101604052809291908181526020018280546118289061425c565b80156118755780601f1061184a57610100808354040283529160200191611875565b820191906000526020600020905b81548152906001019060200180831161185857829003601f168201915b50505050509080600301805461188a9061425c565b80601f01602080910402602001604051908101604052809291908181526020018280546118b69061425c565b80156119035780601f106118d857610100808354040283529160200191611903565b820191906000526020600020905b8154815290600101906020018083116118e657829003601f168201915b5050505050908060040180546119189061425c565b80601f01602080910402602001604051908101604052809291908181526020018280546119449061425c565b80156119915780601f1061196657610100808354040283529160200191611991565b820191906000526020600020905b81548152906001019060200180831161197457829003601f168201915b5050505050908060050180546119a69061425c565b80601f01602080910402602001604051908101604052809291908181526020018280546119d29061425c565b8015611a1f5780601f106119f457610100808354040283529160200191611a1f565b820191906000526020600020905b815481529060010190602001808311611a0257829003601f168201915b5050505050908060060160009054906101000a900473ffffffffffffffffffffffffffffffffffffffff1690806007018054611a5a9061425c565b80601f0160208091040260200160405190810160405280929190818152602001828054611a869061425c565b8015611ad35780601f10611aa857610100808354040283529160200191611ad3565b820191906000526020600020905b815481529060010190602001808311611ab657829003601f168201915b505050505090806008018054611ae89061425c565b80601f0160208091040260200160405190810160405280929190818152602001828054611b149061425c565b8015611b615780601f10611b3657610100808354040283529160200191611b61565b820191906000526020600020905b815481529060010190602001808311611b4457829003601f168201915b505050505090806009018054611b769061425c565b80601f0160208091040260200160405190810160405280929190818152602001828054611ba29061425c565b8015611bef5780601f10611bc457610100808354040283529160200191611bef565b820191906000526020600020905b815481529060010190602001808311611bd257829003601f168201915b505050505090508a565b611c016134e8565b600160008373ffffffffffffffffffffffffffffffffffffffff1673ffffffffffffffffffffffffffffffffffffffff16815260200190815260200160002060405180610160016040529081600082018054611c5c9061425c565b80601f0160208091040260200160405190810160405280929190818152602001828054611c889061425c565b8015611cd55780601f10611caa57610100808354040283529160200191611cd5565b820191906000526020600020905b815481529060010190602001808311611cb857829003601f168201915b50505050508152602001600182018054611cee9061425c565b80601f0160208091040260200160405190810160405280929190818152602001828054611d1a9061425c565b8015611d675780601f10611d3c57610100808354040283529160200191611d67565b820191906000526020600020905b815481529060010190602001808311611d4a57829003601f168201915b50505050508152602001600282018054611d809061425c565b80601f0160208091040260200160405190810160405280929190818152602001828054611dac9061425c565b8015611df95780601f10611dce57610100808354040283529160200191611df9565b820191906000526020600020905b815481529060010190602001808311611ddc57829003601f168201915b50505050508152602001600382018054611e129061425c565b80601f0160208091040260200160405190810160405280929190818152602001828054611e3e9061425c565b8015611e8b5780601f10611e6057610100808354040283529160200191611e8b565b820191906000526020600020905b815481529060010190602001808311611e6e57829003601f168201915b50505050508152602001600482018054611ea49061425c565b80601f0160208091040260200160405190810160405280929190818152602001828054611ed09061425c565b8015611f1d5780601f10611ef257610100808354040283529160200191611f1d565b820191906000526020600020905b815481529060010190602001808311611f0057829003601f168201915b50505050508152602001600582018054611f369061425c565b80601f0160208091040260200160405190810160405280929190818152602001828054611f629061425c565b8015611faf5780601f10611f8457610100808354040283529160200191611faf565b820191906000526020600020905b815481529060010190602001808311611f9257829003601f168201915b50505050508152602001600682018054611fc89061425c565b80601f0160208091040260200160405190810160405280929190818152602001828054611ff49061425c565b80156120415780601f1061201657610100808354040283529160200191612041565b820191906000526020600020905b81548152906001019060200180831161202457829003601f168201915b5050505050815260200160078201805461205a9061425c565b80601f01602080910402602001604051908101604052809291908181526020018280546120869061425c565b80156120d35780601f106120a8576101008083540402835291602001916120d3565b820191906000526020600020905b8154815290600101906020018083116120b657829003601f168201915b505050505081526020016008820160009054906101000a900473ffffffffffffffffffffffffffffffffffffffff1673ffffffffffffffffffffffffffffffffffffffff1673ffffffffffffffffffffffffffffffffffffffff1681526020016009820180546121429061425c565b80601f016020809104026020016040519081016040528092919081815260200182805461216e9061425c565b80156121bb5780601f10612190576101008083540402835291602001916121bb565b820191906000526020600020905b81548152906001019060200180831161219e57829003601f168201915b50505050508152602001600a820180546121d49061425c565b80601f01602080910402602001604051908101604052809291908181526020018280546122009061425c565b801561224d5780601f106122225761010080835404028352916020019161224d565b820191906000526020600020905b81548152906001019060200180831161223057829003601f168201915b5050505050815250509050919050565b6040518061016001604052808c81526020018b81526020018a81526020018981526020018881526020018781526020018681526020018581526020018473ffffffffffffffffffffffffffffffffffffffff16815260200183815260200182815250600160008573ffffffffffffffffffffffffffffffffffffffff1673ffffffffffffffffffffffffffffffffffffffff168152602001908152602001600020600082015181600001908051906020019061231a9291906133f9565b5060208201518160010190805190602001906123379291906133f9565b5060408201518160020190805190602001906123549291906133f9565b5060608201518160030190805190602001906123719291906133f9565b50608082015181600401908051906020019061238e9291906133f9565b5060a08201518160050190805190602001906123ab9291906133f9565b5060c08201518160060190805190602001906123c89291906133f9565b5060e08201518160070190805190602001906123e59291906133f9565b506101008201518160080160006101000a81548173ffffffffffffffffffffffffffffffffffffffff021916908373ffffffffffffffffffffffffffffffffffffffff16021790555061012082015181600901908051906020019061244b9291906133f9565b5061014082015181600a0190805190602001906124699291906133f9565b50905050876000808573ffffffffffffffffffffffffffffffffffffffff1673ffffffffffffffffffffffffffffffffffffffff16815260200190815260200160002090805190602001906124bf9291906133f9565b508273ffffffffffffffffffffffffffffffffffffffff167fc85b128388b9c331a2a5485dce4cd0f3db9f7c279d327ce95d6d39d6c94644c7896040516125069190613b52565b60405180910390a28273ffffffffffffffffffffffffffffffffffffffff167f0cdc4407c9dcc11c0d05b4ee0ec812e97f49258c780bee88b720bb3191c870bb600160008673ffffffffffffffffffffffffffffffffffffffff1673ffffffffffffffffffffffffffffffffffffffff168152602001908152602001600020604051612592919061480d565b60405180910390a25050505050505050505050565b600060205280600052604060002060009150905080546125c69061425c565b80601f01602080910402602001604051908101604052809291908181526020018280546125f29061425c565b801561263f5780601f106126145761010080835404028352916020019161263f565b820191906000526020600020905b81548152906001019060200180831161262257829003601f168201915b505050505081565b600080600160008473ffffffffffffffffffffffffffffffffffffffff1673ffffffffffffffffffffffffffffffffffffffff168152602001908152602001600020604051806101600160405290816000820180546126a59061425c565b80601f01602080910402602001604051908101604052809291908181526020018280546126d19061425c565b801561271e5780601f106126f35761010080835404028352916020019161271e565b820191906000526020600020905b81548152906001019060200180831161270157829003601f168201915b505050505081526020016001820180546127379061425c565b80601f01602080910402602001604051908101604052809291908181526020018280546127639061425c565b80156127b05780601f10612785576101008083540402835291602001916127b0565b820191906000526020600020905b81548152906001019060200180831161279357829003601f168201915b505050505081526020016002820180546127c99061425c565b80601f01602080910402602001604051908101604052809291908181526020018280546127f59061425c565b80156128425780601f1061281757610100808354040283529160200191612842565b820191906000526020600020905b81548152906001019060200180831161282557829003601f168201915b5050505050815260200160038201805461285b9061425c565b80601f01602080910402602001604051908101604052809291908181526020018280546128879061425c565b80156128d45780601f106128a9576101008083540402835291602001916128d4565b820191906000526020600020905b8154815290600101906020018083116128b757829003601f168201915b505050505081526020016004820180546128ed9061425c565b80601f01602080910402602001604051908101604052809291908181526020018280546129199061425c565b80156129665780601f1061293b57610100808354040283529160200191612966565b820191906000526020600020905b81548152906001019060200180831161294957829003601f168201915b5050505050815260200160058201805461297f9061425c565b80601f01602080910402602001604051908101604052809291908181526020018280546129ab9061425c565b80156129f85780601f106129cd576101008083540402835291602001916129f8565b820191906000526020600020905b8154815290600101906020018083116129db57829003601f168201915b50505050508152602001600682018054612a119061425c565b80601f0160208091040260200160405190810160405280929190818152602001828054612a3d9061425c565b8015612a8a5780601f10612a5f57610100808354040283529160200191612a8a565b820191906000526020600020905b815481529060010190602001808311612a6d57829003601f168201915b50505050508152602001600782018054612aa39061425c565b80601f0160208091040260200160405190810160405280929190818152602001828054612acf9061425c565b8015612b1c5780601f10612af157610100808354040283529160200191612b1c565b820191906000526020600020905b815481529060010190602001808311612aff57829003601f168201915b505050505081526020016008820160009054906101000a900473ffffffffffffffffffffffffffffffffffffffff1673ffffffffffffffffffffffffffffffffffffffff1673ffffffffffffffffffffffffffffffffffffffff168152602001600982018054612b8b9061425c565b80601f0160208091040260200160405190810160405280929190818152602001828054612bb79061425c565b8015612c045780601f10612bd957610100808354040283529160200191612c04565b820191906000526020600020905b815481529060010190602001808311612be757829003601f168201915b50505050508152602001600a82018054612c1d9061425c565b80601f0160208091040260200160405190810160405280929190818152602001828054612c499061425c565b8015612c965780601f10612c6b57610100808354040283529160200191612c96565b820191906000526020600020905b815481529060010190602001808311612c7957829003601f168201915b50505050508152505090506000600260008573ffffffffffffffffffffffffffffffffffffffff1673ffffffffffffffffffffffffffffffffffffffff16815260200190815260200160002060405180610140016040529081600082018054612cfe9061425c565b80601f0160208091040260200160405190810160405280929190818152602001828054612d2a9061425c565b8015612d775780601f10612d4c57610100808354040283529160200191612d77565b820191906000526020600020905b815481529060010190602001808311612d5a57829003601f168201915b50505050508152602001600182018054612d909061425c565b80601f0160208091040260200160405190810160405280929190818152602001828054612dbc9061425c565b8015612e095780601f10612dde57610100808354040283529160200191612e09565b820191906000526020600020905b815481529060010190602001808311612dec57829003601f168201915b50505050508152602001600282018054612e229061425c565b80601f0160208091040260200160405190810160405280929190818152602001828054612e4e9061425c565b8015612e9b5780601f10612e7057610100808354040283529160200191612e9b565b820191906000526020600020905b815481529060010190602001808311612e7e57829003601f168201915b50505050508152602001600382018054612eb49061425c565b80601f0160208091040260200160405190810160405280929190818152602001828054612ee09061425c565b8015612f2d5780601f10612f0257610100808354040283529160200191612f2d565b820191906000526020600020905b815481529060010190602001808311612f1057829003601f168201915b50505050508152602001600482018054612f469061425c565b80601f0160208091040260200160405190810160405280929190818152602001828054612f729061425c565b8015612fbf5780601f10612f9457610100808354040283529160200191612fbf565b820191906000526020600020905b815481529060010190602001808311612fa257829003601f168201915b50505050508152602001600582018054612fd89061425c565b80601f01602080910402602001604051908101604052809291908181526020018280546130049061425c565b80156130515780601f1061302657610100808354040283529160200191613051565b820191906000526020600020905b81548152906001019060200180831161303457829003601f168201915b505050505081526020016006820160009054906101000a900473ffffffffffffffffffffffffffffffffffffffff1673ffffffffffffffffffffffffffffffffffffffff1673ffffffffffffffffffffffffffffffffffffffff1681526020016007820180546130c09061425c565b80601f01602080910402602001604051908101604052809291908181526020018280546130ec9061425c565b80156131395780601f1061310e57610100808354040283529160200191613139565b820191906000526020600020905b81548152906001019060200180831161311c57829003601f168201915b505050505081526020016008820180546131529061425c565b80601f016020809104026020016040519081016040528092919081815260200182805461317e9061425c565b80156131cb5780601f106131a0576101008083540402835291602001916131cb565b820191906000526020600020905b8154815290600101906020018083116131ae57829003601f168201915b505050505081526020016009820180546131e49061425c565b80601f01602080910402602001604051908101604052809291908181526020018280546132109061425c565b801561325d5780601f106132325761010080835404028352916020019161325d565b820191906000526020600020905b81548152906001019060200180831161324057829003601f168201915b50505050508152505090506000826000015151118061328157506000816000015151115b1561329157600192505050613298565b6000925050505b919050565b6132a5613558565b600360008373ffffffffffffffffffffffffffffffffffffffff1673ffffffffffffffffffffffffffffffffffffffff1681526020019081526020016000206040518060600160405290816000820160009054906101000a900473ffffffffffffffffffffffffffffffffffffffff1673ffffffffffffffffffffffffffffffffffffffff1673ffffffffffffffffffffffffffffffffffffffff1681526020016001820180546133559061425c565b80601f01602080910402602001604051908101604052809291908181526020018280546133819061425c565b80156133ce5780601f106133a3576101008083540402835291602001916133ce565b820191906000526020600020905b8154815290600101906020018083116133b157829003601f168201915b505050505081526020016002820160009054906101000a900460ff1615151515815250509050919050565b8280546134059061425c565b90600052602060002090601f016020900481019282613427576000855561346e565b82601f1061344057805160ff191683800117855561346e565b8280016001018555821561346e579182015b8281111561346d578251825591602001919060010190613452565b5b50905061347b9190613591565b5090565b604051806101400160405280606081526020016060815260200160608152602001606081526020016060815260200160608152602001600073ffffffffffffffffffffffffffffffffffffffff1681526020016060815260200160608152602001606081525090565b6040518061016001604052806060815260200160608152602001606081526020016060815260200160608152602001606081526020016060815260200160608152602001600073ffffffffffffffffffffffffffffffffffffffff16815260200160608152602001606081525090565b6040518060600160405280600073ffffffffffffffffffffffffffffffffffffffff168152602001606081526020016000151581525090565b5b808211156135aa576000816000905550600101613592565b5090565b6000604051905090565b600080fd5b600080fd5b600073ffffffffffffffffffffffffffffffffffffffff82169050919050565b60006135ed826135c2565b9050919050565b6135fd816135e2565b811461360857600080fd5b50565b60008135905061361a816135f4565b92915050565b600060208284031215613636576136356135b8565b5b60006136448482850161360b565b91505092915050565b600081519050919050565b600082825260208201905092915050565b60005b8381101561368757808201518184015260208101905061366c565b83811115613696576000848401525b50505050565b6000601f19601f8301169050919050565b60006136b88261364d565b6136c28185613658565b93506136d2818560208601613669565b6136db8161369c565b840191505092915050565b6136ef816135e2565b82525050565b6000610160820190508181036000830152613710818e6136ad565b90508181036020830152613724818d6136ad565b90508181036040830152613738818c6136ad565b9050818103606083015261374c818b6136ad565b90508181036080830152613760818a6136ad565b905081810360a083015261377481896136ad565b905081810360c083015261378881886136ad565b905081810360e083015261379c81876136ad565b90506137ac6101008301866136e6565b8181036101208301526137bf81856136ad565b90508181036101408301526137d481846136ad565b90509c9b505050505050505050505050565b600080fd5b600080fd5b7f4e487b7100000000000000000000000000000000000000000000000000000000600052604160045260246000fd5b6138288261369c565b810181811067ffffffffffffffff82111715613847576138466137f0565b5b80604052505050565b600061385a6135ae565b9050613866828261381f565b919050565b600067ffffffffffffffff821115613886576138856137f0565b5b61388f8261369c565b9050602081019050919050565b82818337600083830152505050565b60006138be6138b98461386b565b613850565b9050828152602081018484840111156138da576138d96137eb565b5b6138e584828561389c565b509392505050565b600082601f830112613902576139016137e6565b5b81356139128482602086016138ab565b91505092915050565b60008060408385031215613932576139316135b8565b5b60006139408582860161360b565b925050602083013567ffffffffffffffff811115613961576139606135bd565b5b61396d858286016138ed565b9150509250929050565b6000806000806000806000806000806101408b8d03121561399b5761399a6135b8565b5b60008b013567ffffffffffffffff8111156139b9576139b86135bd565b5b6139c58d828e016138ed565b9a505060208b013567ffffffffffffffff8111156139e6576139e56135bd565b5b6139f28d828e016138ed565b99505060408b013567ffffffffffffffff811115613a1357613a126135bd565b5b613a1f8d828e016138ed565b98505060608b013567ffffffffffffffff811115613a4057613a3f6135bd565b5b613a4c8d828e016138ed565b97505060808b013567ffffffffffffffff811115613a6d57613a6c6135bd565b5b613a798d828e016138ed565b96505060a08b013567ffffffffffffffff811115613a9a57613a996135bd565b5b613aa68d828e016138ed565b95505060c0613ab78d828e0161360b565b94505060e08b013567ffffffffffffffff811115613ad857613ad76135bd565b5b613ae48d828e016138ed565b9350506101008b013567ffffffffffffffff811115613b0657613b056135bd565b5b613b128d828e016138ed565b9250506101208b013567ffffffffffffffff811115613b3457613b336135bd565b5b613b408d828e016138ed565b9150509295989b9194979a5092959850565b60006020820190508181036000830152613b6c81846136ad565b905092915050565b600082825260208201905092915050565b6000613b908261364d565b613b9a8185613b74565b9350613baa818560208601613669565b613bb38161369c565b840191505092915050565b613bc7816135e2565b82525050565b6000610140830160008301518482036000860152613beb8282613b85565b91505060208301518482036020860152613c058282613b85565b91505060408301518482036040860152613c1f8282613b85565b91505060608301518482036060860152613c398282613b85565b91505060808301518482036080860152613c538282613b85565b91505060a083015184820360a0860152613c6d8282613b85565b91505060c0830151613c8260c0860182613bbe565b5060e083015184820360e0860152613c9a8282613b85565b915050610100830151848203610100860152613cb68282613b85565b915050610120830151848203610120860152613cd28282613b85565b9150508091505092915050565b60006020820190508181036000830152613cf98184613bcd565b905092915050565b60008115159050919050565b613d1681613d01565b82525050565b6000606082019050613d3160008301866136e6565b8181036020830152613d4381856136ad565b9050613d526040830184613d0d565b949350505050565b6000610140820190508181036000830152613d75818d6136ad565b90508181036020830152613d89818c6136ad565b90508181036040830152613d9d818b6136ad565b90508181036060830152613db1818a6136ad565b90508181036080830152613dc581896136ad565b905081810360a0830152613dd981886136ad565b9050613de860c08301876136e6565b81810360e0830152613dfa81866136ad565b9050818103610100830152613e0f81856136ad565b9050818103610120830152613e2481846136ad565b90509b9a5050505050505050505050565b6000610160830160008301518482036000860152613e538282613b85565b91505060208301518482036020860152613e6d8282613b85565b91505060408301518482036040860152613e878282613b85565b91505060608301518482036060860152613ea18282613b85565b91505060808301518482036080860152613ebb8282613b85565b91505060a083015184820360a0860152613ed58282613b85565b91505060c083015184820360c0860152613eef8282613b85565b91505060e083015184820360e0860152613f098282613b85565b915050610100830151613f20610100860182613bbe565b50610120830151848203610120860152613f3a8282613b85565b915050610140830151848203610140860152613f568282613b85565b9150508091505092915050565b60006020820190508181036000830152613f7d8184613e35565b905092915050565b60008060008060008060008060008060006101608c8e031215613fab57613faa6135b8565b5b60008c013567ffffffffffffffff811115613fc957613fc86135bd565b5b613fd58e828f016138ed565b9b505060208c013567ffffffffffffffff811115613ff657613ff56135bd565b5b6140028e828f016138ed565b9a505060408c013567ffffffffffffffff811115614023576140226135bd565b5b61402f8e828f016138ed565b99505060608c013567ffffffffffffffff8111156140505761404f6135bd565b5b61405c8e828f016138ed565b98505060808c013567ffffffffffffffff81111561407d5761407c6135bd565b5b6140898e828f016138ed565b97505060a08c013567ffffffffffffffff8111156140aa576140a96135bd565b5b6140b68e828f016138ed565b96505060c08c013567ffffffffffffffff8111156140d7576140d66135bd565b5b6140e38e828f016138ed565b95505060e08c013567ffffffffffffffff811115614104576141036135bd565b5b6141108e828f016138ed565b9450506101006141228e828f0161360b565b9350506101208c013567ffffffffffffffff811115614144576141436135bd565b5b6141508e828f016138ed565b9250506101408c013567ffffffffffffffff811115614172576141716135bd565b5b61417e8e828f016138ed565b9150509295989b509295989b9093969950565b60006020820190506141a66000830184613d0d565b92915050565b6141b581613d01565b82525050565b60006060830160008301516141d36000860182613bbe565b50602083015184820360208601526141eb8282613b85565b915050604083015161420060408601826141ac565b508091505092915050565b6000602082019050818103600083015261422581846141bb565b905092915050565b7f4e487b7100000000000000000000000000000000000000000000000000000000600052602260045260246000fd5b6000600282049050600182168061427457607f821691505b6020821081036142875761428661422d565b5b50919050565b7f4163636f756e7420616c726561647920686173206120726f6c6520726567697360008201527f7465726564000000000000000000000000000000000000000000000000000000602082015250565b60006142e9602583613658565b91506142f48261428d565b604082019050919050565b60006020820190508181036000830152614318816142dc565b9050919050565b60008160001c9050919050565b600073ffffffffffffffffffffffffffffffffffffffff82169050919050565b600061435f61435a8361431f565b61432c565b9050919050565b60008190508160005260206000209050919050565b600081546143888161425c565b6143928186613b74565b945060018216600081146143ad57600181146143bf576143f2565b60ff19831686526020860193506143f2565b6143c885614366565b60005b838110156143ea578154818901526001820191506020810190506143cb565b808801955050505b50505092915050565b600060ff82169050919050565b600061441b6144168361431f565b6143fb565b9050919050565b60006060830160008084015490506144398161434c565b6144466000870182613bbe565b5060018401858303602087015261445d838261437b565b9250506002840154905061447081614408565b61447d60408701826141ac565b50819250505092915050565b600060208201905081810360008301526144a38184614422565b905092915050565b7f4163636f756e74206973206e6f74207265676973746572656400000000000000600082015250565b60006144e1601983613658565b91506144ec826144ab565b602082019050919050565b60006020820190508181036000830152614510816144d4565b9050919050565b7f4163636f756e7420646f6573206e6f74206861766520706572736f6e616c206960008201527f6e666f2073746f72656400000000000000000000000000000000000000000000602082015250565b6000614573602a83613658565b915061457e82614517565b604082019050919050565b600060208201905081810360008301526145a281614566565b9050919050565b60006101408301600080840185830360008701526145c7838261437b565b9250506001840185830360208701526145e0838261437b565b9250506002840185830360408701526145f9838261437b565b925050600384018583036060870152614612838261437b565b92505060048401858303608087015261462b838261437b565b9250506005840185830360a0870152614644838261437b565b925050600684015490506146578161434c565b61466460c0870182613bbe565b506007840185830360e087015261467b838261437b565b92505060088401858303610100870152614695838261437b565b925050600984018583036101208701526146af838261437b565b925050819250505092915050565b600060208201905081810360008301526146d781846145a9565b905092915050565b60006101608301600080840185830360008701526146fd838261437b565b925050600184018583036020870152614716838261437b565b92505060028401858303604087015261472f838261437b565b925050600384018583036060870152614748838261437b565b925050600484018583036080870152614761838261437b565b9250506005840185830360a087015261477a838261437b565b9250506006840185830360c0870152614793838261437b565b9250506007840185830360e08701526147ac838261437b565b925050600884015490506147bf8161434c565b6147cd610100870182613bbe565b50600984018583036101208701526147e5838261437b565b925050600a84018583036101408701526147ff838261437b565b925050819250505092915050565b6000602082019050818103600083015261482781846146df565b90509291505056fea2646970667358221220a7d8ba4b9421b511f1b0e47280b84916704bfeaead5c8a4b85c9ceda6182e85a64736f6c634300080d0033",
  "immutableReferences": {},
  "source": "// SPDX-License-Identifier: MIT\r\npragma solidity ^0.8.13;\r\n\r\ncontract HealthSystem {\r\n    struct Patient {\r\n        string firstName;\r\n        string lastName;\r\n        string dateOfBirth;\r\n        string email;\r\n        string gender;\r\n        string patientAddress;\r\n        string phoneNumber;\r\n        string bloodgroup;\r\n        address metaMaskAccount;\r\n        string insuranceProvider;\r\n        string policyNumber;\r\n    }\r\n\r\n    struct Doctor {\r\n        string firstName;\r\n        string lastName;\r\n        string dateOfBirth;\r\n        string email;\r\n        string doctorAddress;\r\n        string phoneNumber;\r\n        address metaMaskAccount;\r\n        string specialization;\r\n        string medicalLicenseNumber;\r\n        string yearsOfExperience;\r\n    }\r\n\r\n    struct Account {\r\n        address metaMaskAccount;\r\n        string role;\r\n        bool isRegistered;\r\n    }\r\n\r\n    mapping(address => string) public metaMaskToEmail;\r\n    mapping(address => Patient) public patients;\r\n    mapping(address => Doctor) public doctors;\r\n    mapping(address => Account) public accounts;\r\n\r\n    event PatientExists(address indexed metaMaskAccount, Patient patient);\r\n    event PatientRegistered(address indexed metaMaskAccount, string email);\r\n    event DoctorExists(address indexed metaMaskAccount, Doctor doctor);\r\n    event DoctorRegistered(address indexed metaMaskAccount, string email);\r\n    event AccountRegistered(address indexed metaMaskAccount, string role);\r\n    event AccountExists(address indexed metaMaskAccount, Account account);\r\n\r\n    modifier onlyRegisteredAccount(address _metaMaskAccount) {\r\n        require(accounts[_metaMaskAccount].isRegistered, \"Account is not registered\");\r\n        _;\r\n    }\r\n\r\n    function registerPatient(\r\n        string memory _firstName,\r\n        string memory _lastName,\r\n        string memory _dateOfBirth,\r\n        string memory _email,\r\n        string memory _gender,\r\n        string memory _patientAddress,\r\n        string memory _phoneNumber,\r\n        string memory _bloodgroup,\r\n        address _metaMaskAccount,\r\n        string memory _insuranceProvider,\r\n        string memory _policyNumber\r\n    ) public {\r\n        // Store the patient details in the mapping\r\n        patients[_metaMaskAccount] = Patient(\r\n            _firstName,\r\n            _lastName,\r\n            _dateOfBirth,\r\n            _email,\r\n            _gender,\r\n            _patientAddress,\r\n            _phoneNumber,\r\n            _bloodgroup,\r\n            _metaMaskAccount,\r\n            _insuranceProvider,\r\n            _policyNumber\r\n        );\r\n\r\n        // Map the MetaMask address to the email\r\n        metaMaskToEmail[_metaMaskAccount] = _email;\r\n\r\n        // Emit events for patient registration and existence\r\n        emit PatientRegistered(_metaMaskAccount, _email);\r\n        emit PatientExists(_metaMaskAccount, patients[_metaMaskAccount]);\r\n    }\r\n\r\n    function registerDoctor(\r\n        string memory _firstName,\r\n        string memory _lastName,\r\n        string memory _dateOfBirth,\r\n        string memory _email,\r\n        string memory _doctorAddress,\r\n        string memory _phoneNumber,\r\n        address _metaMaskAccount,\r\n        string memory _specialization,\r\n        string memory _medicalLicenseNumber,\r\n        string memory _yearsOfExperience\r\n    ) public {\r\n        // Store the doctor details in the mapping\r\n        doctors[_metaMaskAccount] = Doctor(\r\n            _firstName,\r\n            _lastName,\r\n            _dateOfBirth,\r\n            _email,\r\n            _doctorAddress,\r\n            _phoneNumber,\r\n            _metaMaskAccount,\r\n            _specialization,\r\n            _medicalLicenseNumber,\r\n            _yearsOfExperience\r\n        );\r\n\r\n        // Map the MetaMask address to the email\r\n        metaMaskToEmail[_metaMaskAccount] = _email;\r\n\r\n        // Emit events for doctor registration and existence\r\n        emit DoctorRegistered(_metaMaskAccount, _email);\r\n        emit DoctorExists(_metaMaskAccount, doctors[_metaMaskAccount]);\r\n    }\r\n\r\n    function registerAccount(address _metaMaskAccount, string memory _role) public {\r\n        // Check if the account already has a role registered\r\n        if (accounts[_metaMaskAccount].isRegistered) {\r\n            revert(\"Account already has a role registered\");\r\n        }\r\n\r\n        // Store the account details with role in the mapping\r\n        accounts[_metaMaskAccount] = Account({\r\n            metaMaskAccount: _metaMaskAccount,\r\n            role: _role,\r\n            isRegistered: true\r\n        });\r\n\r\n        // Emit event for account registration\r\n        emit AccountRegistered(_metaMaskAccount, _role);\r\n        emit AccountExists(_metaMaskAccount, accounts[_metaMaskAccount]);\r\n    }\r\n\r\n    function getPatient(address _metaMaskAccount) public view returns (Patient memory) {\r\n        return patients[_metaMaskAccount];\r\n    }\r\n\r\n    function getDoctor(address _metaMaskAccount) public view returns (Doctor memory) {\r\n        return doctors[_metaMaskAccount];\r\n    }\r\n\r\n    function getEmailByMetaMask(address _metaMaskAccount) public view returns (string memory) {\r\n        return metaMaskToEmail[_metaMaskAccount];\r\n    }\r\n\r\n    function getAccount(address _metaMaskAccount) public view returns (Account memory) {\r\n        return accounts[_metaMaskAccount];\r\n    }\r\n\r\n    function hasPersonalInfo(address _metaMaskAccount) public view returns (bool) {\r\n        Patient memory patient = patients[_metaMaskAccount];\r\n        Doctor memory doctor = doctors[_metaMaskAccount];\r\n        if (bytes(patient.firstName).length > 0 || bytes(doctor.firstName).length > 0) {\r\n            return true;\r\n        }\r\n        return false;\r\n    }\r\n\r\n    function performAction(address _metaMaskAccount) public view onlyRegisteredAccount(_metaMaskAccount) {\r\n        require(hasPersonalInfo(_metaMaskAccount), \"Account does not have personal info stored\");\r\n    }\r\n}\r\n",
  "sourcePath": "C:\\Users\\sanju\\OneDrive\\Desktop\\Electronic_Health_records\\Truffle\\contracts\\HealthSystem.sol",
  "compiler": {
    "name": "solc",
    "version": "0.8.13+commit.abaa5c0e.Emscripten.clang"
  },
  "schemaVersion": "3.4.16",
  "updatedAt": "2024-07-05T12:17:13.961Z",
  "networkType": "ethereum",
  "devdoc": {
    "kind": "dev",
    "methods": {},
    "version": 1
  },
  "userdoc": {
    "kind": "user",
    "methods": {},
    "version": 1
  }
}