{
  "contractName": "HealthSystem",
  "abi": [
    {
      "anonymous": false,
      "inputs": [
        {
          "indexed": true,
          "internalType": "address",
          "name": "metaMaskAccount",
          "type": "address"
        },
        {
          "components": [
            {
              "internalType": "address",
              "name": "metaMaskAccount",
              "type": "address"
            },
            {
              "internalType": "string",
              "name": "role",
              "type": "string"
            },
            {
              "internalType": "bool",
              "name": "isRegistered",
              "type": "bool"
            }
          ],
          "indexed": false,
          "internalType": "struct HealthSystem.Account",
          "name": "account",
          "type": "tuple"
        }
      ],
      "name": "AccountExists",
      "type": "event"
    },
    {
      "anonymous": false,
      "inputs": [
        {
          "indexed": true,
          "internalType": "address",
          "name": "metaMaskAccount",
          "type": "address"
        },
        {
          "indexed": false,
          "internalType": "string",
          "name": "role",
          "type": "string"
        }
      ],
      "name": "AccountRegistered",
      "type": "event"
    },
    {
      "anonymous": false,
      "inputs": [
        {
          "indexed": true,
          "internalType": "address",
          "name": "metaMaskAccount",
          "type": "address"
        },
        {
          "components": [
            {
              "internalType": "string",
              "name": "firstName",
              "type": "string"
            },
            {
              "internalType": "string",
              "name": "lastName",
              "type": "string"
            },
            {
              "internalType": "string",
              "name": "dateOfBirth",
              "type": "string"
            },
            {
              "internalType": "string",
              "name": "email",
              "type": "string"
            },
            {
              "internalType": "string",
              "name": "doctorAddress",
              "type": "string"
            },
            {
              "internalType": "string",
              "name": "phoneNumber",
              "type": "string"
            },
            {
              "internalType": "address",
              "name": "metaMaskAccount",
              "type": "address"
            },
            {
              "internalType": "string",
              "name": "specialization",
              "type": "string"
            },
            {
              "internalType": "string",
              "name": "medicalLicenseNumber",
              "type": "string"
            },
            {
              "internalType": "string",
              "name": "yearsOfExperience",
              "type": "string"
            }
          ],
          "indexed": false,
          "internalType": "struct HealthSystem.Doctor",
          "name": "doctor",
          "type": "tuple"
        }
      ],
      "name": "DoctorExists",
      "type": "event"
    },
    {
      "anonymous": false,
      "inputs": [
        {
          "indexed": true,
          "internalType": "address",
          "name": "metaMaskAccount",
          "type": "address"
        },
        {
          "indexed": false,
          "internalType": "string",
          "name": "email",
          "type": "string"
        }
      ],
      "name": "DoctorRegistered",
      "type": "event"
    },
    {
      "anonymous": false,
      "inputs": [
        {
          "indexed": true,
          "internalType": "address",
          "name": "metaMaskAccount",
          "type": "address"
        },
        {
          "components": [
            {
              "internalType": "string",
              "name": "firstName",
              "type": "string"
            },
            {
              "internalType": "string",
              "name": "lastName",
              "type": "string"
            },
            {
              "internalType": "string",
              "name": "dateOfBirth",
              "type": "string"
            },
            {
              "internalType": "string",
              "name": "email",
              "type": "string"
            },
            {
              "internalType": "string",
              "name": "gender",
              "type": "string"
            },
            {
              "internalType": "string",
              "name": "patientAddress",
              "type": "string"
            },
            {
              "internalType": "string",
              "name": "phoneNumber",
              "type": "string"
            },
            {
              "internalType": "string",
              "name": "bloodgroup",
              "type": "string"
            },
            {
              "internalType": "address",
              "name": "metaMaskAccount",
              "type": "address"
            },
            {
              "internalType": "string",
              "name": "insuranceProvider",
              "type": "string"
            },
            {
              "internalType": "string",
              "name": "policyNumber",
              "type": "string"
            }
          ],
          "indexed": false,
          "internalType": "struct HealthSystem.Patient",
          "name": "patient",
          "type": "tuple"
        }
      ],
      "name": "PatientExists",
      "type": "event"
    },
    {
      "anonymous": false,
      "inputs": [
        {
          "indexed": true,
          "internalType": "address",
          "name": "metaMaskAccount",
          "type": "address"
        },
        {
          "indexed": false,
          "internalType": "string",
          "name": "email",
          "type": "string"
        }
      ],
      "name": "PatientRegistered",
      "type": "event"
    },
    {
      "inputs": [
        {
          "internalType": "address",
          "name": "",
          "type": "address"
        }
      ],
      "name": "accounts",
      "outputs": [
        {
          "internalType": "address",
          "name": "metaMaskAccount",
          "type": "address"
        },
        {
          "internalType": "string",
          "name": "role",
          "type": "string"
        },
        {
          "internalType": "bool",
          "name": "isRegistered",
          "type": "bool"
        }
      ],
      "stateMutability": "view",
      "type": "function",
      "constant": true
    },
    {
      "inputs": [
        {
          "internalType": "address",
          "name": "",
          "type": "address"
        }
      ],
      "name": "doctors",
      "outputs": [
        {
          "internalType": "string",
          "name": "firstName",
          "type": "string"
        },
        {
          "internalType": "string",
          "name": "lastName",
          "type": "string"
        },
        {
          "internalType": "string",
          "name": "dateOfBirth",
          "type": "string"
        },
        {
          "internalType": "string",
          "name": "email",
          "type": "string"
        },
        {
          "internalType": "string",
          "name": "doctorAddress",
          "type": "string"
        },
        {
          "internalType": "string",
          "name": "phoneNumber",
          "type": "string"
        },
        {
          "internalType": "address",
          "name": "metaMaskAccount",
          "type": "address"
        },
        {
          "internalType": "string",
          "name": "specialization",
          "type": "string"
        },
        {
          "internalType": "string",
          "name": "medicalLicenseNumber",
          "type": "string"
        },
        {
          "internalType": "string",
          "name": "yearsOfExperience",
          "type": "string"
        }
      ],
      "stateMutability": "view",
      "type": "function",
      "constant": true
    },
    {
      "inputs": [
        {
          "internalType": "uint256",
          "name": "",
          "type": "uint256"
        }
      ],
      "name": "meetings",
      "outputs": [
        {
          "internalType": "address",
          "name": "patientAddress",
          "type": "address"
        },
        {
          "internalType": "address",
          "name": "doctorAddress",
          "type": "address"
        },
        {
          "internalType": "uint256",
          "name": "meetingTime",
          "type": "uint256"
        },
        {
          "internalType": "string",
          "name": "meetingDescription",
          "type": "string"
        }
      ],
      "stateMutability": "view",
      "type": "function",
      "constant": true
    },
    {
      "inputs": [
        {
          "internalType": "address",
          "name": "",
          "type": "address"
        }
      ],
      "name": "metaMaskToEmail",
      "outputs": [
        {
          "internalType": "string",
          "name": "",
          "type": "string"
        }
      ],
      "stateMutability": "view",
      "type": "function",
      "constant": true
    },
    {
      "inputs": [
        {
          "internalType": "address",
          "name": "",
          "type": "address"
        }
      ],
      "name": "patients",
      "outputs": [
        {
          "internalType": "string",
          "name": "firstName",
          "type": "string"
        },
        {
          "internalType": "string",
          "name": "lastName",
          "type": "string"
        },
        {
          "internalType": "string",
          "name": "dateOfBirth",
          "type": "string"
        },
        {
          "internalType": "string",
          "name": "email",
          "type": "string"
        },
        {
          "internalType": "string",
          "name": "gender",
          "type": "string"
        },
        {
          "internalType": "string",
          "name": "patientAddress",
          "type": "string"
        },
        {
          "internalType": "string",
          "name": "phoneNumber",
          "type": "string"
        },
        {
          "internalType": "string",
          "name": "bloodgroup",
          "type": "string"
        },
        {
          "internalType": "address",
          "name": "metaMaskAccount",
          "type": "address"
        },
        {
          "internalType": "string",
          "name": "insuranceProvider",
          "type": "string"
        },
        {
          "internalType": "string",
          "name": "policyNumber",
          "type": "string"
        }
      ],
      "stateMutability": "view",
      "type": "function",
      "constant": true
    },
    {
      "inputs": [
        {
          "internalType": "address",
          "name": "_patientAddress",
          "type": "address"
        },
        {
          "internalType": "address",
          "name": "_doctorAddress",
          "type": "address"
        },
        {
          "internalType": "string",
          "name": "_meetingDescription",
          "type": "string"
        },
        {
          "internalType": "uint256",
          "name": "_meetingTime",
          "type": "uint256"
        }
      ],
      "name": "createMeeting",
      "outputs": [],
      "stateMutability": "nonpayable",
      "type": "function"
    },
    {
      "inputs": [
        {
          "internalType": "address",
          "name": "_patientAddress",
          "type": "address"
        }
      ],
      "name": "getPatientMeetings",
      "outputs": [
        {
          "components": [
            {
              "internalType": "address",
              "name": "patientAddress",
              "type": "address"
            },
            {
              "internalType": "address",
              "name": "doctorAddress",
              "type": "address"
            },
            {
              "internalType": "uint256",
              "name": "meetingTime",
              "type": "uint256"
            },
            {
              "internalType": "string",
              "name": "meetingDescription",
              "type": "string"
            }
          ],
          "internalType": "struct HealthSystem.Meeting[]",
          "name": "",
          "type": "tuple[]"
        }
      ],
      "stateMutability": "view",
      "type": "function",
      "constant": true
    },
    {
      "inputs": [
        {
          "internalType": "address",
          "name": "_doctorAddress",
          "type": "address"
        }
      ],
      "name": "getDoctorMeetings",
      "outputs": [
        {
          "components": [
            {
              "internalType": "address",
              "name": "patientAddress",
              "type": "address"
            },
            {
              "internalType": "address",
              "name": "doctorAddress",
              "type": "address"
            },
            {
              "internalType": "uint256",
              "name": "meetingTime",
              "type": "uint256"
            },
            {
              "internalType": "string",
              "name": "meetingDescription",
              "type": "string"
            }
          ],
          "internalType": "struct HealthSystem.Meeting[]",
          "name": "",
          "type": "tuple[]"
        }
      ],
      "stateMutability": "view",
      "type": "function",
      "constant": true
    },
    {
      "inputs": [
        {
          "internalType": "string",
          "name": "_firstName",
          "type": "string"
        },
        {
          "internalType": "string",
          "name": "_lastName",
          "type": "string"
        },
        {
          "internalType": "string",
          "name": "_dateOfBirth",
          "type": "string"
        },
        {
          "internalType": "string",
          "name": "_email",
          "type": "string"
        },
        {
          "internalType": "string",
          "name": "_gender",
          "type": "string"
        },
        {
          "internalType": "string",
          "name": "_patientAddress",
          "type": "string"
        },
        {
          "internalType": "string",
          "name": "_phoneNumber",
          "type": "string"
        },
        {
          "internalType": "string",
          "name": "_bloodgroup",
          "type": "string"
        },
        {
          "internalType": "address",
          "name": "_metaMaskAccount",
          "type": "address"
        },
        {
          "internalType": "string",
          "name": "_insuranceProvider",
          "type": "string"
        },
        {
          "internalType": "string",
          "name": "_policyNumber",
          "type": "string"
        }
      ],
      "name": "registerPatient",
      "outputs": [],
      "stateMutability": "nonpayable",
      "type": "function"
    },
    {
      "inputs": [
        {
          "internalType": "string",
          "name": "_firstName",
          "type": "string"
        },
        {
          "internalType": "string",
          "name": "_lastName",
          "type": "string"
        },
        {
          "internalType": "string",
          "name": "_dateOfBirth",
          "type": "string"
        },
        {
          "internalType": "string",
          "name": "_email",
          "type": "string"
        },
        {
          "internalType": "string",
          "name": "_doctorAddress",
          "type": "string"
        },
        {
          "internalType": "string",
          "name": "_phoneNumber",
          "type": "string"
        },
        {
          "internalType": "address",
          "name": "_metaMaskAccount",
          "type": "address"
        },
        {
          "internalType": "string",
          "name": "_specialization",
          "type": "string"
        },
        {
          "internalType": "string",
          "name": "_medicalLicenseNumber",
          "type": "string"
        },
        {
          "internalType": "string",
          "name": "_yearsOfExperience",
          "type": "string"
        }
      ],
      "name": "registerDoctor",
      "outputs": [],
      "stateMutability": "nonpayable",
      "type": "function"
    },
    {
      "inputs": [
        {
          "internalType": "address",
          "name": "_metaMaskAccount",
          "type": "address"
        },
        {
          "internalType": "string",
          "name": "_role",
          "type": "string"
        }
      ],
      "name": "registerAccount",
      "outputs": [],
      "stateMutability": "nonpayable",
      "type": "function"
    },
    {
      "inputs": [
        {
          "internalType": "address",
          "name": "_metaMaskAccount",
          "type": "address"
        }
      ],
      "name": "getPatient",
      "outputs": [
        {
          "components": [
            {
              "internalType": "string",
              "name": "firstName",
              "type": "string"
            },
            {
              "internalType": "string",
              "name": "lastName",
              "type": "string"
            },
            {
              "internalType": "string",
              "name": "dateOfBirth",
              "type": "string"
            },
            {
              "internalType": "string",
              "name": "email",
              "type": "string"
            },
            {
              "internalType": "string",
              "name": "gender",
              "type": "string"
            },
            {
              "internalType": "string",
              "name": "patientAddress",
              "type": "string"
            },
            {
              "internalType": "string",
              "name": "phoneNumber",
              "type": "string"
            },
            {
              "internalType": "string",
              "name": "bloodgroup",
              "type": "string"
            },
            {
              "internalType": "address",
              "name": "metaMaskAccount",
              "type": "address"
            },
            {
              "internalType": "string",
              "name": "insuranceProvider",
              "type": "string"
            },
            {
              "internalType": "string",
              "name": "policyNumber",
              "type": "string"
            }
          ],
          "internalType": "struct HealthSystem.Patient",
          "name": "",
          "type": "tuple"
        }
      ],
      "stateMutability": "view",
      "type": "function",
      "constant": true
    },
    {
      "inputs": [
        {
          "internalType": "address",
          "name": "_metaMaskAccount",
          "type": "address"
        }
      ],
      "name": "getDoctor",
      "outputs": [
        {
          "components": [
            {
              "internalType": "string",
              "name": "firstName",
              "type": "string"
            },
            {
              "internalType": "string",
              "name": "lastName",
              "type": "string"
            },
            {
              "internalType": "string",
              "name": "dateOfBirth",
              "type": "string"
            },
            {
              "internalType": "string",
              "name": "email",
              "type": "string"
            },
            {
              "internalType": "string",
              "name": "doctorAddress",
              "type": "string"
            },
            {
              "internalType": "string",
              "name": "phoneNumber",
              "type": "string"
            },
            {
              "internalType": "address",
              "name": "metaMaskAccount",
              "type": "address"
            },
            {
              "internalType": "string",
              "name": "specialization",
              "type": "string"
            },
            {
              "internalType": "string",
              "name": "medicalLicenseNumber",
              "type": "string"
            },
            {
              "internalType": "string",
              "name": "yearsOfExperience",
              "type": "string"
            }
          ],
          "internalType": "struct HealthSystem.Doctor",
          "name": "",
          "type": "tuple"
        }
      ],
      "stateMutability": "view",
      "type": "function",
      "constant": true
    },
    {
      "inputs": [
        {
          "internalType": "address",
          "name": "_metaMaskAccount",
          "type": "address"
        }
      ],
      "name": "getEmailByMetaMask",
      "outputs": [
        {
          "internalType": "string",
          "name": "",
          "type": "string"
        }
      ],
      "stateMutability": "view",
      "type": "function",
      "constant": true
    },
    {
      "inputs": [
        {
          "internalType": "address",
          "name": "_metaMaskAccount",
          "type": "address"
        }
      ],
      "name": "getAccount",
      "outputs": [
        {
          "components": [
            {
              "internalType": "address",
              "name": "metaMaskAccount",
              "type": "address"
            },
            {
              "internalType": "string",
              "name": "role",
              "type": "string"
            },
            {
              "internalType": "bool",
              "name": "isRegistered",
              "type": "bool"
            }
          ],
          "internalType": "struct HealthSystem.Account",
          "name": "",
          "type": "tuple"
        }
      ],
      "stateMutability": "view",
      "type": "function",
      "constant": true
    },
    {
      "inputs": [
        {
          "internalType": "address",
          "name": "_metaMaskAccount",
          "type": "address"
        }
      ],
      "name": "hasPersonalInfo",
      "outputs": [
        {
          "internalType": "bool",
          "name": "",
          "type": "bool"
        }
      ],
      "stateMutability": "view",
      "type": "function",
      "constant": true
    },
    {
      "inputs": [
        {
          "internalType": "address",
          "name": "_metaMaskAccount",
          "type": "address"
        }
      ],
      "name": "performAction",
      "outputs": [],
      "stateMutability": "view",
      "type": "function",
      "constant": true
    }
  ],
  "bytecode": "0x608060405234801561001057600080fd5b50615475806100206000396000f3fe608060405234801561001057600080fd5b506004361061010b5760003560e01c80638460168a116100a2578063d0bbbf4b11610071578063d0bbbf4b14610318578063da2a67ff14610334578063ea3fc82314610364578063f17245f914610394578063fbcbc0f1146103c45761010b565b80638460168a146102605780638dfa315814610293578063a9583c22146102af578063b5368e20146102e85761010b565b806327f69d66116100de57806327f69d661461019e57806328fce6ca146101ce5780632f04e064146101fe5780635e5c06e21461022e5761010b565b80630869cfbc1461011057806310ff38821461014a57806324736ccf1461016657806326159c1214610182575b600080fd5b61012a60048036038101906101259190613ef3565b6103f4565b6040516101419b9a99989796959493929190613fc8565b60405180910390f35b610164600480360381019061015f91906141ee565b6109be565b005b610180600480360381019061017b9190613ef3565b610c26565b005b61019c6004803603810190610197919061424a565b610d02565b005b6101b860048036038101906101b39190613ef3565b611028565b6040516101c591906145bc565b60405180910390f35b6101e860048036038101906101e39190613ef3565b6112d2565b6040516101f591906145de565b60405180910390f35b61021860048036038101906102139190613ef3565b6113a3565b6040516102259190614712565b60405180910390f35b61024860048036038101906102439190613ef3565b611975565b6040516102579392919061474f565b60405180910390f35b61027a600480360381019061027591906147b9565b611a54565b60405161028a94939291906147f5565b60405180910390f35b6102ad60048036038101906102a89190614841565b611b5c565b005b6102c960048036038101906102c49190613ef3565b611c91565b6040516102df9a999897969594939291906148c4565b60405180910390f35b61030260048036038101906102fd9190613ef3565b6121cd565b60405161030f9190614acd565b60405180910390f35b610332600480360381019061032d9190614aef565b612831565b005b61034e60048036038101906103499190613ef3565b612b7c565b60405161035b91906145bc565b60405180910390f35b61037e60048036038101906103799190613ef3565b612e26565b60405161038b91906145de565b60405180910390f35b6103ae60048036038101906103a99190613ef3565b612ec6565b6040516103bb9190614cfb565b60405180910390f35b6103de60048036038101906103d99190613ef3565b613b1c565b6040516103eb9190614d75565b60405180910390f35b600260205280600052604060002060009150905080600001805461041790614dc6565b80601f016020809104026020016040519081016040528092919081815260200182805461044390614dc6565b80156104905780601f1061046557610100808354040283529160200191610490565b820191906000526020600020905b81548152906001019060200180831161047357829003601f168201915b5050505050908060010180546104a590614dc6565b80601f01602080910402602001604051908101604052809291908181526020018280546104d190614dc6565b801561051e5780601f106104f35761010080835404028352916020019161051e565b820191906000526020600020905b81548152906001019060200180831161050157829003601f168201915b50505050509080600201805461053390614dc6565b80601f016020809104026020016040519081016040528092919081815260200182805461055f90614dc6565b80156105ac5780601f10610581576101008083540402835291602001916105ac565b820191906000526020600020905b81548152906001019060200180831161058f57829003601f168201915b5050505050908060030180546105c190614dc6565b80601f01602080910402602001604051908101604052809291908181526020018280546105ed90614dc6565b801561063a5780601f1061060f5761010080835404028352916020019161063a565b820191906000526020600020905b81548152906001019060200180831161061d57829003601f168201915b50505050509080600401805461064f90614dc6565b80601f016020809104026020016040519081016040528092919081815260200182805461067b90614dc6565b80156106c85780601f1061069d576101008083540402835291602001916106c8565b820191906000526020600020905b8154815290600101906020018083116106ab57829003601f168201915b5050505050908060050180546106dd90614dc6565b80601f016020809104026020016040519081016040528092919081815260200182805461070990614dc6565b80156107565780601f1061072b57610100808354040283529160200191610756565b820191906000526020600020905b81548152906001019060200180831161073957829003601f168201915b50505050509080600601805461076b90614dc6565b80601f016020809104026020016040519081016040528092919081815260200182805461079790614dc6565b80156107e45780601f106107b9576101008083540402835291602001916107e4565b820191906000526020600020905b8154815290600101906020018083116107c757829003601f168201915b5050505050908060070180546107f990614dc6565b80601f016020809104026020016040519081016040528092919081815260200182805461082590614dc6565b80156108725780601f1061084757610100808354040283529160200191610872565b820191906000526020600020905b81548152906001019060200180831161085557829003601f168201915b5050505050908060080160009054906101000a900473ffffffffffffffffffffffffffffffffffffffff16908060090180546108ad90614dc6565b80601f01602080910402602001604051908101604052809291908181526020018280546108d990614dc6565b80156109265780601f106108fb57610100808354040283529160200191610926565b820191906000526020600020905b81548152906001019060200180831161090957829003601f168201915b50505050509080600a01805461093b90614dc6565b80601f016020809104026020016040519081016040528092919081815260200182805461096790614dc6565b80156109b45780601f10610989576101008083540402835291602001916109b4565b820191906000526020600020905b81548152906001019060200180831161099757829003601f168201915b505050505090508b565b600460008373ffffffffffffffffffffffffffffffffffffffff1673ffffffffffffffffffffffffffffffffffffffff16815260200190815260200160002060020160009054906101000a900460ff1615610a4e576040517f08c379a0000000000000000000000000000000000000000000000000000000008152600401610a4590614e69565b60405180910390fd5b60405180606001604052808373ffffffffffffffffffffffffffffffffffffffff16815260200182815260200160011515815250600460008473ffffffffffffffffffffffffffffffffffffffff1673ffffffffffffffffffffffffffffffffffffffff16815260200190815260200160002060008201518160000160006101000a81548173ffffffffffffffffffffffffffffffffffffffff021916908373ffffffffffffffffffffffffffffffffffffffff1602179055506020820151816001019080519060200190610b24929190613c78565b5060408201518160020160006101000a81548160ff0219169083151502179055509050508173ffffffffffffffffffffffffffffffffffffffff167f64f73046f77686e7ba3aebcaac09e4568d436c6968f446459528ce3ac8ccb60f82604051610b8e91906145de565b60405180910390a28173ffffffffffffffffffffffffffffffffffffffff167ffa083db9409b5197355745f366350bf24b6135c7ef2ff570f179861fd107b185600460008573ffffffffffffffffffffffffffffffffffffffff1673ffffffffffffffffffffffffffffffffffffffff168152602001908152602001600020604051610c1a9190614ff3565b60405180910390a25050565b80600460008273ffffffffffffffffffffffffffffffffffffffff1673ffffffffffffffffffffffffffffffffffffffff16815260200190815260200160002060020160009054906101000a900460ff16610cb6576040517f08c379a0000000000000000000000000000000000000000000000000000000008152600401610cad90615061565b60405180910390fd5b610cbf82612ec6565b610cfe576040517f08c379a0000000000000000000000000000000000000000000000000000000008152600401610cf5906150f3565b60405180910390fd5b5050565b6040518061014001604052808b81526020018a81526020018981526020018881526020018781526020018681526020018573ffffffffffffffffffffffffffffffffffffffff16815260200184815260200183815260200182815250600360008673ffffffffffffffffffffffffffffffffffffffff1673ffffffffffffffffffffffffffffffffffffffff1681526020019081526020016000206000820151816000019080519060200190610db9929190613c78565b506020820151816001019080519060200190610dd6929190613c78565b506040820151816002019080519060200190610df3929190613c78565b506060820151816003019080519060200190610e10929190613c78565b506080820151816004019080519060200190610e2d929190613c78565b5060a0820151816005019080519060200190610e4a929190613c78565b5060c08201518160060160006101000a81548173ffffffffffffffffffffffffffffffffffffffff021916908373ffffffffffffffffffffffffffffffffffffffff16021790555060e0820151816007019080519060200190610eae929190613c78565b50610100820151816008019080519060200190610ecc929190613c78565b50610120820151816009019080519060200190610eea929190613c78565b5090505086600160008673ffffffffffffffffffffffffffffffffffffffff1673ffffffffffffffffffffffffffffffffffffffff1681526020019081526020016000209080519060200190610f41929190613c78565b508373ffffffffffffffffffffffffffffffffffffffff167f20481b8112b5bf4734f45a473c373db9df6a79ce946cdc0e7dbc22b4f7d7f98688604051610f8891906145de565b60405180910390a28373ffffffffffffffffffffffffffffffffffffffff167f10c28cae0b1f35902e277fe1301d6797e5f9ba724013e7bf14101dff2d4175ef600360008773ffffffffffffffffffffffffffffffffffffffff1673ffffffffffffffffffffffffffffffffffffffff1681526020019081526020016000206040516110149190615227565b60405180910390a250505050505050505050565b60606000808054905067ffffffffffffffff81111561104a576110496140c3565b5b60405190808252806020026020018201604052801561108357816020015b611070613cfe565b8152602001906001900390816110685790505b5090506000805b6000805490508110156112c4578473ffffffffffffffffffffffffffffffffffffffff16600082815481106110c2576110c1615249565b5b906000526020600020906004020160010160009054906101000a900473ffffffffffffffffffffffffffffffffffffffff1673ffffffffffffffffffffffffffffffffffffffff16036112b1576000818154811061112357611122615249565b5b90600052602060002090600402016040518060800160405290816000820160009054906101000a900473ffffffffffffffffffffffffffffffffffffffff1673ffffffffffffffffffffffffffffffffffffffff1673ffffffffffffffffffffffffffffffffffffffff1681526020016001820160009054906101000a900473ffffffffffffffffffffffffffffffffffffffff1673ffffffffffffffffffffffffffffffffffffffff1673ffffffffffffffffffffffffffffffffffffffff1681526020016002820154815260200160038201805461120290614dc6565b80601f016020809104026020016040519081016040528092919081815260200182805461122e90614dc6565b801561127b5780601f106112505761010080835404028352916020019161127b565b820191906000526020600020905b81548152906001019060200180831161125e57829003601f168201915b50505050508152505083838151811061129757611296615249565b5b602002602001018190525081806112ad906152a7565b9250505b80806112bc906152a7565b91505061108a565b508082528192505050919050565b6060600160008373ffffffffffffffffffffffffffffffffffffffff1673ffffffffffffffffffffffffffffffffffffffff168152602001908152602001600020805461131e90614dc6565b80601f016020809104026020016040519081016040528092919081815260200182805461134a90614dc6565b80156113975780601f1061136c57610100808354040283529160200191611397565b820191906000526020600020905b81548152906001019060200180831161137a57829003601f168201915b50505050509050919050565b6113ab613d52565b600360008373ffffffffffffffffffffffffffffffffffffffff1673ffffffffffffffffffffffffffffffffffffffff1681526020019081526020016000206040518061014001604052908160008201805461140690614dc6565b80601f016020809104026020016040519081016040528092919081815260200182805461143290614dc6565b801561147f5780601f106114545761010080835404028352916020019161147f565b820191906000526020600020905b81548152906001019060200180831161146257829003601f168201915b5050505050815260200160018201805461149890614dc6565b80601f01602080910402602001604051908101604052809291908181526020018280546114c490614dc6565b80156115115780601f106114e657610100808354040283529160200191611511565b820191906000526020600020905b8154815290600101906020018083116114f457829003601f168201915b5050505050815260200160028201805461152a90614dc6565b80601f016020809104026020016040519081016040528092919081815260200182805461155690614dc6565b80156115a35780601f10611578576101008083540402835291602001916115a3565b820191906000526020600020905b81548152906001019060200180831161158657829003601f168201915b505050505081526020016003820180546115bc90614dc6565b80601f01602080910402602001604051908101604052809291908181526020018280546115e890614dc6565b80156116355780601f1061160a57610100808354040283529160200191611635565b820191906000526020600020905b81548152906001019060200180831161161857829003601f168201915b5050505050815260200160048201805461164e90614dc6565b80601f016020809104026020016040519081016040528092919081815260200182805461167a90614dc6565b80156116c75780601f1061169c576101008083540402835291602001916116c7565b820191906000526020600020905b8154815290600101906020018083116116aa57829003601f168201915b505050505081526020016005820180546116e090614dc6565b80601f016020809104026020016040519081016040528092919081815260200182805461170c90614dc6565b80156117595780601f1061172e57610100808354040283529160200191611759565b820191906000526020600020905b81548152906001019060200180831161173c57829003601f168201915b505050505081526020016006820160009054906101000a900473ffffffffffffffffffffffffffffffffffffffff1673ffffffffffffffffffffffffffffffffffffffff1673ffffffffffffffffffffffffffffffffffffffff1681526020016007820180546117c890614dc6565b80601f01602080910402602001604051908101604052809291908181526020018280546117f490614dc6565b80156118415780601f1061181657610100808354040283529160200191611841565b820191906000526020600020905b81548152906001019060200180831161182457829003601f168201915b5050505050815260200160088201805461185a90614dc6565b80601f016020809104026020016040519081016040528092919081815260200182805461188690614dc6565b80156118d35780601f106118a8576101008083540402835291602001916118d3565b820191906000526020600020905b8154815290600101906020018083116118b657829003601f168201915b505050505081526020016009820180546118ec90614dc6565b80601f016020809104026020016040519081016040528092919081815260200182805461191890614dc6565b80156119655780601f1061193a57610100808354040283529160200191611965565b820191906000526020600020905b81548152906001019060200180831161194857829003601f168201915b5050505050815250509050919050565b60046020528060005260406000206000915090508060000160009054906101000a900473ffffffffffffffffffffffffffffffffffffffff16908060010180546119be90614dc6565b80601f01602080910402602001604051908101604052809291908181526020018280546119ea90614dc6565b8015611a375780601f10611a0c57610100808354040283529160200191611a37565b820191906000526020600020905b815481529060010190602001808311611a1a57829003601f168201915b5050505050908060020160009054906101000a900460ff16905083565b60008181548110611a6457600080fd5b90600052602060002090600402016000915090508060000160009054906101000a900473ffffffffffffffffffffffffffffffffffffffff16908060010160009054906101000a900473ffffffffffffffffffffffffffffffffffffffff1690806002015490806003018054611ad990614dc6565b80601f0160208091040260200160405190810160405280929190818152602001828054611b0590614dc6565b8015611b525780601f10611b2757610100808354040283529160200191611b52565b820191906000526020600020905b815481529060010190602001808311611b3557829003601f168201915b5050505050905084565b600060405180608001604052808673ffffffffffffffffffffffffffffffffffffffff1681526020018573ffffffffffffffffffffffffffffffffffffffff16815260200183815260200184815250908060018154018082558091505060019003906000526020600020906004020160009091909190915060008201518160000160006101000a81548173ffffffffffffffffffffffffffffffffffffffff021916908373ffffffffffffffffffffffffffffffffffffffff16021790555060208201518160010160006101000a81548173ffffffffffffffffffffffffffffffffffffffff021916908373ffffffffffffffffffffffffffffffffffffffff160217905550604082015181600201556060820151816003019080519060200190611c88929190613c78565b50505050505050565b6003602052806000526040600020600091509050806000018054611cb490614dc6565b80601f0160208091040260200160405190810160405280929190818152602001828054611ce090614dc6565b8015611d2d5780601f10611d0257610100808354040283529160200191611d2d565b820191906000526020600020905b815481529060010190602001808311611d1057829003601f168201915b505050505090806001018054611d4290614dc6565b80601f0160208091040260200160405190810160405280929190818152602001828054611d6e90614dc6565b8015611dbb5780601f10611d9057610100808354040283529160200191611dbb565b820191906000526020600020905b815481529060010190602001808311611d9e57829003601f168201915b505050505090806002018054611dd090614dc6565b80601f0160208091040260200160405190810160405280929190818152602001828054611dfc90614dc6565b8015611e495780601f10611e1e57610100808354040283529160200191611e49565b820191906000526020600020905b815481529060010190602001808311611e2c57829003601f168201915b505050505090806003018054611e5e90614dc6565b80601f0160208091040260200160405190810160405280929190818152602001828054611e8a90614dc6565b8015611ed75780601f10611eac57610100808354040283529160200191611ed7565b820191906000526020600020905b815481529060010190602001808311611eba57829003601f168201915b505050505090806004018054611eec90614dc6565b80601f0160208091040260200160405190810160405280929190818152602001828054611f1890614dc6565b8015611f655780601f10611f3a57610100808354040283529160200191611f65565b820191906000526020600020905b815481529060010190602001808311611f4857829003601f168201915b505050505090806005018054611f7a90614dc6565b80601f0160208091040260200160405190810160405280929190818152602001828054611fa690614dc6565b8015611ff35780601f10611fc857610100808354040283529160200191611ff3565b820191906000526020600020905b815481529060010190602001808311611fd657829003601f168201915b5050505050908060060160009054906101000a900473ffffffffffffffffffffffffffffffffffffffff169080600701805461202e90614dc6565b80601f016020809104026020016040519081016040528092919081815260200182805461205a90614dc6565b80156120a75780601f1061207c576101008083540402835291602001916120a7565b820191906000526020600020905b81548152906001019060200180831161208a57829003601f168201915b5050505050908060080180546120bc90614dc6565b80601f01602080910402602001604051908101604052809291908181526020018280546120e890614dc6565b80156121355780601f1061210a57610100808354040283529160200191612135565b820191906000526020600020905b81548152906001019060200180831161211857829003601f168201915b50505050509080600901805461214a90614dc6565b80601f016020809104026020016040519081016040528092919081815260200182805461217690614dc6565b80156121c35780601f10612198576101008083540402835291602001916121c3565b820191906000526020600020905b8154815290600101906020018083116121a657829003601f168201915b505050505090508a565b6121d5613dbb565b600260008373ffffffffffffffffffffffffffffffffffffffff1673ffffffffffffffffffffffffffffffffffffffff1681526020019081526020016000206040518061016001604052908160008201805461223090614dc6565b80601f016020809104026020016040519081016040528092919081815260200182805461225c90614dc6565b80156122a95780601f1061227e576101008083540402835291602001916122a9565b820191906000526020600020905b81548152906001019060200180831161228c57829003601f168201915b505050505081526020016001820180546122c290614dc6565b80601f01602080910402602001604051908101604052809291908181526020018280546122ee90614dc6565b801561233b5780601f106123105761010080835404028352916020019161233b565b820191906000526020600020905b81548152906001019060200180831161231e57829003601f168201915b5050505050815260200160028201805461235490614dc6565b80601f016020809104026020016040519081016040528092919081815260200182805461238090614dc6565b80156123cd5780601f106123a2576101008083540402835291602001916123cd565b820191906000526020600020905b8154815290600101906020018083116123b057829003601f168201915b505050505081526020016003820180546123e690614dc6565b80601f016020809104026020016040519081016040528092919081815260200182805461241290614dc6565b801561245f5780601f106124345761010080835404028352916020019161245f565b820191906000526020600020905b81548152906001019060200180831161244257829003601f168201915b5050505050815260200160048201805461247890614dc6565b80601f01602080910402602001604051908101604052809291908181526020018280546124a490614dc6565b80156124f15780601f106124c6576101008083540402835291602001916124f1565b820191906000526020600020905b8154815290600101906020018083116124d457829003601f168201915b5050505050815260200160058201805461250a90614dc6565b80601f016020809104026020016040519081016040528092919081815260200182805461253690614dc6565b80156125835780601f1061255857610100808354040283529160200191612583565b820191906000526020600020905b81548152906001019060200180831161256657829003601f168201915b5050505050815260200160068201805461259c90614dc6565b80601f01602080910402602001604051908101604052809291908181526020018280546125c890614dc6565b80156126155780601f106125ea57610100808354040283529160200191612615565b820191906000526020600020905b8154815290600101906020018083116125f857829003601f168201915b5050505050815260200160078201805461262e90614dc6565b80601f016020809104026020016040519081016040528092919081815260200182805461265a90614dc6565b80156126a75780601f1061267c576101008083540402835291602001916126a7565b820191906000526020600020905b81548152906001019060200180831161268a57829003601f168201915b505050505081526020016008820160009054906101000a900473ffffffffffffffffffffffffffffffffffffffff1673ffffffffffffffffffffffffffffffffffffffff1673ffffffffffffffffffffffffffffffffffffffff16815260200160098201805461271690614dc6565b80601f016020809104026020016040519081016040528092919081815260200182805461274290614dc6565b801561278f5780601f106127645761010080835404028352916020019161278f565b820191906000526020600020905b81548152906001019060200180831161277257829003601f168201915b50505050508152602001600a820180546127a890614dc6565b80601f01602080910402602001604051908101604052809291908181526020018280546127d490614dc6565b80156128215780601f106127f657610100808354040283529160200191612821565b820191906000526020600020905b81548152906001019060200180831161280457829003601f168201915b5050505050815250509050919050565b6040518061016001604052808c81526020018b81526020018a81526020018981526020018881526020018781526020018681526020018581526020018473ffffffffffffffffffffffffffffffffffffffff16815260200183815260200182815250600260008573ffffffffffffffffffffffffffffffffffffffff1673ffffffffffffffffffffffffffffffffffffffff16815260200190815260200160002060008201518160000190805190602001906128ee929190613c78565b50602082015181600101908051906020019061290b929190613c78565b506040820151816002019080519060200190612928929190613c78565b506060820151816003019080519060200190612945929190613c78565b506080820151816004019080519060200190612962929190613c78565b5060a082015181600501908051906020019061297f929190613c78565b5060c082015181600601908051906020019061299c929190613c78565b5060e08201518160070190805190602001906129b9929190613c78565b506101008201518160080160006101000a81548173ffffffffffffffffffffffffffffffffffffffff021916908373ffffffffffffffffffffffffffffffffffffffff160217905550610120820151816009019080519060200190612a1f929190613c78565b5061014082015181600a019080519060200190612a3d929190613c78565b5090505087600160008573ffffffffffffffffffffffffffffffffffffffff1673ffffffffffffffffffffffffffffffffffffffff1681526020019081526020016000209080519060200190612a94929190613c78565b508273ffffffffffffffffffffffffffffffffffffffff167fc85b128388b9c331a2a5485dce4cd0f3db9f7c279d327ce95d6d39d6c94644c789604051612adb91906145de565b60405180910390a28273ffffffffffffffffffffffffffffffffffffffff167f0cdc4407c9dcc11c0d05b4ee0ec812e97f49258c780bee88b720bb3191c870bb600260008673ffffffffffffffffffffffffffffffffffffffff1673ffffffffffffffffffffffffffffffffffffffff168152602001908152602001600020604051612b67919061541d565b60405180910390a25050505050505050505050565b60606000808054905067ffffffffffffffff811115612b9e57612b9d6140c3565b5b604051908082528060200260200182016040528015612bd757816020015b612bc4613cfe565b815260200190600190039081612bbc5790505b5090506000805b600080549050811015612e18578473ffffffffffffffffffffffffffffffffffffffff1660008281548110612c1657612c15615249565b5b906000526020600020906004020160000160009054906101000a900473ffffffffffffffffffffffffffffffffffffffff1673ffffffffffffffffffffffffffffffffffffffff1603612e055760008181548110612c7757612c76615249565b5b90600052602060002090600402016040518060800160405290816000820160009054906101000a900473ffffffffffffffffffffffffffffffffffffffff1673ffffffffffffffffffffffffffffffffffffffff1673ffffffffffffffffffffffffffffffffffffffff1681526020016001820160009054906101000a900473ffffffffffffffffffffffffffffffffffffffff1673ffffffffffffffffffffffffffffffffffffffff1673ffffffffffffffffffffffffffffffffffffffff16815260200160028201548152602001600382018054612d5690614dc6565b80601f0160208091040260200160405190810160405280929190818152602001828054612d8290614dc6565b8015612dcf5780601f10612da457610100808354040283529160200191612dcf565b820191906000526020600020905b815481529060010190602001808311612db257829003601f168201915b505050505081525050838381518110612deb57612dea615249565b5b60200260200101819052508180612e01906152a7565b9250505b8080612e10906152a7565b915050612bde565b508082528192505050919050565b60016020528060005260406000206000915090508054612e4590614dc6565b80601f0160208091040260200160405190810160405280929190818152602001828054612e7190614dc6565b8015612ebe5780601f10612e9357610100808354040283529160200191612ebe565b820191906000526020600020905b815481529060010190602001808311612ea157829003601f168201915b505050505081565b600080600260008473ffffffffffffffffffffffffffffffffffffffff1673ffffffffffffffffffffffffffffffffffffffff16815260200190815260200160002060405180610160016040529081600082018054612f2490614dc6565b80601f0160208091040260200160405190810160405280929190818152602001828054612f5090614dc6565b8015612f9d5780601f10612f7257610100808354040283529160200191612f9d565b820191906000526020600020905b815481529060010190602001808311612f8057829003601f168201915b50505050508152602001600182018054612fb690614dc6565b80601f0160208091040260200160405190810160405280929190818152602001828054612fe290614dc6565b801561302f5780601f106130045761010080835404028352916020019161302f565b820191906000526020600020905b81548152906001019060200180831161301257829003601f168201915b5050505050815260200160028201805461304890614dc6565b80601f016020809104026020016040519081016040528092919081815260200182805461307490614dc6565b80156130c15780601f10613096576101008083540402835291602001916130c1565b820191906000526020600020905b8154815290600101906020018083116130a457829003601f168201915b505050505081526020016003820180546130da90614dc6565b80601f016020809104026020016040519081016040528092919081815260200182805461310690614dc6565b80156131535780601f1061312857610100808354040283529160200191613153565b820191906000526020600020905b81548152906001019060200180831161313657829003601f168201915b5050505050815260200160048201805461316c90614dc6565b80601f016020809104026020016040519081016040528092919081815260200182805461319890614dc6565b80156131e55780601f106131ba576101008083540402835291602001916131e5565b820191906000526020600020905b8154815290600101906020018083116131c857829003601f168201915b505050505081526020016005820180546131fe90614dc6565b80601f016020809104026020016040519081016040528092919081815260200182805461322a90614dc6565b80156132775780601f1061324c57610100808354040283529160200191613277565b820191906000526020600020905b81548152906001019060200180831161325a57829003601f168201915b5050505050815260200160068201805461329090614dc6565b80601f01602080910402602001604051908101604052809291908181526020018280546132bc90614dc6565b80156133095780601f106132de57610100808354040283529160200191613309565b820191906000526020600020905b8154815290600101906020018083116132ec57829003601f168201915b5050505050815260200160078201805461332290614dc6565b80601f016020809104026020016040519081016040528092919081815260200182805461334e90614dc6565b801561339b5780601f106133705761010080835404028352916020019161339b565b820191906000526020600020905b81548152906001019060200180831161337e57829003601f168201915b505050505081526020016008820160009054906101000a900473ffffffffffffffffffffffffffffffffffffffff1673ffffffffffffffffffffffffffffffffffffffff1673ffffffffffffffffffffffffffffffffffffffff16815260200160098201805461340a90614dc6565b80601f016020809104026020016040519081016040528092919081815260200182805461343690614dc6565b80156134835780601f1061345857610100808354040283529160200191613483565b820191906000526020600020905b81548152906001019060200180831161346657829003601f168201915b50505050508152602001600a8201805461349c90614dc6565b80601f01602080910402602001604051908101604052809291908181526020018280546134c890614dc6565b80156135155780601f106134ea57610100808354040283529160200191613515565b820191906000526020600020905b8154815290600101906020018083116134f857829003601f168201915b50505050508152505090506000600360008573ffffffffffffffffffffffffffffffffffffffff1673ffffffffffffffffffffffffffffffffffffffff1681526020019081526020016000206040518061014001604052908160008201805461357d90614dc6565b80601f01602080910402602001604051908101604052809291908181526020018280546135a990614dc6565b80156135f65780601f106135cb576101008083540402835291602001916135f6565b820191906000526020600020905b8154815290600101906020018083116135d957829003601f168201915b5050505050815260200160018201805461360f90614dc6565b80601f016020809104026020016040519081016040528092919081815260200182805461363b90614dc6565b80156136885780601f1061365d57610100808354040283529160200191613688565b820191906000526020600020905b81548152906001019060200180831161366b57829003601f168201915b505050505081526020016002820180546136a190614dc6565b80601f01602080910402602001604051908101604052809291908181526020018280546136cd90614dc6565b801561371a5780601f106136ef5761010080835404028352916020019161371a565b820191906000526020600020905b8154815290600101906020018083116136fd57829003601f168201915b5050505050815260200160038201805461373390614dc6565b80601f016020809104026020016040519081016040528092919081815260200182805461375f90614dc6565b80156137ac5780601f10613781576101008083540402835291602001916137ac565b820191906000526020600020905b81548152906001019060200180831161378f57829003601f168201915b505050505081526020016004820180546137c590614dc6565b80601f01602080910402602001604051908101604052809291908181526020018280546137f190614dc6565b801561383e5780601f106138135761010080835404028352916020019161383e565b820191906000526020600020905b81548152906001019060200180831161382157829003601f168201915b5050505050815260200160058201805461385790614dc6565b80601f016020809104026020016040519081016040528092919081815260200182805461388390614dc6565b80156138d05780601f106138a5576101008083540402835291602001916138d0565b820191906000526020600020905b8154815290600101906020018083116138b357829003601f168201915b505050505081526020016006820160009054906101000a900473ffffffffffffffffffffffffffffffffffffffff1673ffffffffffffffffffffffffffffffffffffffff1673ffffffffffffffffffffffffffffffffffffffff16815260200160078201805461393f90614dc6565b80601f016020809104026020016040519081016040528092919081815260200182805461396b90614dc6565b80156139b85780601f1061398d576101008083540402835291602001916139b8565b820191906000526020600020905b81548152906001019060200180831161399b57829003601f168201915b505050505081526020016008820180546139d190614dc6565b80601f01602080910402602001604051908101604052809291908181526020018280546139fd90614dc6565b8015613a4a5780601f10613a1f57610100808354040283529160200191613a4a565b820191906000526020600020905b815481529060010190602001808311613a2d57829003601f168201915b50505050508152602001600982018054613a6390614dc6565b80601f0160208091040260200160405190810160405280929190818152602001828054613a8f90614dc6565b8015613adc5780601f10613ab157610100808354040283529160200191613adc565b820191906000526020600020905b815481529060010190602001808311613abf57829003601f168201915b505050505081525050905060008260000151511180613b0057506000816000015151115b15613b1057600192505050613b17565b6000925050505b919050565b613b24613e2b565b600460008373ffffffffffffffffffffffffffffffffffffffff1673ffffffffffffffffffffffffffffffffffffffff1681526020019081526020016000206040518060600160405290816000820160009054906101000a900473ffffffffffffffffffffffffffffffffffffffff1673ffffffffffffffffffffffffffffffffffffffff1673ffffffffffffffffffffffffffffffffffffffff168152602001600182018054613bd490614dc6565b80601f0160208091040260200160405190810160405280929190818152602001828054613c0090614dc6565b8015613c4d5780601f10613c2257610100808354040283529160200191613c4d565b820191906000526020600020905b815481529060010190602001808311613c3057829003601f168201915b505050505081526020016002820160009054906101000a900460ff1615151515815250509050919050565b828054613c8490614dc6565b90600052602060002090601f016020900481019282613ca65760008555613ced565b82601f10613cbf57805160ff1916838001178555613ced565b82800160010185558215613ced579182015b82811115613cec578251825591602001919060010190613cd1565b5b509050613cfa9190613e64565b5090565b6040518060800160405280600073ffffffffffffffffffffffffffffffffffffffff168152602001600073ffffffffffffffffffffffffffffffffffffffff16815260200160008152602001606081525090565b604051806101400160405280606081526020016060815260200160608152602001606081526020016060815260200160608152602001600073ffffffffffffffffffffffffffffffffffffffff1681526020016060815260200160608152602001606081525090565b6040518061016001604052806060815260200160608152602001606081526020016060815260200160608152602001606081526020016060815260200160608152602001600073ffffffffffffffffffffffffffffffffffffffff16815260200160608152602001606081525090565b6040518060600160405280600073ffffffffffffffffffffffffffffffffffffffff168152602001606081526020016000151581525090565b5b80821115613e7d576000816000905550600101613e65565b5090565b6000604051905090565b600080fd5b600080fd5b600073ffffffffffffffffffffffffffffffffffffffff82169050919050565b6000613ec082613e95565b9050919050565b613ed081613eb5565b8114613edb57600080fd5b50565b600081359050613eed81613ec7565b92915050565b600060208284031215613f0957613f08613e8b565b5b6000613f1784828501613ede565b91505092915050565b600081519050919050565b600082825260208201905092915050565b60005b83811015613f5a578082015181840152602081019050613f3f565b83811115613f69576000848401525b50505050565b6000601f19601f8301169050919050565b6000613f8b82613f20565b613f958185613f2b565b9350613fa5818560208601613f3c565b613fae81613f6f565b840191505092915050565b613fc281613eb5565b82525050565b6000610160820190508181036000830152613fe3818e613f80565b90508181036020830152613ff7818d613f80565b9050818103604083015261400b818c613f80565b9050818103606083015261401f818b613f80565b90508181036080830152614033818a613f80565b905081810360a08301526140478189613f80565b905081810360c083015261405b8188613f80565b905081810360e083015261406f8187613f80565b905061407f610100830186613fb9565b8181036101208301526140928185613f80565b90508181036101408301526140a78184613f80565b90509c9b505050505050505050505050565b600080fd5b600080fd5b7f4e487b7100000000000000000000000000000000000000000000000000000000600052604160045260246000fd5b6140fb82613f6f565b810181811067ffffffffffffffff8211171561411a576141196140c3565b5b80604052505050565b600061412d613e81565b905061413982826140f2565b919050565b600067ffffffffffffffff821115614159576141586140c3565b5b61416282613f6f565b9050602081019050919050565b82818337600083830152505050565b600061419161418c8461413e565b614123565b9050828152602081018484840111156141ad576141ac6140be565b5b6141b884828561416f565b509392505050565b600082601f8301126141d5576141d46140b9565b5b81356141e584826020860161417e565b91505092915050565b6000806040838503121561420557614204613e8b565b5b600061421385828601613ede565b925050602083013567ffffffffffffffff81111561423457614233613e90565b5b614240858286016141c0565b9150509250929050565b6000806000806000806000806000806101408b8d03121561426e5761426d613e8b565b5b60008b013567ffffffffffffffff81111561428c5761428b613e90565b5b6142988d828e016141c0565b9a505060208b013567ffffffffffffffff8111156142b9576142b8613e90565b5b6142c58d828e016141c0565b99505060408b013567ffffffffffffffff8111156142e6576142e5613e90565b5b6142f28d828e016141c0565b98505060608b013567ffffffffffffffff81111561431357614312613e90565b5b61431f8d828e016141c0565b97505060808b013567ffffffffffffffff8111156143405761433f613e90565b5b61434c8d828e016141c0565b96505060a08b013567ffffffffffffffff81111561436d5761436c613e90565b5b6143798d828e016141c0565b95505060c061438a8d828e01613ede565b94505060e08b013567ffffffffffffffff8111156143ab576143aa613e90565b5b6143b78d828e016141c0565b9350506101008b013567ffffffffffffffff8111156143d9576143d8613e90565b5b6143e58d828e016141c0565b9250506101208b013567ffffffffffffffff81111561440757614406613e90565b5b6144138d828e016141c0565b9150509295989b9194979a5092959850565b600081519050919050565b600082825260208201905092915050565b6000819050602082019050919050565b61445a81613eb5565b82525050565b6000819050919050565b61447381614460565b82525050565b600082825260208201905092915050565b600061449582613f20565b61449f8185614479565b93506144af818560208601613f3c565b6144b881613f6f565b840191505092915050565b60006080830160008301516144db6000860182614451565b5060208301516144ee6020860182614451565b506040830151614501604086018261446a565b5060608301518482036060860152614519828261448a565b9150508091505092915050565b600061453283836144c3565b905092915050565b6000602082019050919050565b600061455282614425565b61455c8185614430565b93508360208202850161456e85614441565b8060005b858110156145aa578484038952815161458b8582614526565b94506145968361453a565b925060208a01995050600181019050614572565b50829750879550505050505092915050565b600060208201905081810360008301526145d68184614547565b905092915050565b600060208201905081810360008301526145f88184613f80565b905092915050565b600061014083016000830151848203600086015261461e828261448a565b91505060208301518482036020860152614638828261448a565b91505060408301518482036040860152614652828261448a565b9150506060830151848203606086015261466c828261448a565b91505060808301518482036080860152614686828261448a565b91505060a083015184820360a08601526146a0828261448a565b91505060c08301516146b560c0860182614451565b5060e083015184820360e08601526146cd828261448a565b9150506101008301518482036101008601526146e9828261448a565b915050610120830151848203610120860152614705828261448a565b9150508091505092915050565b6000602082019050818103600083015261472c8184614600565b905092915050565b60008115159050919050565b61474981614734565b82525050565b60006060820190506147646000830186613fb9565b81810360208301526147768185613f80565b90506147856040830184614740565b949350505050565b61479681614460565b81146147a157600080fd5b50565b6000813590506147b38161478d565b92915050565b6000602082840312156147cf576147ce613e8b565b5b60006147dd848285016147a4565b91505092915050565b6147ef81614460565b82525050565b600060808201905061480a6000830187613fb9565b6148176020830186613fb9565b61482460408301856147e6565b81810360608301526148368184613f80565b905095945050505050565b6000806000806080858703121561485b5761485a613e8b565b5b600061486987828801613ede565b945050602061487a87828801613ede565b935050604085013567ffffffffffffffff81111561489b5761489a613e90565b5b6148a7878288016141c0565b92505060606148b8878288016147a4565b91505092959194509250565b60006101408201905081810360008301526148df818d613f80565b905081810360208301526148f3818c613f80565b90508181036040830152614907818b613f80565b9050818103606083015261491b818a613f80565b9050818103608083015261492f8189613f80565b905081810360a08301526149438188613f80565b905061495260c0830187613fb9565b81810360e08301526149648186613f80565b90508181036101008301526149798185613f80565b905081810361012083015261498e8184613f80565b90509b9a5050505050505050505050565b60006101608301600083015184820360008601526149bd828261448a565b915050602083015184820360208601526149d7828261448a565b915050604083015184820360408601526149f1828261448a565b91505060608301518482036060860152614a0b828261448a565b91505060808301518482036080860152614a25828261448a565b91505060a083015184820360a0860152614a3f828261448a565b91505060c083015184820360c0860152614a59828261448a565b91505060e083015184820360e0860152614a73828261448a565b915050610100830151614a8a610100860182614451565b50610120830151848203610120860152614aa4828261448a565b915050610140830151848203610140860152614ac0828261448a565b9150508091505092915050565b60006020820190508181036000830152614ae7818461499f565b905092915050565b60008060008060008060008060008060006101608c8e031215614b1557614b14613e8b565b5b60008c013567ffffffffffffffff811115614b3357614b32613e90565b5b614b3f8e828f016141c0565b9b505060208c013567ffffffffffffffff811115614b6057614b5f613e90565b5b614b6c8e828f016141c0565b9a505060408c013567ffffffffffffffff811115614b8d57614b8c613e90565b5b614b998e828f016141c0565b99505060608c013567ffffffffffffffff811115614bba57614bb9613e90565b5b614bc68e828f016141c0565b98505060808c013567ffffffffffffffff811115614be757614be6613e90565b5b614bf38e828f016141c0565b97505060a08c013567ffffffffffffffff811115614c1457614c13613e90565b5b614c208e828f016141c0565b96505060c08c013567ffffffffffffffff811115614c4157614c40613e90565b5b614c4d8e828f016141c0565b95505060e08c013567ffffffffffffffff811115614c6e57614c6d613e90565b5b614c7a8e828f016141c0565b945050610100614c8c8e828f01613ede565b9350506101208c013567ffffffffffffffff811115614cae57614cad613e90565b5b614cba8e828f016141c0565b9250506101408c013567ffffffffffffffff811115614cdc57614cdb613e90565b5b614ce88e828f016141c0565b9150509295989b509295989b9093969950565b6000602082019050614d106000830184614740565b92915050565b614d1f81614734565b82525050565b6000606083016000830151614d3d6000860182614451565b5060208301518482036020860152614d55828261448a565b9150506040830151614d6a6040860182614d16565b508091505092915050565b60006020820190508181036000830152614d8f8184614d25565b905092915050565b7f4e487b7100000000000000000000000000000000000000000000000000000000600052602260045260246000fd5b60006002820490506001821680614dde57607f821691505b602082108103614df157614df0614d97565b5b50919050565b7f4163636f756e7420616c726561647920686173206120726f6c6520726567697360008201527f7465726564000000000000000000000000000000000000000000000000000000602082015250565b6000614e53602583613f2b565b9150614e5e82614df7565b604082019050919050565b60006020820190508181036000830152614e8281614e46565b9050919050565b60008160001c9050919050565b600073ffffffffffffffffffffffffffffffffffffffff82169050919050565b6000614ec9614ec483614e89565b614e96565b9050919050565b60008190508160005260206000209050919050565b60008154614ef281614dc6565b614efc8186614479565b94506001821660008114614f175760018114614f2957614f5c565b60ff1983168652602086019350614f5c565b614f3285614ed0565b60005b83811015614f5457815481890152600182019150602081019050614f35565b808801955050505b50505092915050565b600060ff82169050919050565b6000614f85614f8083614e89565b614f65565b9050919050565b6000606083016000808401549050614fa381614eb6565b614fb06000870182614451565b50600184018583036020870152614fc78382614ee5565b92505060028401549050614fda81614f72565b614fe76040870182614d16565b50819250505092915050565b6000602082019050818103600083015261500d8184614f8c565b905092915050565b7f4163636f756e74206973206e6f74207265676973746572656400000000000000600082015250565b600061504b601983613f2b565b915061505682615015565b602082019050919050565b6000602082019050818103600083015261507a8161503e565b9050919050565b7f4163636f756e7420646f6573206e6f74206861766520706572736f6e616c206960008201527f6e666f2073746f72656400000000000000000000000000000000000000000000602082015250565b60006150dd602a83613f2b565b91506150e882615081565b604082019050919050565b6000602082019050818103600083015261510c816150d0565b9050919050565b60006101408301600080840185830360008701526151318382614ee5565b92505060018401858303602087015261514a8382614ee5565b9250506002840185830360408701526151638382614ee5565b92505060038401858303606087015261517c8382614ee5565b9250506004840185830360808701526151958382614ee5565b9250506005840185830360a08701526151ae8382614ee5565b925050600684015490506151c181614eb6565b6151ce60c0870182614451565b506007840185830360e08701526151e58382614ee5565b925050600884018583036101008701526151ff8382614ee5565b925050600984018583036101208701526152198382614ee5565b925050819250505092915050565b600060208201905081810360008301526152418184615113565b905092915050565b7f4e487b7100000000000000000000000000000000000000000000000000000000600052603260045260246000fd5b7f4e487b7100000000000000000000000000000000000000000000000000000000600052601160045260246000fd5b60006152b282614460565b91507fffffffffffffffffffffffffffffffffffffffffffffffffffffffffffffffff82036152e4576152e3615278565b5b600182019050919050565b600061016083016000808401858303600087015261530d8382614ee5565b9250506001840185830360208701526153268382614ee5565b92505060028401858303604087015261533f8382614ee5565b9250506003840185830360608701526153588382614ee5565b9250506004840185830360808701526153718382614ee5565b9250506005840185830360a087015261538a8382614ee5565b9250506006840185830360c08701526153a38382614ee5565b9250506007840185830360e08701526153bc8382614ee5565b925050600884015490506153cf81614eb6565b6153dd610100870182614451565b50600984018583036101208701526153f58382614ee5565b925050600a840185830361014087015261540f8382614ee5565b925050819250505092915050565b6000602082019050818103600083015261543781846152ef565b90509291505056fea264697066735822122000e5806a0334b670005320317edaade7297c6c4913f3222c836e3ffd536c6ad364736f6c634300080d0033",
  "immutableReferences": {},
  "source": "// SPDX-License-Identifier: MIT\r\npragma solidity ^0.8.13;\r\n\r\n// Smart contract\r\ncontract HealthSystem {\r\n    struct Patient {\r\n        string firstName;\r\n        string lastName;\r\n        string dateOfBirth;\r\n        string email;\r\n        string gender;\r\n        string patientAddress;\r\n        string phoneNumber;\r\n        string bloodgroup;\r\n        address metaMaskAccount;\r\n        string insuranceProvider;\r\n        string policyNumber;\r\n    }\r\n\r\n    struct Doctor {\r\n        string firstName;\r\n        string lastName;\r\n        string dateOfBirth;\r\n        string email;\r\n        string doctorAddress;\r\n        string phoneNumber;\r\n        address metaMaskAccount;\r\n        string specialization;\r\n        string medicalLicenseNumber;\r\n        string yearsOfExperience;\r\n    }\r\n\r\n    struct Account {\r\n        address metaMaskAccount;\r\n        string role;\r\n        bool isRegistered;\r\n    }\r\n\r\n    struct Meeting {\r\n        address patientAddress;\r\n        address doctorAddress;\r\n        uint256 meetingTime;\r\n        string meetingDescription;\r\n    }\r\n\r\n    Meeting[] public meetings;\r\n\r\n    function createMeeting(\r\n        address _patientAddress,\r\n        address _doctorAddress,\r\n        string memory _meetingDescription,\r\n        uint256 _meetingTime\r\n    ) public {\r\n        meetings.push(\r\n            Meeting({\r\n                patientAddress: _patientAddress,\r\n                doctorAddress: _doctorAddress,\r\n                meetingTime: _meetingTime,\r\n                meetingDescription: _meetingDescription\r\n            })\r\n        );\r\n    }\r\n\r\n    function getPatientMeetings(\r\n        address _patientAddress\r\n    ) public view returns (Meeting[] memory) {\r\n        Meeting[] memory patientMeetings = new Meeting[](meetings.length);\r\n        uint256 count = 0;\r\n\r\n        for (uint256 i = 0; i < meetings.length; i++) {\r\n            if (meetings[i].patientAddress == _patientAddress) {\r\n                patientMeetings[count] = meetings[i];\r\n                count++;\r\n            }\r\n        }\r\n\r\n        assembly {\r\n            mstore(patientMeetings, count)\r\n        }\r\n        return patientMeetings;\r\n    }\r\n\r\n    function getDoctorMeetings(\r\n        address _doctorAddress\r\n    ) public view returns (Meeting[] memory) {\r\n        Meeting[] memory doctorMeetings = new Meeting[](meetings.length);\r\n        uint256 count = 0;\r\n\r\n        for (uint256 i = 0; i < meetings.length; i++) {\r\n            if (meetings[i].doctorAddress == _doctorAddress) {\r\n                doctorMeetings[count] = meetings[i];\r\n                count++;\r\n            }\r\n        }\r\n\r\n        assembly {\r\n            mstore(doctorMeetings, count)\r\n        }\r\n        return doctorMeetings;\r\n    }\r\n\r\n    mapping(address => string) public metaMaskToEmail;\r\n    mapping(address => Patient) public patients;\r\n    mapping(address => Doctor) public doctors;\r\n    mapping(address => Account) public accounts;\r\n\r\n    event PatientExists(address indexed metaMaskAccount, Patient patient);\r\n    event PatientRegistered(address indexed metaMaskAccount, string email);\r\n    event DoctorExists(address indexed metaMaskAccount, Doctor doctor);\r\n    event DoctorRegistered(address indexed metaMaskAccount, string email);\r\n    event AccountRegistered(address indexed metaMaskAccount, string role);\r\n    event AccountExists(address indexed metaMaskAccount, Account account);\r\n\r\n    modifier onlyRegisteredAccount(address _metaMaskAccount) {\r\n        require(\r\n            accounts[_metaMaskAccount].isRegistered,\r\n            \"Account is not registered\"\r\n        );\r\n        _;\r\n    }\r\n\r\n    function registerPatient(\r\n        string memory _firstName,\r\n        string memory _lastName,\r\n        string memory _dateOfBirth,\r\n        string memory _email,\r\n        string memory _gender,\r\n        string memory _patientAddress,\r\n        string memory _phoneNumber,\r\n        string memory _bloodgroup,\r\n        address _metaMaskAccount,\r\n        string memory _insuranceProvider,\r\n        string memory _policyNumber\r\n    ) public {\r\n        // Store the patient details in the mapping\r\n        patients[_metaMaskAccount] = Patient(\r\n            _firstName,\r\n            _lastName,\r\n            _dateOfBirth,\r\n            _email,\r\n            _gender,\r\n            _patientAddress,\r\n            _phoneNumber,\r\n            _bloodgroup,\r\n            _metaMaskAccount,\r\n            _insuranceProvider,\r\n            _policyNumber\r\n        );\r\n\r\n        // Map the MetaMask address to the email\r\n        metaMaskToEmail[_metaMaskAccount] = _email;\r\n\r\n        // Emit events for patient registration and existence\r\n        emit PatientRegistered(_metaMaskAccount, _email);\r\n        emit PatientExists(_metaMaskAccount, patients[_metaMaskAccount]);\r\n    }\r\n\r\n    function registerDoctor(\r\n        string memory _firstName,\r\n        string memory _lastName,\r\n        string memory _dateOfBirth,\r\n        string memory _email,\r\n        string memory _doctorAddress,\r\n        string memory _phoneNumber,\r\n        address _metaMaskAccount,\r\n        string memory _specialization,\r\n        string memory _medicalLicenseNumber,\r\n        string memory _yearsOfExperience\r\n    ) public {\r\n        // Store the doctor details in the mapping\r\n        doctors[_metaMaskAccount] = Doctor(\r\n            _firstName,\r\n            _lastName,\r\n            _dateOfBirth,\r\n            _email,\r\n            _doctorAddress,\r\n            _phoneNumber,\r\n            _metaMaskAccount,\r\n            _specialization,\r\n            _medicalLicenseNumber,\r\n            _yearsOfExperience\r\n        );\r\n\r\n        // Map the MetaMask address to the email\r\n        metaMaskToEmail[_metaMaskAccount] = _email;\r\n\r\n        // Emit events for doctor registration and existence\r\n        emit DoctorRegistered(_metaMaskAccount, _email);\r\n        emit DoctorExists(_metaMaskAccount, doctors[_metaMaskAccount]);\r\n    }\r\n\r\n    function registerAccount(\r\n        address _metaMaskAccount,\r\n        string memory _role\r\n    ) public {\r\n        // Check if the account already has a role registered\r\n        if (accounts[_metaMaskAccount].isRegistered) {\r\n            revert(\"Account already has a role registered\");\r\n        }\r\n\r\n        // Store the account details with role in the mapping\r\n        accounts[_metaMaskAccount] = Account({\r\n            metaMaskAccount: _metaMaskAccount,\r\n            role: _role,\r\n            isRegistered: true\r\n        });\r\n\r\n        // Emit event for account registration\r\n        emit AccountRegistered(_metaMaskAccount, _role);\r\n        emit AccountExists(_metaMaskAccount, accounts[_metaMaskAccount]);\r\n    }\r\n\r\n    function getPatient(\r\n        address _metaMaskAccount\r\n    ) public view returns (Patient memory) {\r\n        return patients[_metaMaskAccount];\r\n    }\r\n\r\n    function getDoctor(\r\n        address _metaMaskAccount\r\n    ) public view returns (Doctor memory) {\r\n        return doctors[_metaMaskAccount];\r\n    }\r\n\r\n    function getEmailByMetaMask(\r\n        address _metaMaskAccount\r\n    ) public view returns (string memory) {\r\n        return metaMaskToEmail[_metaMaskAccount];\r\n    }\r\n\r\n    function getAccount(\r\n        address _metaMaskAccount\r\n    ) public view returns (Account memory) {\r\n        return accounts[_metaMaskAccount];\r\n    }\r\n\r\n    function hasPersonalInfo(\r\n        address _metaMaskAccount\r\n    ) public view returns (bool) {\r\n        Patient memory patient = patients[_metaMaskAccount];\r\n        Doctor memory doctor = doctors[_metaMaskAccount];\r\n        if (\r\n            bytes(patient.firstName).length > 0 ||\r\n            bytes(doctor.firstName).length > 0\r\n        ) {\r\n            return true;\r\n        }\r\n        return false;\r\n    }\r\n\r\n    function performAction(\r\n        address _metaMaskAccount\r\n    ) public view onlyRegisteredAccount(_metaMaskAccount) {\r\n        require(\r\n            hasPersonalInfo(_metaMaskAccount),\r\n            \"Account does not have personal info stored\"\r\n        );\r\n    }\r\n}\r\n",
  "sourcePath": "C:\\Users\\sanju\\OneDrive\\Desktop\\Electronic_Health_records\\Truffle\\contracts\\HealthSystem.sol",
  "compiler": {
    "name": "solc",
    "version": "0.8.13+commit.abaa5c0e.Emscripten.clang"
  },
  "schemaVersion": "3.4.16",
  "updatedAt": "2024-07-06T12:26:50.043Z",
  "networkType": "ethereum",
  "devdoc": {
    "kind": "dev",
    "methods": {},
    "version": 1
  },
  "userdoc": {
    "kind": "user",
    "methods": {},
    "version": 1
  }
}