{
  "contractName": "HealthSystem",
  "abi": [
    {
      "anonymous": false,
      "inputs": [
        {
          "indexed": true,
          "internalType": "address",
          "name": "metaMaskAccount",
          "type": "address"
        },
        {
          "components": [
            {
              "internalType": "address",
              "name": "metaMaskAccount",
              "type": "address"
            },
            {
              "internalType": "string",
              "name": "role",
              "type": "string"
            },
            {
              "internalType": "bool",
              "name": "isRegistered",
              "type": "bool"
            }
          ],
          "indexed": false,
          "internalType": "struct HealthSystem.Account",
          "name": "account",
          "type": "tuple"
        }
      ],
      "name": "AccountExists",
      "type": "event"
    },
    {
      "anonymous": false,
      "inputs": [
        {
          "indexed": true,
          "internalType": "address",
          "name": "metaMaskAccount",
          "type": "address"
        },
        {
          "indexed": false,
          "internalType": "string",
          "name": "role",
          "type": "string"
        }
      ],
      "name": "AccountRegistered",
      "type": "event"
    },
    {
      "anonymous": false,
      "inputs": [
        {
          "indexed": true,
          "internalType": "address",
          "name": "metaMaskAccount",
          "type": "address"
        },
        {
          "components": [
            {
              "internalType": "string",
              "name": "firstName",
              "type": "string"
            },
            {
              "internalType": "string",
              "name": "lastName",
              "type": "string"
            },
            {
              "internalType": "string",
              "name": "dateOfBirth",
              "type": "string"
            },
            {
              "internalType": "string",
              "name": "email",
              "type": "string"
            },
            {
              "internalType": "string",
              "name": "doctorAddress",
              "type": "string"
            },
            {
              "internalType": "string",
              "name": "phoneNumber",
              "type": "string"
            },
            {
              "internalType": "address",
              "name": "metaMaskAccount",
              "type": "address"
            },
            {
              "internalType": "string",
              "name": "specialization",
              "type": "string"
            },
            {
              "internalType": "string",
              "name": "medicalLicenseNumber",
              "type": "string"
            },
            {
              "internalType": "string",
              "name": "yearsOfExperience",
              "type": "string"
            }
          ],
          "indexed": false,
          "internalType": "struct HealthSystem.Doctor",
          "name": "doctor",
          "type": "tuple"
        }
      ],
      "name": "DoctorExists",
      "type": "event"
    },
    {
      "anonymous": false,
      "inputs": [
        {
          "indexed": true,
          "internalType": "address",
          "name": "metaMaskAccount",
          "type": "address"
        },
        {
          "indexed": false,
          "internalType": "string",
          "name": "email",
          "type": "string"
        }
      ],
      "name": "DoctorRegistered",
      "type": "event"
    },
    {
      "anonymous": false,
      "inputs": [
        {
          "indexed": true,
          "internalType": "address",
          "name": "metaMaskAccount",
          "type": "address"
        },
        {
          "components": [
            {
              "internalType": "string",
              "name": "firstName",
              "type": "string"
            },
            {
              "internalType": "string",
              "name": "lastName",
              "type": "string"
            },
            {
              "internalType": "string",
              "name": "dateOfBirth",
              "type": "string"
            },
            {
              "internalType": "string",
              "name": "email",
              "type": "string"
            },
            {
              "internalType": "string",
              "name": "gender",
              "type": "string"
            },
            {
              "internalType": "string",
              "name": "patientAddress",
              "type": "string"
            },
            {
              "internalType": "string",
              "name": "phoneNumber",
              "type": "string"
            },
            {
              "internalType": "string",
              "name": "bloodgroup",
              "type": "string"
            },
            {
              "internalType": "address",
              "name": "metaMaskAccount",
              "type": "address"
            },
            {
              "internalType": "string",
              "name": "insuranceProvider",
              "type": "string"
            },
            {
              "internalType": "string",
              "name": "policyNumber",
              "type": "string"
            }
          ],
          "indexed": false,
          "internalType": "struct HealthSystem.Patient",
          "name": "patient",
          "type": "tuple"
        }
      ],
      "name": "PatientExists",
      "type": "event"
    },
    {
      "anonymous": false,
      "inputs": [
        {
          "indexed": true,
          "internalType": "address",
          "name": "metaMaskAccount",
          "type": "address"
        },
        {
          "indexed": false,
          "internalType": "string",
          "name": "email",
          "type": "string"
        }
      ],
      "name": "PatientRegistered",
      "type": "event"
    },
    {
      "inputs": [
        {
          "internalType": "address",
          "name": "",
          "type": "address"
        }
      ],
      "name": "accounts",
      "outputs": [
        {
          "internalType": "address",
          "name": "metaMaskAccount",
          "type": "address"
        },
        {
          "internalType": "string",
          "name": "role",
          "type": "string"
        },
        {
          "internalType": "bool",
          "name": "isRegistered",
          "type": "bool"
        }
      ],
      "stateMutability": "view",
      "type": "function",
      "constant": true
    },
    {
      "inputs": [
        {
          "internalType": "address",
          "name": "",
          "type": "address"
        }
      ],
      "name": "doctors",
      "outputs": [
        {
          "internalType": "string",
          "name": "firstName",
          "type": "string"
        },
        {
          "internalType": "string",
          "name": "lastName",
          "type": "string"
        },
        {
          "internalType": "string",
          "name": "dateOfBirth",
          "type": "string"
        },
        {
          "internalType": "string",
          "name": "email",
          "type": "string"
        },
        {
          "internalType": "string",
          "name": "doctorAddress",
          "type": "string"
        },
        {
          "internalType": "string",
          "name": "phoneNumber",
          "type": "string"
        },
        {
          "internalType": "address",
          "name": "metaMaskAccount",
          "type": "address"
        },
        {
          "internalType": "string",
          "name": "specialization",
          "type": "string"
        },
        {
          "internalType": "string",
          "name": "medicalLicenseNumber",
          "type": "string"
        },
        {
          "internalType": "string",
          "name": "yearsOfExperience",
          "type": "string"
        }
      ],
      "stateMutability": "view",
      "type": "function",
      "constant": true
    },
    {
      "inputs": [
        {
          "internalType": "uint256",
          "name": "",
          "type": "uint256"
        }
      ],
      "name": "meetings",
      "outputs": [
        {
          "internalType": "address",
          "name": "patientAddress",
          "type": "address"
        },
        {
          "internalType": "address",
          "name": "doctorAddress",
          "type": "address"
        },
        {
          "internalType": "uint256",
          "name": "meetingTime",
          "type": "uint256"
        },
        {
          "internalType": "string",
          "name": "meetingDescription",
          "type": "string"
        },
        {
          "internalType": "bool",
          "name": "isVerified",
          "type": "bool"
        }
      ],
      "stateMutability": "view",
      "type": "function",
      "constant": true
    },
    {
      "inputs": [
        {
          "internalType": "address",
          "name": "",
          "type": "address"
        }
      ],
      "name": "metaMaskToEmail",
      "outputs": [
        {
          "internalType": "string",
          "name": "",
          "type": "string"
        }
      ],
      "stateMutability": "view",
      "type": "function",
      "constant": true
    },
    {
      "inputs": [
        {
          "internalType": "address",
          "name": "",
          "type": "address"
        }
      ],
      "name": "patients",
      "outputs": [
        {
          "internalType": "string",
          "name": "firstName",
          "type": "string"
        },
        {
          "internalType": "string",
          "name": "lastName",
          "type": "string"
        },
        {
          "internalType": "string",
          "name": "dateOfBirth",
          "type": "string"
        },
        {
          "internalType": "string",
          "name": "email",
          "type": "string"
        },
        {
          "internalType": "string",
          "name": "gender",
          "type": "string"
        },
        {
          "internalType": "string",
          "name": "patientAddress",
          "type": "string"
        },
        {
          "internalType": "string",
          "name": "phoneNumber",
          "type": "string"
        },
        {
          "internalType": "string",
          "name": "bloodgroup",
          "type": "string"
        },
        {
          "internalType": "address",
          "name": "metaMaskAccount",
          "type": "address"
        },
        {
          "internalType": "string",
          "name": "insuranceProvider",
          "type": "string"
        },
        {
          "internalType": "string",
          "name": "policyNumber",
          "type": "string"
        }
      ],
      "stateMutability": "view",
      "type": "function",
      "constant": true
    },
    {
      "inputs": [
        {
          "internalType": "address",
          "name": "_patientAddress",
          "type": "address"
        },
        {
          "internalType": "address",
          "name": "_doctorAddress",
          "type": "address"
        },
        {
          "internalType": "string",
          "name": "_meetingDescription",
          "type": "string"
        },
        {
          "internalType": "uint256",
          "name": "_meetingTime",
          "type": "uint256"
        },
        {
          "internalType": "bool",
          "name": "_isVerified",
          "type": "bool"
        }
      ],
      "name": "createMeeting",
      "outputs": [],
      "stateMutability": "nonpayable",
      "type": "function"
    },
    {
      "inputs": [
        {
          "internalType": "address",
          "name": "_patientAddress",
          "type": "address"
        }
      ],
      "name": "getPatientMeetings",
      "outputs": [
        {
          "components": [
            {
              "internalType": "address",
              "name": "patientAddress",
              "type": "address"
            },
            {
              "internalType": "address",
              "name": "doctorAddress",
              "type": "address"
            },
            {
              "internalType": "uint256",
              "name": "meetingTime",
              "type": "uint256"
            },
            {
              "internalType": "string",
              "name": "meetingDescription",
              "type": "string"
            },
            {
              "internalType": "bool",
              "name": "isVerified",
              "type": "bool"
            }
          ],
          "internalType": "struct HealthSystem.Meeting[]",
          "name": "",
          "type": "tuple[]"
        }
      ],
      "stateMutability": "view",
      "type": "function",
      "constant": true
    },
    {
      "inputs": [
        {
          "internalType": "uint256",
          "name": "meetingIndex",
          "type": "uint256"
        }
      ],
      "name": "acceptMeeting",
      "outputs": [],
      "stateMutability": "nonpayable",
      "type": "function"
    },
    {
      "inputs": [
        {
          "internalType": "uint256",
          "name": "meetingIndex",
          "type": "uint256"
        }
      ],
      "name": "rejectMeeting",
      "outputs": [],
      "stateMutability": "nonpayable",
      "type": "function"
    },
    {
      "inputs": [
        {
          "internalType": "uint256",
          "name": "meetingIndex",
          "type": "uint256"
        }
      ],
      "name": "getMeeting",
      "outputs": [
        {
          "internalType": "address",
          "name": "",
          "type": "address"
        },
        {
          "internalType": "address",
          "name": "",
          "type": "address"
        },
        {
          "internalType": "uint256",
          "name": "",
          "type": "uint256"
        },
        {
          "internalType": "string",
          "name": "",
          "type": "string"
        },
        {
          "internalType": "bool",
          "name": "",
          "type": "bool"
        }
      ],
      "stateMutability": "view",
      "type": "function",
      "constant": true
    },
    {
      "inputs": [
        {
          "internalType": "address",
          "name": "_doctorAddress",
          "type": "address"
        }
      ],
      "name": "getDoctorMeetings",
      "outputs": [
        {
          "components": [
            {
              "internalType": "address",
              "name": "patientAddress",
              "type": "address"
            },
            {
              "internalType": "address",
              "name": "doctorAddress",
              "type": "address"
            },
            {
              "internalType": "uint256",
              "name": "meetingTime",
              "type": "uint256"
            },
            {
              "internalType": "string",
              "name": "meetingDescription",
              "type": "string"
            },
            {
              "internalType": "bool",
              "name": "isVerified",
              "type": "bool"
            }
          ],
          "internalType": "struct HealthSystem.Meeting[]",
          "name": "",
          "type": "tuple[]"
        }
      ],
      "stateMutability": "view",
      "type": "function",
      "constant": true
    },
    {
      "inputs": [
        {
          "internalType": "string",
          "name": "_firstName",
          "type": "string"
        },
        {
          "internalType": "string",
          "name": "_lastName",
          "type": "string"
        },
        {
          "internalType": "string",
          "name": "_dateOfBirth",
          "type": "string"
        },
        {
          "internalType": "string",
          "name": "_email",
          "type": "string"
        },
        {
          "internalType": "string",
          "name": "_gender",
          "type": "string"
        },
        {
          "internalType": "string",
          "name": "_patientAddress",
          "type": "string"
        },
        {
          "internalType": "string",
          "name": "_phoneNumber",
          "type": "string"
        },
        {
          "internalType": "string",
          "name": "_bloodgroup",
          "type": "string"
        },
        {
          "internalType": "address",
          "name": "_metaMaskAccount",
          "type": "address"
        },
        {
          "internalType": "string",
          "name": "_insuranceProvider",
          "type": "string"
        },
        {
          "internalType": "string",
          "name": "_policyNumber",
          "type": "string"
        }
      ],
      "name": "registerPatient",
      "outputs": [],
      "stateMutability": "nonpayable",
      "type": "function"
    },
    {
      "inputs": [
        {
          "internalType": "string",
          "name": "_firstName",
          "type": "string"
        },
        {
          "internalType": "string",
          "name": "_lastName",
          "type": "string"
        },
        {
          "internalType": "string",
          "name": "_dateOfBirth",
          "type": "string"
        },
        {
          "internalType": "string",
          "name": "_email",
          "type": "string"
        },
        {
          "internalType": "string",
          "name": "_doctorAddress",
          "type": "string"
        },
        {
          "internalType": "string",
          "name": "_phoneNumber",
          "type": "string"
        },
        {
          "internalType": "address",
          "name": "_metaMaskAccount",
          "type": "address"
        },
        {
          "internalType": "string",
          "name": "_specialization",
          "type": "string"
        },
        {
          "internalType": "string",
          "name": "_medicalLicenseNumber",
          "type": "string"
        },
        {
          "internalType": "string",
          "name": "_yearsOfExperience",
          "type": "string"
        }
      ],
      "name": "registerDoctor",
      "outputs": [],
      "stateMutability": "nonpayable",
      "type": "function"
    },
    {
      "inputs": [
        {
          "internalType": "address",
          "name": "_metaMaskAccount",
          "type": "address"
        },
        {
          "internalType": "string",
          "name": "_role",
          "type": "string"
        }
      ],
      "name": "registerAccount",
      "outputs": [],
      "stateMutability": "nonpayable",
      "type": "function"
    },
    {
      "inputs": [
        {
          "internalType": "address",
          "name": "_metaMaskAccount",
          "type": "address"
        }
      ],
      "name": "getPatient",
      "outputs": [
        {
          "components": [
            {
              "internalType": "string",
              "name": "firstName",
              "type": "string"
            },
            {
              "internalType": "string",
              "name": "lastName",
              "type": "string"
            },
            {
              "internalType": "string",
              "name": "dateOfBirth",
              "type": "string"
            },
            {
              "internalType": "string",
              "name": "email",
              "type": "string"
            },
            {
              "internalType": "string",
              "name": "gender",
              "type": "string"
            },
            {
              "internalType": "string",
              "name": "patientAddress",
              "type": "string"
            },
            {
              "internalType": "string",
              "name": "phoneNumber",
              "type": "string"
            },
            {
              "internalType": "string",
              "name": "bloodgroup",
              "type": "string"
            },
            {
              "internalType": "address",
              "name": "metaMaskAccount",
              "type": "address"
            },
            {
              "internalType": "string",
              "name": "insuranceProvider",
              "type": "string"
            },
            {
              "internalType": "string",
              "name": "policyNumber",
              "type": "string"
            }
          ],
          "internalType": "struct HealthSystem.Patient",
          "name": "",
          "type": "tuple"
        }
      ],
      "stateMutability": "view",
      "type": "function",
      "constant": true
    },
    {
      "inputs": [
        {
          "internalType": "address",
          "name": "_metaMaskAccount",
          "type": "address"
        }
      ],
      "name": "getDoctor",
      "outputs": [
        {
          "components": [
            {
              "internalType": "string",
              "name": "firstName",
              "type": "string"
            },
            {
              "internalType": "string",
              "name": "lastName",
              "type": "string"
            },
            {
              "internalType": "string",
              "name": "dateOfBirth",
              "type": "string"
            },
            {
              "internalType": "string",
              "name": "email",
              "type": "string"
            },
            {
              "internalType": "string",
              "name": "doctorAddress",
              "type": "string"
            },
            {
              "internalType": "string",
              "name": "phoneNumber",
              "type": "string"
            },
            {
              "internalType": "address",
              "name": "metaMaskAccount",
              "type": "address"
            },
            {
              "internalType": "string",
              "name": "specialization",
              "type": "string"
            },
            {
              "internalType": "string",
              "name": "medicalLicenseNumber",
              "type": "string"
            },
            {
              "internalType": "string",
              "name": "yearsOfExperience",
              "type": "string"
            }
          ],
          "internalType": "struct HealthSystem.Doctor",
          "name": "",
          "type": "tuple"
        }
      ],
      "stateMutability": "view",
      "type": "function",
      "constant": true
    },
    {
      "inputs": [
        {
          "internalType": "address",
          "name": "_metaMaskAccount",
          "type": "address"
        }
      ],
      "name": "getEmailByMetaMask",
      "outputs": [
        {
          "internalType": "string",
          "name": "",
          "type": "string"
        }
      ],
      "stateMutability": "view",
      "type": "function",
      "constant": true
    },
    {
      "inputs": [
        {
          "internalType": "address",
          "name": "_metaMaskAccount",
          "type": "address"
        }
      ],
      "name": "getAccount",
      "outputs": [
        {
          "components": [
            {
              "internalType": "address",
              "name": "metaMaskAccount",
              "type": "address"
            },
            {
              "internalType": "string",
              "name": "role",
              "type": "string"
            },
            {
              "internalType": "bool",
              "name": "isRegistered",
              "type": "bool"
            }
          ],
          "internalType": "struct HealthSystem.Account",
          "name": "",
          "type": "tuple"
        }
      ],
      "stateMutability": "view",
      "type": "function",
      "constant": true
    },
    {
      "inputs": [
        {
          "internalType": "address",
          "name": "_metaMaskAccount",
          "type": "address"
        }
      ],
      "name": "hasPersonalInfo",
      "outputs": [
        {
          "internalType": "bool",
          "name": "",
          "type": "bool"
        }
      ],
      "stateMutability": "view",
      "type": "function",
      "constant": true
    },
    {
      "inputs": [
        {
          "internalType": "address",
          "name": "_metaMaskAccount",
          "type": "address"
        }
      ],
      "name": "performAction",
      "outputs": [],
      "stateMutability": "view",
      "type": "function",
      "constant": true
    }
  ],
  "bytecode": "0x608060405234801561001057600080fd5b50615bf380620000216000396000f3fe608060405234801561001057600080fd5b506004361061012c5760003560e01c806366f301b0116100ad578063d0bbbf4b11610071578063d0bbbf4b146103a6578063da2a67ff146103c2578063ea3fc823146103f2578063f17245f914610422578063fbcbc0f1146104525761012c565b806366f301b0146102d15780638460168a146102ed578063a9583c2214610321578063b5368e201461035a578063c8c22b611461038a5761012c565b806327f69d66116100f457806327f69d66146101db57806328fce6ca1461020b5780632d703f881461023b5780632f04e0641461026f5780635e5c06e21461029f5761012c565b80630432764f146101315780630869cfbc1461014d57806310ff38821461018757806324736ccf146101a357806326159c12146101bf575b600080fd5b61014b60048036038101906101469190614458565b610482565b005b610167600480360381019061016291906144e3565b6105bc565b60405161017e9b9a999897969594939291906145b8565b60405180910390f35b6101a1600480360381019061019c91906147de565b610b86565b005b6101bd60048036038101906101b891906144e3565b610dee565b005b6101d960048036038101906101d4919061483a565b610eca565b005b6101f560048036038101906101f091906144e3565b6111f0565b6040516102029190614bd0565b60405180910390f35b610225600480360381019061022091906144e3565b6114b5565b6040516102329190614bf2565b60405180910390f35b61025560048036038101906102509190614458565b611586565b604051610266959493929190614c32565b60405180910390f35b610289600480360381019061028491906144e3565b611795565b6040516102969190614d9e565b60405180910390f35b6102b960048036038101906102b491906144e3565b611d67565b6040516102c893929190614dc0565b60405180910390f35b6102eb60048036038101906102e69190614e2a565b611e46565b005b61030760048036038101906103029190614458565b611fa4565b604051610318959493929190614c32565b60405180910390f35b61033b600480360381019061033691906144e3565b6120bf565b6040516103519a99989796959493929190614ec1565b60405180910390f35b610374600480360381019061036f91906144e3565b6125fb565b60405161038191906150ca565b60405180910390f35b6103a4600480360381019061039f9190614458565b612c5f565b005b6103c060048036038101906103bb91906150ec565b612d9a565b005b6103dc60048036038101906103d791906144e3565b6130e5565b6040516103e99190614bd0565b60405180910390f35b61040c600480360381019061040791906144e3565b6133aa565b6040516104199190614bf2565b60405180910390f35b61043c600480360381019061043791906144e3565b61344a565b60405161044991906152f8565b60405180910390f35b61046c600480360381019061046791906144e3565b6140a0565b6040516104799190615363565b60405180910390f35b60008054905081106104c9576040517f08c379a00000000000000000000000000000000000000000000000000000000081526004016104c0906153d1565b60405180910390fd5b600081815481106104dd576104dc6153f1565b5b906000526020600020906005020160010160009054906101000a900473ffffffffffffffffffffffffffffffffffffffff1673ffffffffffffffffffffffffffffffffffffffff163373ffffffffffffffffffffffffffffffffffffffff161461057c576040517f08c379a000000000000000000000000000000000000000000000000000000000815260040161057390615492565b60405180910390fd5b6000808281548110610591576105906153f1565b5b906000526020600020906005020160040160006101000a81548160ff02191690831515021790555050565b60026020528060005260406000206000915090508060000180546105df906154e1565b80601f016020809104026020016040519081016040528092919081815260200182805461060b906154e1565b80156106585780601f1061062d57610100808354040283529160200191610658565b820191906000526020600020905b81548152906001019060200180831161063b57829003601f168201915b50505050509080600101805461066d906154e1565b80601f0160208091040260200160405190810160405280929190818152602001828054610699906154e1565b80156106e65780601f106106bb576101008083540402835291602001916106e6565b820191906000526020600020905b8154815290600101906020018083116106c957829003601f168201915b5050505050908060020180546106fb906154e1565b80601f0160208091040260200160405190810160405280929190818152602001828054610727906154e1565b80156107745780601f1061074957610100808354040283529160200191610774565b820191906000526020600020905b81548152906001019060200180831161075757829003601f168201915b505050505090806003018054610789906154e1565b80601f01602080910402602001604051908101604052809291908181526020018280546107b5906154e1565b80156108025780601f106107d757610100808354040283529160200191610802565b820191906000526020600020905b8154815290600101906020018083116107e557829003601f168201915b505050505090806004018054610817906154e1565b80601f0160208091040260200160405190810160405280929190818152602001828054610843906154e1565b80156108905780601f1061086557610100808354040283529160200191610890565b820191906000526020600020905b81548152906001019060200180831161087357829003601f168201915b5050505050908060050180546108a5906154e1565b80601f01602080910402602001604051908101604052809291908181526020018280546108d1906154e1565b801561091e5780601f106108f35761010080835404028352916020019161091e565b820191906000526020600020905b81548152906001019060200180831161090157829003601f168201915b505050505090806006018054610933906154e1565b80601f016020809104026020016040519081016040528092919081815260200182805461095f906154e1565b80156109ac5780601f10610981576101008083540402835291602001916109ac565b820191906000526020600020905b81548152906001019060200180831161098f57829003601f168201915b5050505050908060070180546109c1906154e1565b80601f01602080910402602001604051908101604052809291908181526020018280546109ed906154e1565b8015610a3a5780601f10610a0f57610100808354040283529160200191610a3a565b820191906000526020600020905b815481529060010190602001808311610a1d57829003601f168201915b5050505050908060080160009054906101000a900473ffffffffffffffffffffffffffffffffffffffff1690806009018054610a75906154e1565b80601f0160208091040260200160405190810160405280929190818152602001828054610aa1906154e1565b8015610aee5780601f10610ac357610100808354040283529160200191610aee565b820191906000526020600020905b815481529060010190602001808311610ad157829003601f168201915b50505050509080600a018054610b03906154e1565b80601f0160208091040260200160405190810160405280929190818152602001828054610b2f906154e1565b8015610b7c5780601f10610b5157610100808354040283529160200191610b7c565b820191906000526020600020905b815481529060010190602001808311610b5f57829003601f168201915b505050505090508b565b600460008373ffffffffffffffffffffffffffffffffffffffff1673ffffffffffffffffffffffffffffffffffffffff16815260200190815260200160002060020160009054906101000a900460ff1615610c16576040517f08c379a0000000000000000000000000000000000000000000000000000000008152600401610c0d90615584565b60405180910390fd5b60405180606001604052808373ffffffffffffffffffffffffffffffffffffffff16815260200182815260200160011515815250600460008473ffffffffffffffffffffffffffffffffffffffff1673ffffffffffffffffffffffffffffffffffffffff16815260200190815260200160002060008201518160000160006101000a81548173ffffffffffffffffffffffffffffffffffffffff021916908373ffffffffffffffffffffffffffffffffffffffff1602179055506020820151816001019080519060200190610cec9291906141fc565b5060408201518160020160006101000a81548160ff0219169083151502179055509050508173ffffffffffffffffffffffffffffffffffffffff167f64f73046f77686e7ba3aebcaac09e4568d436c6968f446459528ce3ac8ccb60f82604051610d569190614bf2565b60405180910390a28173ffffffffffffffffffffffffffffffffffffffff167ffa083db9409b5197355745f366350bf24b6135c7ef2ff570f179861fd107b185600460008573ffffffffffffffffffffffffffffffffffffffff1673ffffffffffffffffffffffffffffffffffffffff168152602001908152602001600020604051610de2919061570e565b60405180910390a25050565b80600460008273ffffffffffffffffffffffffffffffffffffffff1673ffffffffffffffffffffffffffffffffffffffff16815260200190815260200160002060020160009054906101000a900460ff16610e7e576040517f08c379a0000000000000000000000000000000000000000000000000000000008152600401610e759061577c565b60405180910390fd5b610e878261344a565b610ec6576040517f08c379a0000000000000000000000000000000000000000000000000000000008152600401610ebd9061580e565b60405180910390fd5b5050565b6040518061014001604052808b81526020018a81526020018981526020018881526020018781526020018681526020018573ffffffffffffffffffffffffffffffffffffffff16815260200184815260200183815260200182815250600360008673ffffffffffffffffffffffffffffffffffffffff1673ffffffffffffffffffffffffffffffffffffffff1681526020019081526020016000206000820151816000019080519060200190610f819291906141fc565b506020820151816001019080519060200190610f9e9291906141fc565b506040820151816002019080519060200190610fbb9291906141fc565b506060820151816003019080519060200190610fd89291906141fc565b506080820151816004019080519060200190610ff59291906141fc565b5060a08201518160050190805190602001906110129291906141fc565b5060c08201518160060160006101000a81548173ffffffffffffffffffffffffffffffffffffffff021916908373ffffffffffffffffffffffffffffffffffffffff16021790555060e08201518160070190805190602001906110769291906141fc565b506101008201518160080190805190602001906110949291906141fc565b506101208201518160090190805190602001906110b29291906141fc565b5090505086600160008673ffffffffffffffffffffffffffffffffffffffff1673ffffffffffffffffffffffffffffffffffffffff16815260200190815260200160002090805190602001906111099291906141fc565b508373ffffffffffffffffffffffffffffffffffffffff167f20481b8112b5bf4734f45a473c373db9df6a79ce946cdc0e7dbc22b4f7d7f986886040516111509190614bf2565b60405180910390a28373ffffffffffffffffffffffffffffffffffffffff167f10c28cae0b1f35902e277fe1301d6797e5f9ba724013e7bf14101dff2d4175ef600360008773ffffffffffffffffffffffffffffffffffffffff1673ffffffffffffffffffffffffffffffffffffffff1681526020019081526020016000206040516111dc9190615942565b60405180910390a250505050505050505050565b60606000808054905067ffffffffffffffff811115611212576112116146b3565b5b60405190808252806020026020018201604052801561124b57816020015b611238614282565b8152602001906001900390816112305790505b5090506000805b6000805490508110156114a7578473ffffffffffffffffffffffffffffffffffffffff166000828154811061128a576112896153f1565b5b906000526020600020906005020160010160009054906101000a900473ffffffffffffffffffffffffffffffffffffffff1673ffffffffffffffffffffffffffffffffffffffff160361149457600081815481106112eb576112ea6153f1565b5b90600052602060002090600502016040518060a00160405290816000820160009054906101000a900473ffffffffffffffffffffffffffffffffffffffff1673ffffffffffffffffffffffffffffffffffffffff1673ffffffffffffffffffffffffffffffffffffffff1681526020016001820160009054906101000a900473ffffffffffffffffffffffffffffffffffffffff1673ffffffffffffffffffffffffffffffffffffffff1673ffffffffffffffffffffffffffffffffffffffff168152602001600282015481526020016003820180546113ca906154e1565b80601f01602080910402602001604051908101604052809291908181526020018280546113f6906154e1565b80156114435780601f1061141857610100808354040283529160200191611443565b820191906000526020600020905b81548152906001019060200180831161142657829003601f168201915b505050505081526020016004820160009054906101000a900460ff16151515158152505083838151811061147a576114796153f1565b5b6020026020010181905250818061149090615993565b9250505b808061149f90615993565b915050611252565b508082528192505050919050565b6060600160008373ffffffffffffffffffffffffffffffffffffffff1673ffffffffffffffffffffffffffffffffffffffff1681526020019081526020016000208054611501906154e1565b80601f016020809104026020016040519081016040528092919081815260200182805461152d906154e1565b801561157a5780601f1061154f5761010080835404028352916020019161157a565b820191906000526020600020905b81548152906001019060200180831161155d57829003601f168201915b50505050509050919050565b600080600060606000808054905086106115d5576040517f08c379a00000000000000000000000000000000000000000000000000000000081526004016115cc906153d1565b60405180910390fd5b60008087815481106115ea576115e96153f1565b5b90600052602060002090600502016040518060a00160405290816000820160009054906101000a900473ffffffffffffffffffffffffffffffffffffffff1673ffffffffffffffffffffffffffffffffffffffff1673ffffffffffffffffffffffffffffffffffffffff1681526020016001820160009054906101000a900473ffffffffffffffffffffffffffffffffffffffff1673ffffffffffffffffffffffffffffffffffffffff1673ffffffffffffffffffffffffffffffffffffffff168152602001600282015481526020016003820180546116c9906154e1565b80601f01602080910402602001604051908101604052809291908181526020018280546116f5906154e1565b80156117425780601f1061171757610100808354040283529160200191611742565b820191906000526020600020905b81548152906001019060200180831161172557829003601f168201915b505050505081526020016004820160009054906101000a900460ff161515151581525050905080600001518160200151826040015183606001518460800151955095509550955095505091939590929450565b61179d6142df565b600360008373ffffffffffffffffffffffffffffffffffffffff1673ffffffffffffffffffffffffffffffffffffffff168152602001908152602001600020604051806101400160405290816000820180546117f8906154e1565b80601f0160208091040260200160405190810160405280929190818152602001828054611824906154e1565b80156118715780601f1061184657610100808354040283529160200191611871565b820191906000526020600020905b81548152906001019060200180831161185457829003601f168201915b5050505050815260200160018201805461188a906154e1565b80601f01602080910402602001604051908101604052809291908181526020018280546118b6906154e1565b80156119035780601f106118d857610100808354040283529160200191611903565b820191906000526020600020905b8154815290600101906020018083116118e657829003601f168201915b5050505050815260200160028201805461191c906154e1565b80601f0160208091040260200160405190810160405280929190818152602001828054611948906154e1565b80156119955780601f1061196a57610100808354040283529160200191611995565b820191906000526020600020905b81548152906001019060200180831161197857829003601f168201915b505050505081526020016003820180546119ae906154e1565b80601f01602080910402602001604051908101604052809291908181526020018280546119da906154e1565b8015611a275780601f106119fc57610100808354040283529160200191611a27565b820191906000526020600020905b815481529060010190602001808311611a0a57829003601f168201915b50505050508152602001600482018054611a40906154e1565b80601f0160208091040260200160405190810160405280929190818152602001828054611a6c906154e1565b8015611ab95780601f10611a8e57610100808354040283529160200191611ab9565b820191906000526020600020905b815481529060010190602001808311611a9c57829003601f168201915b50505050508152602001600582018054611ad2906154e1565b80601f0160208091040260200160405190810160405280929190818152602001828054611afe906154e1565b8015611b4b5780601f10611b2057610100808354040283529160200191611b4b565b820191906000526020600020905b815481529060010190602001808311611b2e57829003601f168201915b505050505081526020016006820160009054906101000a900473ffffffffffffffffffffffffffffffffffffffff1673ffffffffffffffffffffffffffffffffffffffff1673ffffffffffffffffffffffffffffffffffffffff168152602001600782018054611bba906154e1565b80601f0160208091040260200160405190810160405280929190818152602001828054611be6906154e1565b8015611c335780601f10611c0857610100808354040283529160200191611c33565b820191906000526020600020905b815481529060010190602001808311611c1657829003601f168201915b50505050508152602001600882018054611c4c906154e1565b80601f0160208091040260200160405190810160405280929190818152602001828054611c78906154e1565b8015611cc55780601f10611c9a57610100808354040283529160200191611cc5565b820191906000526020600020905b815481529060010190602001808311611ca857829003601f168201915b50505050508152602001600982018054611cde906154e1565b80601f0160208091040260200160405190810160405280929190818152602001828054611d0a906154e1565b8015611d575780601f10611d2c57610100808354040283529160200191611d57565b820191906000526020600020905b815481529060010190602001808311611d3a57829003601f168201915b5050505050815250509050919050565b60046020528060005260406000206000915090508060000160009054906101000a900473ffffffffffffffffffffffffffffffffffffffff1690806001018054611db0906154e1565b80601f0160208091040260200160405190810160405280929190818152602001828054611ddc906154e1565b8015611e295780601f10611dfe57610100808354040283529160200191611e29565b820191906000526020600020905b815481529060010190602001808311611e0c57829003601f168201915b5050505050908060020160009054906101000a900460ff16905083565b60006040518060a001604052808773ffffffffffffffffffffffffffffffffffffffff1681526020018673ffffffffffffffffffffffffffffffffffffffff168152602001848152602001858152602001831515815250908060018154018082558091505060019003906000526020600020906005020160009091909190915060008201518160000160006101000a81548173ffffffffffffffffffffffffffffffffffffffff021916908373ffffffffffffffffffffffffffffffffffffffff16021790555060208201518160010160006101000a81548173ffffffffffffffffffffffffffffffffffffffff021916908373ffffffffffffffffffffffffffffffffffffffff160217905550604082015181600201556060820151816003019080519060200190611f7a9291906141fc565b5060808201518160040160006101000a81548160ff02191690831515021790555050505050505050565b60008181548110611fb457600080fd5b90600052602060002090600502016000915090508060000160009054906101000a900473ffffffffffffffffffffffffffffffffffffffff16908060010160009054906101000a900473ffffffffffffffffffffffffffffffffffffffff1690806002015490806003018054612029906154e1565b80601f0160208091040260200160405190810160405280929190818152602001828054612055906154e1565b80156120a25780601f10612077576101008083540402835291602001916120a2565b820191906000526020600020905b81548152906001019060200180831161208557829003601f168201915b5050505050908060040160009054906101000a900460ff16905085565b60036020528060005260406000206000915090508060000180546120e2906154e1565b80601f016020809104026020016040519081016040528092919081815260200182805461210e906154e1565b801561215b5780601f106121305761010080835404028352916020019161215b565b820191906000526020600020905b81548152906001019060200180831161213e57829003601f168201915b505050505090806001018054612170906154e1565b80601f016020809104026020016040519081016040528092919081815260200182805461219c906154e1565b80156121e95780601f106121be576101008083540402835291602001916121e9565b820191906000526020600020905b8154815290600101906020018083116121cc57829003601f168201915b5050505050908060020180546121fe906154e1565b80601f016020809104026020016040519081016040528092919081815260200182805461222a906154e1565b80156122775780601f1061224c57610100808354040283529160200191612277565b820191906000526020600020905b81548152906001019060200180831161225a57829003601f168201915b50505050509080600301805461228c906154e1565b80601f01602080910402602001604051908101604052809291908181526020018280546122b8906154e1565b80156123055780601f106122da57610100808354040283529160200191612305565b820191906000526020600020905b8154815290600101906020018083116122e857829003601f168201915b50505050509080600401805461231a906154e1565b80601f0160208091040260200160405190810160405280929190818152602001828054612346906154e1565b80156123935780601f1061236857610100808354040283529160200191612393565b820191906000526020600020905b81548152906001019060200180831161237657829003601f168201915b5050505050908060050180546123a8906154e1565b80601f01602080910402602001604051908101604052809291908181526020018280546123d4906154e1565b80156124215780601f106123f657610100808354040283529160200191612421565b820191906000526020600020905b81548152906001019060200180831161240457829003601f168201915b5050505050908060060160009054906101000a900473ffffffffffffffffffffffffffffffffffffffff169080600701805461245c906154e1565b80601f0160208091040260200160405190810160405280929190818152602001828054612488906154e1565b80156124d55780601f106124aa576101008083540402835291602001916124d5565b820191906000526020600020905b8154815290600101906020018083116124b857829003601f168201915b5050505050908060080180546124ea906154e1565b80601f0160208091040260200160405190810160405280929190818152602001828054612516906154e1565b80156125635780601f1061253857610100808354040283529160200191612563565b820191906000526020600020905b81548152906001019060200180831161254657829003601f168201915b505050505090806009018054612578906154e1565b80601f01602080910402602001604051908101604052809291908181526020018280546125a4906154e1565b80156125f15780601f106125c6576101008083540402835291602001916125f1565b820191906000526020600020905b8154815290600101906020018083116125d457829003601f168201915b505050505090508a565b612603614348565b600260008373ffffffffffffffffffffffffffffffffffffffff1673ffffffffffffffffffffffffffffffffffffffff1681526020019081526020016000206040518061016001604052908160008201805461265e906154e1565b80601f016020809104026020016040519081016040528092919081815260200182805461268a906154e1565b80156126d75780601f106126ac576101008083540402835291602001916126d7565b820191906000526020600020905b8154815290600101906020018083116126ba57829003601f168201915b505050505081526020016001820180546126f0906154e1565b80601f016020809104026020016040519081016040528092919081815260200182805461271c906154e1565b80156127695780601f1061273e57610100808354040283529160200191612769565b820191906000526020600020905b81548152906001019060200180831161274c57829003601f168201915b50505050508152602001600282018054612782906154e1565b80601f01602080910402602001604051908101604052809291908181526020018280546127ae906154e1565b80156127fb5780601f106127d0576101008083540402835291602001916127fb565b820191906000526020600020905b8154815290600101906020018083116127de57829003601f168201915b50505050508152602001600382018054612814906154e1565b80601f0160208091040260200160405190810160405280929190818152602001828054612840906154e1565b801561288d5780601f106128625761010080835404028352916020019161288d565b820191906000526020600020905b81548152906001019060200180831161287057829003601f168201915b505050505081526020016004820180546128a6906154e1565b80601f01602080910402602001604051908101604052809291908181526020018280546128d2906154e1565b801561291f5780601f106128f45761010080835404028352916020019161291f565b820191906000526020600020905b81548152906001019060200180831161290257829003601f168201915b50505050508152602001600582018054612938906154e1565b80601f0160208091040260200160405190810160405280929190818152602001828054612964906154e1565b80156129b15780601f10612986576101008083540402835291602001916129b1565b820191906000526020600020905b81548152906001019060200180831161299457829003601f168201915b505050505081526020016006820180546129ca906154e1565b80601f01602080910402602001604051908101604052809291908181526020018280546129f6906154e1565b8015612a435780601f10612a1857610100808354040283529160200191612a43565b820191906000526020600020905b815481529060010190602001808311612a2657829003601f168201915b50505050508152602001600782018054612a5c906154e1565b80601f0160208091040260200160405190810160405280929190818152602001828054612a88906154e1565b8015612ad55780601f10612aaa57610100808354040283529160200191612ad5565b820191906000526020600020905b815481529060010190602001808311612ab857829003601f168201915b505050505081526020016008820160009054906101000a900473ffffffffffffffffffffffffffffffffffffffff1673ffffffffffffffffffffffffffffffffffffffff1673ffffffffffffffffffffffffffffffffffffffff168152602001600982018054612b44906154e1565b80601f0160208091040260200160405190810160405280929190818152602001828054612b70906154e1565b8015612bbd5780601f10612b9257610100808354040283529160200191612bbd565b820191906000526020600020905b815481529060010190602001808311612ba057829003601f168201915b50505050508152602001600a82018054612bd6906154e1565b80601f0160208091040260200160405190810160405280929190818152602001828054612c02906154e1565b8015612c4f5780601f10612c2457610100808354040283529160200191612c4f565b820191906000526020600020905b815481529060010190602001808311612c3257829003601f168201915b5050505050815250509050919050565b6000805490508110612ca6576040517f08c379a0000000000000000000000000000000000000000000000000000000008152600401612c9d906153d1565b60405180910390fd5b60008181548110612cba57612cb96153f1565b5b906000526020600020906005020160010160009054906101000a900473ffffffffffffffffffffffffffffffffffffffff1673ffffffffffffffffffffffffffffffffffffffff163373ffffffffffffffffffffffffffffffffffffffff1614612d59576040517f08c379a0000000000000000000000000000000000000000000000000000000008152600401612d5090615a4d565b60405180910390fd5b600160008281548110612d6f57612d6e6153f1565b5b906000526020600020906005020160040160006101000a81548160ff02191690831515021790555050565b6040518061016001604052808c81526020018b81526020018a81526020018981526020018881526020018781526020018681526020018581526020018473ffffffffffffffffffffffffffffffffffffffff16815260200183815260200182815250600260008573ffffffffffffffffffffffffffffffffffffffff1673ffffffffffffffffffffffffffffffffffffffff1681526020019081526020016000206000820151816000019080519060200190612e579291906141fc565b506020820151816001019080519060200190612e749291906141fc565b506040820151816002019080519060200190612e919291906141fc565b506060820151816003019080519060200190612eae9291906141fc565b506080820151816004019080519060200190612ecb9291906141fc565b5060a0820151816005019080519060200190612ee89291906141fc565b5060c0820151816006019080519060200190612f059291906141fc565b5060e0820151816007019080519060200190612f229291906141fc565b506101008201518160080160006101000a81548173ffffffffffffffffffffffffffffffffffffffff021916908373ffffffffffffffffffffffffffffffffffffffff160217905550610120820151816009019080519060200190612f889291906141fc565b5061014082015181600a019080519060200190612fa69291906141fc565b5090505087600160008573ffffffffffffffffffffffffffffffffffffffff1673ffffffffffffffffffffffffffffffffffffffff1681526020019081526020016000209080519060200190612ffd9291906141fc565b508273ffffffffffffffffffffffffffffffffffffffff167fc85b128388b9c331a2a5485dce4cd0f3db9f7c279d327ce95d6d39d6c94644c7896040516130449190614bf2565b60405180910390a28273ffffffffffffffffffffffffffffffffffffffff167f0cdc4407c9dcc11c0d05b4ee0ec812e97f49258c780bee88b720bb3191c870bb600260008673ffffffffffffffffffffffffffffffffffffffff1673ffffffffffffffffffffffffffffffffffffffff1681526020019081526020016000206040516130d09190615b9b565b60405180910390a25050505050505050505050565b60606000808054905067ffffffffffffffff811115613107576131066146b3565b5b60405190808252806020026020018201604052801561314057816020015b61312d614282565b8152602001906001900390816131255790505b5090506000805b60008054905081101561339c578473ffffffffffffffffffffffffffffffffffffffff166000828154811061317f5761317e6153f1565b5b906000526020600020906005020160000160009054906101000a900473ffffffffffffffffffffffffffffffffffffffff1673ffffffffffffffffffffffffffffffffffffffff160361338957600081815481106131e0576131df6153f1565b5b90600052602060002090600502016040518060a00160405290816000820160009054906101000a900473ffffffffffffffffffffffffffffffffffffffff1673ffffffffffffffffffffffffffffffffffffffff1673ffffffffffffffffffffffffffffffffffffffff1681526020016001820160009054906101000a900473ffffffffffffffffffffffffffffffffffffffff1673ffffffffffffffffffffffffffffffffffffffff1673ffffffffffffffffffffffffffffffffffffffff168152602001600282015481526020016003820180546132bf906154e1565b80601f01602080910402602001604051908101604052809291908181526020018280546132eb906154e1565b80156133385780601f1061330d57610100808354040283529160200191613338565b820191906000526020600020905b81548152906001019060200180831161331b57829003601f168201915b505050505081526020016004820160009054906101000a900460ff16151515158152505083838151811061336f5761336e6153f1565b5b6020026020010181905250818061338590615993565b9250505b808061339490615993565b915050613147565b508082528192505050919050565b600160205280600052604060002060009150905080546133c9906154e1565b80601f01602080910402602001604051908101604052809291908181526020018280546133f5906154e1565b80156134425780601f1061341757610100808354040283529160200191613442565b820191906000526020600020905b81548152906001019060200180831161342557829003601f168201915b505050505081565b600080600260008473ffffffffffffffffffffffffffffffffffffffff1673ffffffffffffffffffffffffffffffffffffffff168152602001908152602001600020604051806101600160405290816000820180546134a8906154e1565b80601f01602080910402602001604051908101604052809291908181526020018280546134d4906154e1565b80156135215780601f106134f657610100808354040283529160200191613521565b820191906000526020600020905b81548152906001019060200180831161350457829003601f168201915b5050505050815260200160018201805461353a906154e1565b80601f0160208091040260200160405190810160405280929190818152602001828054613566906154e1565b80156135b35780601f10613588576101008083540402835291602001916135b3565b820191906000526020600020905b81548152906001019060200180831161359657829003601f168201915b505050505081526020016002820180546135cc906154e1565b80601f01602080910402602001604051908101604052809291908181526020018280546135f8906154e1565b80156136455780601f1061361a57610100808354040283529160200191613645565b820191906000526020600020905b81548152906001019060200180831161362857829003601f168201915b5050505050815260200160038201805461365e906154e1565b80601f016020809104026020016040519081016040528092919081815260200182805461368a906154e1565b80156136d75780601f106136ac576101008083540402835291602001916136d7565b820191906000526020600020905b8154815290600101906020018083116136ba57829003601f168201915b505050505081526020016004820180546136f0906154e1565b80601f016020809104026020016040519081016040528092919081815260200182805461371c906154e1565b80156137695780601f1061373e57610100808354040283529160200191613769565b820191906000526020600020905b81548152906001019060200180831161374c57829003601f168201915b50505050508152602001600582018054613782906154e1565b80601f01602080910402602001604051908101604052809291908181526020018280546137ae906154e1565b80156137fb5780601f106137d0576101008083540402835291602001916137fb565b820191906000526020600020905b8154815290600101906020018083116137de57829003601f168201915b50505050508152602001600682018054613814906154e1565b80601f0160208091040260200160405190810160405280929190818152602001828054613840906154e1565b801561388d5780601f106138625761010080835404028352916020019161388d565b820191906000526020600020905b81548152906001019060200180831161387057829003601f168201915b505050505081526020016007820180546138a6906154e1565b80601f01602080910402602001604051908101604052809291908181526020018280546138d2906154e1565b801561391f5780601f106138f45761010080835404028352916020019161391f565b820191906000526020600020905b81548152906001019060200180831161390257829003601f168201915b505050505081526020016008820160009054906101000a900473ffffffffffffffffffffffffffffffffffffffff1673ffffffffffffffffffffffffffffffffffffffff1673ffffffffffffffffffffffffffffffffffffffff16815260200160098201805461398e906154e1565b80601f01602080910402602001604051908101604052809291908181526020018280546139ba906154e1565b8015613a075780601f106139dc57610100808354040283529160200191613a07565b820191906000526020600020905b8154815290600101906020018083116139ea57829003601f168201915b50505050508152602001600a82018054613a20906154e1565b80601f0160208091040260200160405190810160405280929190818152602001828054613a4c906154e1565b8015613a995780601f10613a6e57610100808354040283529160200191613a99565b820191906000526020600020905b815481529060010190602001808311613a7c57829003601f168201915b50505050508152505090506000600360008573ffffffffffffffffffffffffffffffffffffffff1673ffffffffffffffffffffffffffffffffffffffff16815260200190815260200160002060405180610140016040529081600082018054613b01906154e1565b80601f0160208091040260200160405190810160405280929190818152602001828054613b2d906154e1565b8015613b7a5780601f10613b4f57610100808354040283529160200191613b7a565b820191906000526020600020905b815481529060010190602001808311613b5d57829003601f168201915b50505050508152602001600182018054613b93906154e1565b80601f0160208091040260200160405190810160405280929190818152602001828054613bbf906154e1565b8015613c0c5780601f10613be157610100808354040283529160200191613c0c565b820191906000526020600020905b815481529060010190602001808311613bef57829003601f168201915b50505050508152602001600282018054613c25906154e1565b80601f0160208091040260200160405190810160405280929190818152602001828054613c51906154e1565b8015613c9e5780601f10613c7357610100808354040283529160200191613c9e565b820191906000526020600020905b815481529060010190602001808311613c8157829003601f168201915b50505050508152602001600382018054613cb7906154e1565b80601f0160208091040260200160405190810160405280929190818152602001828054613ce3906154e1565b8015613d305780601f10613d0557610100808354040283529160200191613d30565b820191906000526020600020905b815481529060010190602001808311613d1357829003601f168201915b50505050508152602001600482018054613d49906154e1565b80601f0160208091040260200160405190810160405280929190818152602001828054613d75906154e1565b8015613dc25780601f10613d9757610100808354040283529160200191613dc2565b820191906000526020600020905b815481529060010190602001808311613da557829003601f168201915b50505050508152602001600582018054613ddb906154e1565b80601f0160208091040260200160405190810160405280929190818152602001828054613e07906154e1565b8015613e545780601f10613e2957610100808354040283529160200191613e54565b820191906000526020600020905b815481529060010190602001808311613e3757829003601f168201915b505050505081526020016006820160009054906101000a900473ffffffffffffffffffffffffffffffffffffffff1673ffffffffffffffffffffffffffffffffffffffff1673ffffffffffffffffffffffffffffffffffffffff168152602001600782018054613ec3906154e1565b80601f0160208091040260200160405190810160405280929190818152602001828054613eef906154e1565b8015613f3c5780601f10613f1157610100808354040283529160200191613f3c565b820191906000526020600020905b815481529060010190602001808311613f1f57829003601f168201915b50505050508152602001600882018054613f55906154e1565b80601f0160208091040260200160405190810160405280929190818152602001828054613f81906154e1565b8015613fce5780601f10613fa357610100808354040283529160200191613fce565b820191906000526020600020905b815481529060010190602001808311613fb157829003601f168201915b50505050508152602001600982018054613fe7906154e1565b80601f0160208091040260200160405190810160405280929190818152602001828054614013906154e1565b80156140605780601f1061403557610100808354040283529160200191614060565b820191906000526020600020905b81548152906001019060200180831161404357829003601f168201915b50505050508152505090506000826000015151118061408457506000816000015151115b156140945760019250505061409b565b6000925050505b919050565b6140a86143b8565b600460008373ffffffffffffffffffffffffffffffffffffffff1673ffffffffffffffffffffffffffffffffffffffff1681526020019081526020016000206040518060600160405290816000820160009054906101000a900473ffffffffffffffffffffffffffffffffffffffff1673ffffffffffffffffffffffffffffffffffffffff1673ffffffffffffffffffffffffffffffffffffffff168152602001600182018054614158906154e1565b80601f0160208091040260200160405190810160405280929190818152602001828054614184906154e1565b80156141d15780601f106141a6576101008083540402835291602001916141d1565b820191906000526020600020905b8154815290600101906020018083116141b457829003601f168201915b505050505081526020016002820160009054906101000a900460ff1615151515815250509050919050565b828054614208906154e1565b90600052602060002090601f01602090048101928261422a5760008555614271565b82601f1061424357805160ff1916838001178555614271565b82800160010185558215614271579182015b82811115614270578251825591602001919060010190614255565b5b50905061427e91906143f1565b5090565b6040518060a00160405280600073ffffffffffffffffffffffffffffffffffffffff168152602001600073ffffffffffffffffffffffffffffffffffffffff16815260200160008152602001606081526020016000151581525090565b604051806101400160405280606081526020016060815260200160608152602001606081526020016060815260200160608152602001600073ffffffffffffffffffffffffffffffffffffffff1681526020016060815260200160608152602001606081525090565b6040518061016001604052806060815260200160608152602001606081526020016060815260200160608152602001606081526020016060815260200160608152602001600073ffffffffffffffffffffffffffffffffffffffff16815260200160608152602001606081525090565b6040518060600160405280600073ffffffffffffffffffffffffffffffffffffffff168152602001606081526020016000151581525090565b5b8082111561440a5760008160009055506001016143f2565b5090565b6000604051905090565b600080fd5b600080fd5b6000819050919050565b61443581614422565b811461444057600080fd5b50565b6000813590506144528161442c565b92915050565b60006020828403121561446e5761446d614418565b5b600061447c84828501614443565b91505092915050565b600073ffffffffffffffffffffffffffffffffffffffff82169050919050565b60006144b082614485565b9050919050565b6144c0816144a5565b81146144cb57600080fd5b50565b6000813590506144dd816144b7565b92915050565b6000602082840312156144f9576144f8614418565b5b6000614507848285016144ce565b91505092915050565b600081519050919050565b600082825260208201905092915050565b60005b8381101561454a57808201518184015260208101905061452f565b83811115614559576000848401525b50505050565b6000601f19601f8301169050919050565b600061457b82614510565b614585818561451b565b935061459581856020860161452c565b61459e8161455f565b840191505092915050565b6145b2816144a5565b82525050565b60006101608201905081810360008301526145d3818e614570565b905081810360208301526145e7818d614570565b905081810360408301526145fb818c614570565b9050818103606083015261460f818b614570565b90508181036080830152614623818a614570565b905081810360a08301526146378189614570565b905081810360c083015261464b8188614570565b905081810360e083015261465f8187614570565b905061466f6101008301866145a9565b8181036101208301526146828185614570565b90508181036101408301526146978184614570565b90509c9b505050505050505050505050565b600080fd5b600080fd5b7f4e487b7100000000000000000000000000000000000000000000000000000000600052604160045260246000fd5b6146eb8261455f565b810181811067ffffffffffffffff8211171561470a576147096146b3565b5b80604052505050565b600061471d61440e565b905061472982826146e2565b919050565b600067ffffffffffffffff821115614749576147486146b3565b5b6147528261455f565b9050602081019050919050565b82818337600083830152505050565b600061478161477c8461472e565b614713565b90508281526020810184848401111561479d5761479c6146ae565b5b6147a884828561475f565b509392505050565b600082601f8301126147c5576147c46146a9565b5b81356147d584826020860161476e565b91505092915050565b600080604083850312156147f5576147f4614418565b5b6000614803858286016144ce565b925050602083013567ffffffffffffffff8111156148245761482361441d565b5b614830858286016147b0565b9150509250929050565b6000806000806000806000806000806101408b8d03121561485e5761485d614418565b5b60008b013567ffffffffffffffff81111561487c5761487b61441d565b5b6148888d828e016147b0565b9a505060208b013567ffffffffffffffff8111156148a9576148a861441d565b5b6148b58d828e016147b0565b99505060408b013567ffffffffffffffff8111156148d6576148d561441d565b5b6148e28d828e016147b0565b98505060608b013567ffffffffffffffff8111156149035761490261441d565b5b61490f8d828e016147b0565b97505060808b013567ffffffffffffffff8111156149305761492f61441d565b5b61493c8d828e016147b0565b96505060a08b013567ffffffffffffffff81111561495d5761495c61441d565b5b6149698d828e016147b0565b95505060c061497a8d828e016144ce565b94505060e08b013567ffffffffffffffff81111561499b5761499a61441d565b5b6149a78d828e016147b0565b9350506101008b013567ffffffffffffffff8111156149c9576149c861441d565b5b6149d58d828e016147b0565b9250506101208b013567ffffffffffffffff8111156149f7576149f661441d565b5b614a038d828e016147b0565b9150509295989b9194979a5092959850565b600081519050919050565b600082825260208201905092915050565b6000819050602082019050919050565b614a4a816144a5565b82525050565b614a5981614422565b82525050565b600082825260208201905092915050565b6000614a7b82614510565b614a858185614a5f565b9350614a9581856020860161452c565b614a9e8161455f565b840191505092915050565b60008115159050919050565b614abe81614aa9565b82525050565b600060a083016000830151614adc6000860182614a41565b506020830151614aef6020860182614a41565b506040830151614b026040860182614a50565b5060608301518482036060860152614b1a8282614a70565b9150506080830151614b2f6080860182614ab5565b508091505092915050565b6000614b468383614ac4565b905092915050565b6000602082019050919050565b6000614b6682614a15565b614b708185614a20565b935083602082028501614b8285614a31565b8060005b85811015614bbe5784840389528151614b9f8582614b3a565b9450614baa83614b4e565b925060208a01995050600181019050614b86565b50829750879550505050505092915050565b60006020820190508181036000830152614bea8184614b5b565b905092915050565b60006020820190508181036000830152614c0c8184614570565b905092915050565b614c1d81614422565b82525050565b614c2c81614aa9565b82525050565b600060a082019050614c4760008301886145a9565b614c5460208301876145a9565b614c616040830186614c14565b8181036060830152614c738185614570565b9050614c826080830184614c23565b9695505050505050565b6000610140830160008301518482036000860152614caa8282614a70565b91505060208301518482036020860152614cc48282614a70565b91505060408301518482036040860152614cde8282614a70565b91505060608301518482036060860152614cf88282614a70565b91505060808301518482036080860152614d128282614a70565b91505060a083015184820360a0860152614d2c8282614a70565b91505060c0830151614d4160c0860182614a41565b5060e083015184820360e0860152614d598282614a70565b915050610100830151848203610100860152614d758282614a70565b915050610120830151848203610120860152614d918282614a70565b9150508091505092915050565b60006020820190508181036000830152614db88184614c8c565b905092915050565b6000606082019050614dd560008301866145a9565b8181036020830152614de78185614570565b9050614df66040830184614c23565b949350505050565b614e0781614aa9565b8114614e1257600080fd5b50565b600081359050614e2481614dfe565b92915050565b600080600080600060a08688031215614e4657614e45614418565b5b6000614e54888289016144ce565b9550506020614e65888289016144ce565b945050604086013567ffffffffffffffff811115614e8657614e8561441d565b5b614e92888289016147b0565b9350506060614ea388828901614443565b9250506080614eb488828901614e15565b9150509295509295909350565b6000610140820190508181036000830152614edc818d614570565b90508181036020830152614ef0818c614570565b90508181036040830152614f04818b614570565b90508181036060830152614f18818a614570565b90508181036080830152614f2c8189614570565b905081810360a0830152614f408188614570565b9050614f4f60c08301876145a9565b81810360e0830152614f618186614570565b9050818103610100830152614f768185614570565b9050818103610120830152614f8b8184614570565b90509b9a5050505050505050505050565b6000610160830160008301518482036000860152614fba8282614a70565b91505060208301518482036020860152614fd48282614a70565b91505060408301518482036040860152614fee8282614a70565b915050606083015184820360608601526150088282614a70565b915050608083015184820360808601526150228282614a70565b91505060a083015184820360a086015261503c8282614a70565b91505060c083015184820360c08601526150568282614a70565b91505060e083015184820360e08601526150708282614a70565b915050610100830151615087610100860182614a41565b506101208301518482036101208601526150a18282614a70565b9150506101408301518482036101408601526150bd8282614a70565b9150508091505092915050565b600060208201905081810360008301526150e48184614f9c565b905092915050565b60008060008060008060008060008060006101608c8e03121561511257615111614418565b5b60008c013567ffffffffffffffff8111156151305761512f61441d565b5b61513c8e828f016147b0565b9b505060208c013567ffffffffffffffff81111561515d5761515c61441d565b5b6151698e828f016147b0565b9a505060408c013567ffffffffffffffff81111561518a5761518961441d565b5b6151968e828f016147b0565b99505060608c013567ffffffffffffffff8111156151b7576151b661441d565b5b6151c38e828f016147b0565b98505060808c013567ffffffffffffffff8111156151e4576151e361441d565b5b6151f08e828f016147b0565b97505060a08c013567ffffffffffffffff8111156152115761521061441d565b5b61521d8e828f016147b0565b96505060c08c013567ffffffffffffffff81111561523e5761523d61441d565b5b61524a8e828f016147b0565b95505060e08c013567ffffffffffffffff81111561526b5761526a61441d565b5b6152778e828f016147b0565b9450506101006152898e828f016144ce565b9350506101208c013567ffffffffffffffff8111156152ab576152aa61441d565b5b6152b78e828f016147b0565b9250506101408c013567ffffffffffffffff8111156152d9576152d861441d565b5b6152e58e828f016147b0565b9150509295989b509295989b9093969950565b600060208201905061530d6000830184614c23565b92915050565b600060608301600083015161532b6000860182614a41565b50602083015184820360208601526153438282614a70565b91505060408301516153586040860182614ab5565b508091505092915050565b6000602082019050818103600083015261537d8184615313565b905092915050565b7f496e76616c6964206d656574696e6720696e6465780000000000000000000000600082015250565b60006153bb60158361451b565b91506153c682615385565b602082019050919050565b600060208201905081810360008301526153ea816153ae565b9050919050565b7f4e487b7100000000000000000000000000000000000000000000000000000000600052603260045260246000fd5b7f4f6e6c792074686520646f63746f722063616e2072656a65637420746865206d60008201527f656574696e670000000000000000000000000000000000000000000000000000602082015250565b600061547c60268361451b565b915061548782615420565b604082019050919050565b600060208201905081810360008301526154ab8161546f565b9050919050565b7f4e487b7100000000000000000000000000000000000000000000000000000000600052602260045260246000fd5b600060028204905060018216806154f957607f821691505b60208210810361550c5761550b6154b2565b5b50919050565b7f4163636f756e7420616c726561647920686173206120726f6c6520726567697360008201527f7465726564000000000000000000000000000000000000000000000000000000602082015250565b600061556e60258361451b565b915061557982615512565b604082019050919050565b6000602082019050818103600083015261559d81615561565b9050919050565b60008160001c9050919050565b600073ffffffffffffffffffffffffffffffffffffffff82169050919050565b60006155e46155df836155a4565b6155b1565b9050919050565b60008190508160005260206000209050919050565b6000815461560d816154e1565b6156178186614a5f565b94506001821660008114615632576001811461564457615677565b60ff1983168652602086019350615677565b61564d856155eb565b60005b8381101561566f57815481890152600182019150602081019050615650565b808801955050505b50505092915050565b600060ff82169050919050565b60006156a061569b836155a4565b615680565b9050919050565b60006060830160008084015490506156be816155d1565b6156cb6000870182614a41565b506001840185830360208701526156e28382615600565b925050600284015490506156f58161568d565b6157026040870182614ab5565b50819250505092915050565b6000602082019050818103600083015261572881846156a7565b905092915050565b7f4163636f756e74206973206e6f74207265676973746572656400000000000000600082015250565b600061576660198361451b565b915061577182615730565b602082019050919050565b6000602082019050818103600083015261579581615759565b9050919050565b7f4163636f756e7420646f6573206e6f74206861766520706572736f6e616c206960008201527f6e666f2073746f72656400000000000000000000000000000000000000000000602082015250565b60006157f8602a8361451b565b91506158038261579c565b604082019050919050565b60006020820190508181036000830152615827816157eb565b9050919050565b600061014083016000808401858303600087015261584c8382615600565b9250506001840185830360208701526158658382615600565b92505060028401858303604087015261587e8382615600565b9250506003840185830360608701526158978382615600565b9250506004840185830360808701526158b08382615600565b9250506005840185830360a08701526158c98382615600565b925050600684015490506158dc816155d1565b6158e960c0870182614a41565b506007840185830360e08701526159008382615600565b9250506008840185830361010087015261591a8382615600565b925050600984018583036101208701526159348382615600565b925050819250505092915050565b6000602082019050818103600083015261595c818461582e565b905092915050565b7f4e487b7100000000000000000000000000000000000000000000000000000000600052601160045260246000fd5b600061599e82614422565b91507fffffffffffffffffffffffffffffffffffffffffffffffffffffffffffffffff82036159d0576159cf615964565b5b600182019050919050565b7f4f6e6c792074686520646f63746f722063616e2061636365707420746865206d60008201527f656574696e670000000000000000000000000000000000000000000000000000602082015250565b6000615a3760268361451b565b9150615a42826159db565b604082019050919050565b60006020820190508181036000830152615a6681615a2a565b9050919050565b6000610160830160008084018583036000870152615a8b8382615600565b925050600184018583036020870152615aa48382615600565b925050600284018583036040870152615abd8382615600565b925050600384018583036060870152615ad68382615600565b925050600484018583036080870152615aef8382615600565b9250506005840185830360a0870152615b088382615600565b9250506006840185830360c0870152615b218382615600565b9250506007840185830360e0870152615b3a8382615600565b92505060088401549050615b4d816155d1565b615b5b610100870182614a41565b5060098401858303610120870152615b738382615600565b925050600a8401858303610140870152615b8d8382615600565b925050819250505092915050565b60006020820190508181036000830152615bb58184615a6d565b90509291505056fea26469706673582212204209b61aa6636d6ac40d03eddee6ef7deb843512c75135391d69874cc1dd24ce64736f6c634300080d0033",
  "immutableReferences": {},
  "source": "// SPDX-License-Identifier: MIT\r\npragma solidity ^0.8.13;\r\n\r\n// Smart contract\r\ncontract HealthSystem {\r\n    struct Patient {\r\n        string firstName;\r\n        string lastName;\r\n        string dateOfBirth;\r\n        string email;\r\n        string gender;\r\n        string patientAddress;\r\n        string phoneNumber;\r\n        string bloodgroup;\r\n        address metaMaskAccount;\r\n        string insuranceProvider;\r\n        string policyNumber;\r\n    }\r\n\r\n    struct Doctor {\r\n        string firstName;\r\n        string lastName;\r\n        string dateOfBirth;\r\n        string email;\r\n        string doctorAddress;\r\n        string phoneNumber;\r\n        address metaMaskAccount;\r\n        string specialization;\r\n        string medicalLicenseNumber;\r\n        string yearsOfExperience;\r\n    }\r\n\r\n    struct Account {\r\n        address metaMaskAccount;\r\n        string role;\r\n        bool isRegistered;\r\n    }\r\n\r\n    struct Meeting {\r\n        address patientAddress;\r\n        address doctorAddress;\r\n        uint256 meetingTime;\r\n        string meetingDescription;\r\n        bool isVerified;\r\n    }\r\n\r\n    Meeting[] public meetings;\r\n\r\n    function createMeeting(\r\n        address _patientAddress,\r\n        address _doctorAddress,\r\n        string memory _meetingDescription,\r\n        uint256 _meetingTime,\r\n        bool _isVerified\r\n    ) public {\r\n        meetings.push(\r\n            Meeting({\r\n                patientAddress: _patientAddress,\r\n                doctorAddress: _doctorAddress,\r\n                meetingTime: _meetingTime,\r\n                meetingDescription: _meetingDescription,\r\n                isVerified: _isVerified\r\n            })\r\n        );\r\n    }\r\n\r\n    function getPatientMeetings(\r\n        address _patientAddress\r\n    ) public view returns (Meeting[] memory) {\r\n        Meeting[] memory patientMeetings = new Meeting[](meetings.length);\r\n        uint256 count = 0;\r\n\r\n        for (uint256 i = 0; i < meetings.length; i++) {\r\n            if (meetings[i].patientAddress == _patientAddress) {\r\n                patientMeetings[count] = meetings[i];\r\n                count++;\r\n            }\r\n        }\r\n\r\n        assembly {\r\n            mstore(patientMeetings, count)\r\n        }\r\n        return patientMeetings;\r\n    }\r\n\r\n    function acceptMeeting(uint256 meetingIndex) public {\r\n        require(meetingIndex < meetings.length, \"Invalid meeting index\");\r\n        require(\r\n            msg.sender == meetings[meetingIndex].doctorAddress,\r\n            \"Only the doctor can accept the meeting\"\r\n        );\r\n        meetings[meetingIndex].isVerified = true;\r\n    }\r\n\r\n    function rejectMeeting(uint256 meetingIndex) public {\r\n        require(meetingIndex < meetings.length, \"Invalid meeting index\");\r\n        require(\r\n            msg.sender == meetings[meetingIndex].doctorAddress,\r\n            \"Only the doctor can reject the meeting\"\r\n        );\r\n        meetings[meetingIndex].isVerified = false;\r\n    }\r\n\r\n    function getMeeting(\r\n        uint256 meetingIndex\r\n    ) public view returns (address, address, uint256, string memory, bool) {\r\n        require(meetingIndex < meetings.length, \"Invalid meeting index\");\r\n        Meeting memory meeting = meetings[meetingIndex];\r\n        return (\r\n            meeting.patientAddress,\r\n            meeting.doctorAddress,\r\n            meeting.meetingTime,\r\n            meeting.meetingDescription,\r\n            meeting.isVerified\r\n        );\r\n    }\r\n\r\n    function getDoctorMeetings(\r\n        address _doctorAddress\r\n    ) public view returns (Meeting[] memory) {\r\n        Meeting[] memory doctorMeetings = new Meeting[](meetings.length);\r\n        uint256 count = 0;\r\n\r\n        for (uint256 i = 0; i < meetings.length; i++) {\r\n            if (meetings[i].doctorAddress == _doctorAddress) {\r\n                doctorMeetings[count] = meetings[i];\r\n                count++;\r\n            }\r\n        }\r\n\r\n        assembly {\r\n            mstore(doctorMeetings, count)\r\n        }\r\n        return doctorMeetings;\r\n    }\r\n\r\n    mapping(address => string) public metaMaskToEmail;\r\n    mapping(address => Patient) public patients;\r\n    mapping(address => Doctor) public doctors;\r\n    mapping(address => Account) public accounts;\r\n\r\n    event PatientExists(address indexed metaMaskAccount, Patient patient);\r\n    event PatientRegistered(address indexed metaMaskAccount, string email);\r\n    event DoctorExists(address indexed metaMaskAccount, Doctor doctor);\r\n    event DoctorRegistered(address indexed metaMaskAccount, string email);\r\n    event AccountRegistered(address indexed metaMaskAccount, string role);\r\n    event AccountExists(address indexed metaMaskAccount, Account account);\r\n\r\n    modifier onlyRegisteredAccount(address _metaMaskAccount) {\r\n        require(\r\n            accounts[_metaMaskAccount].isRegistered,\r\n            \"Account is not registered\"\r\n        );\r\n        _;\r\n    }\r\n\r\n    function registerPatient(\r\n        string memory _firstName,\r\n        string memory _lastName,\r\n        string memory _dateOfBirth,\r\n        string memory _email,\r\n        string memory _gender,\r\n        string memory _patientAddress,\r\n        string memory _phoneNumber,\r\n        string memory _bloodgroup,\r\n        address _metaMaskAccount,\r\n        string memory _insuranceProvider,\r\n        string memory _policyNumber\r\n    ) public {\r\n        // Store the patient details in the mapping\r\n        patients[_metaMaskAccount] = Patient(\r\n            _firstName,\r\n            _lastName,\r\n            _dateOfBirth,\r\n            _email,\r\n            _gender,\r\n            _patientAddress,\r\n            _phoneNumber,\r\n            _bloodgroup,\r\n            _metaMaskAccount,\r\n            _insuranceProvider,\r\n            _policyNumber\r\n        );\r\n\r\n        // Map the MetaMask address to the email\r\n        metaMaskToEmail[_metaMaskAccount] = _email;\r\n\r\n        // Emit events for patient registration and existence\r\n        emit PatientRegistered(_metaMaskAccount, _email);\r\n        emit PatientExists(_metaMaskAccount, patients[_metaMaskAccount]);\r\n    }\r\n\r\n    function registerDoctor(\r\n        string memory _firstName,\r\n        string memory _lastName,\r\n        string memory _dateOfBirth,\r\n        string memory _email,\r\n        string memory _doctorAddress,\r\n        string memory _phoneNumber,\r\n        address _metaMaskAccount,\r\n        string memory _specialization,\r\n        string memory _medicalLicenseNumber,\r\n        string memory _yearsOfExperience\r\n    ) public {\r\n        // Store the doctor details in the mapping\r\n        doctors[_metaMaskAccount] = Doctor(\r\n            _firstName,\r\n            _lastName,\r\n            _dateOfBirth,\r\n            _email,\r\n            _doctorAddress,\r\n            _phoneNumber,\r\n            _metaMaskAccount,\r\n            _specialization,\r\n            _medicalLicenseNumber,\r\n            _yearsOfExperience\r\n        );\r\n\r\n        // Map the MetaMask address to the email\r\n        metaMaskToEmail[_metaMaskAccount] = _email;\r\n\r\n        // Emit events for doctor registration and existence\r\n        emit DoctorRegistered(_metaMaskAccount, _email);\r\n        emit DoctorExists(_metaMaskAccount, doctors[_metaMaskAccount]);\r\n    }\r\n\r\n    function registerAccount(\r\n        address _metaMaskAccount,\r\n        string memory _role\r\n    ) public {\r\n        // Check if the account already has a role registered\r\n        if (accounts[_metaMaskAccount].isRegistered) {\r\n            revert(\"Account already has a role registered\");\r\n        }\r\n\r\n        // Store the account details with role in the mapping\r\n        accounts[_metaMaskAccount] = Account({\r\n            metaMaskAccount: _metaMaskAccount,\r\n            role: _role,\r\n            isRegistered: true\r\n        });\r\n\r\n        // Emit event for account registration\r\n        emit AccountRegistered(_metaMaskAccount, _role);\r\n        emit AccountExists(_metaMaskAccount, accounts[_metaMaskAccount]);\r\n    }\r\n\r\n    function getPatient(\r\n        address _metaMaskAccount\r\n    ) public view returns (Patient memory) {\r\n        return patients[_metaMaskAccount];\r\n    }\r\n\r\n    function getDoctor(\r\n        address _metaMaskAccount\r\n    ) public view returns (Doctor memory) {\r\n        return doctors[_metaMaskAccount];\r\n    }\r\n\r\n    function getEmailByMetaMask(\r\n        address _metaMaskAccount\r\n    ) public view returns (string memory) {\r\n        return metaMaskToEmail[_metaMaskAccount];\r\n    }\r\n\r\n    function getAccount(\r\n        address _metaMaskAccount\r\n    ) public view returns (Account memory) {\r\n        return accounts[_metaMaskAccount];\r\n    }\r\n\r\n    function hasPersonalInfo(\r\n        address _metaMaskAccount\r\n    ) public view returns (bool) {\r\n        Patient memory patient = patients[_metaMaskAccount];\r\n        Doctor memory doctor = doctors[_metaMaskAccount];\r\n        if (\r\n            bytes(patient.firstName).length > 0 ||\r\n            bytes(doctor.firstName).length > 0\r\n        ) {\r\n            return true;\r\n        }\r\n        return false;\r\n    }\r\n\r\n    function performAction(\r\n        address _metaMaskAccount\r\n    ) public view onlyRegisteredAccount(_metaMaskAccount) {\r\n        require(\r\n            hasPersonalInfo(_metaMaskAccount),\r\n            \"Account does not have personal info stored\"\r\n        );\r\n    }\r\n}\r\n",
  "sourcePath": "C:\\Users\\Pranith\\Documents\\GitHub\\Electronic_Health_Records\\Truffle\\contracts\\HealthSystem.sol",
  "compiler": {
    "name": "solc",
    "version": "0.8.13+commit.abaa5c0e.Emscripten.clang"
  },
  "schemaVersion": "3.4.16",
  "updatedAt": "2024-07-07T20:10:09.832Z",
  "networkType": "ethereum",
  "devdoc": {
    "kind": "dev",
    "methods": {},
    "version": 1
  },
  "userdoc": {
    "kind": "user",
    "methods": {},
    "version": 1
  }
}