{
  "contractName": "patientInfo",
  "abi": [
    {
      "anonymous": false,
      "inputs": [
        {
          "components": [
            {
              "internalType": "string",
              "name": "firstName",
              "type": "string"
            },
            {
              "internalType": "string",
              "name": "lastName",
              "type": "string"
            },
            {
              "internalType": "string",
              "name": "dateOfBirth",
              "type": "string"
            },
            {
              "internalType": "string",
              "name": "email",
              "type": "string"
            },
            {
              "internalType": "string",
              "name": "gender",
              "type": "string"
            },
            {
              "internalType": "string",
              "name": "patientAddress",
              "type": "string"
            },
            {
              "internalType": "string",
              "name": "phoneNumber",
              "type": "string"
            },
            {
              "internalType": "string",
              "name": "bloodgroup",
              "type": "string"
            },
            {
              "internalType": "address",
              "name": "metaMaskAccount",
              "type": "address"
            },
            {
              "internalType": "string",
              "name": "insuranceProvider",
              "type": "string"
            },
            {
              "internalType": "string",
              "name": "policyNumber",
              "type": "string"
            }
          ],
          "indexed": false,
          "internalType": "struct patientInfo.Patient",
          "name": "patient",
          "type": "tuple"
        }
      ],
      "name": "PatientExists",
      "type": "event"
    },
    {
      "inputs": [
        {
          "internalType": "address",
          "name": "",
          "type": "address"
        }
      ],
      "name": "metaMaskToEmail",
      "outputs": [
        {
          "internalType": "string",
          "name": "",
          "type": "string"
        }
      ],
      "stateMutability": "view",
      "type": "function",
      "constant": true
    },
    {
      "inputs": [
        {
          "internalType": "address",
          "name": "",
          "type": "address"
        }
      ],
      "name": "patients",
      "outputs": [
        {
          "internalType": "string",
          "name": "firstName",
          "type": "string"
        },
        {
          "internalType": "string",
          "name": "lastName",
          "type": "string"
        },
        {
          "internalType": "string",
          "name": "dateOfBirth",
          "type": "string"
        },
        {
          "internalType": "string",
          "name": "email",
          "type": "string"
        },
        {
          "internalType": "string",
          "name": "gender",
          "type": "string"
        },
        {
          "internalType": "string",
          "name": "patientAddress",
          "type": "string"
        },
        {
          "internalType": "string",
          "name": "phoneNumber",
          "type": "string"
        },
        {
          "internalType": "string",
          "name": "bloodgroup",
          "type": "string"
        },
        {
          "internalType": "address",
          "name": "metaMaskAccount",
          "type": "address"
        },
        {
          "internalType": "string",
          "name": "insuranceProvider",
          "type": "string"
        },
        {
          "internalType": "string",
          "name": "policyNumber",
          "type": "string"
        }
      ],
      "stateMutability": "view",
      "type": "function",
      "constant": true
    },
    {
      "inputs": [
        {
          "internalType": "string",
          "name": "_firstName",
          "type": "string"
        },
        {
          "internalType": "string",
          "name": "_lastName",
          "type": "string"
        },
        {
          "internalType": "string",
          "name": "_dateOfBirth",
          "type": "string"
        },
        {
          "internalType": "string",
          "name": "_email",
          "type": "string"
        },
        {
          "internalType": "string",
          "name": "_gender",
          "type": "string"
        },
        {
          "internalType": "string",
          "name": "_patientAddress",
          "type": "string"
        },
        {
          "internalType": "string",
          "name": "_phoneNumber",
          "type": "string"
        },
        {
          "internalType": "string",
          "name": "_bloodgroup",
          "type": "string"
        },
        {
          "internalType": "address",
          "name": "_metaMaskAccount",
          "type": "address"
        },
        {
          "internalType": "string",
          "name": "_insuranceProvider",
          "type": "string"
        },
        {
          "internalType": "string",
          "name": "_policyNumber",
          "type": "string"
        }
      ],
      "name": "registerPatient",
      "outputs": [],
      "stateMutability": "nonpayable",
      "type": "function"
    },
    {
      "inputs": [
        {
          "internalType": "address",
          "name": "_metaMaskAccount",
          "type": "address"
        }
      ],
      "name": "getPatient",
      "outputs": [
        {
          "components": [
            {
              "internalType": "string",
              "name": "firstName",
              "type": "string"
            },
            {
              "internalType": "string",
              "name": "lastName",
              "type": "string"
            },
            {
              "internalType": "string",
              "name": "dateOfBirth",
              "type": "string"
            },
            {
              "internalType": "string",
              "name": "email",
              "type": "string"
            },
            {
              "internalType": "string",
              "name": "gender",
              "type": "string"
            },
            {
              "internalType": "string",
              "name": "patientAddress",
              "type": "string"
            },
            {
              "internalType": "string",
              "name": "phoneNumber",
              "type": "string"
            },
            {
              "internalType": "string",
              "name": "bloodgroup",
              "type": "string"
            },
            {
              "internalType": "address",
              "name": "metaMaskAccount",
              "type": "address"
            },
            {
              "internalType": "string",
              "name": "insuranceProvider",
              "type": "string"
            },
            {
              "internalType": "string",
              "name": "policyNumber",
              "type": "string"
            }
          ],
          "internalType": "struct patientInfo.Patient",
          "name": "",
          "type": "tuple"
        }
      ],
      "stateMutability": "view",
      "type": "function",
      "constant": true
    },
    {
      "inputs": [
        {
          "internalType": "address",
          "name": "_metaMaskAccount",
          "type": "address"
        }
      ],
      "name": "getEmailByMetaMask",
      "outputs": [
        {
          "internalType": "string",
          "name": "",
          "type": "string"
        }
      ],
      "stateMutability": "view",
      "type": "function",
      "constant": true
    }
  ],
  "bytecode": "0x608060405234801561001057600080fd5b50612126806100206000396000f3fe608060405234801561001057600080fd5b50600436106100575760003560e01c80630869cfbc1461005c57806328fce6ca14610096578063b5368e20146100c6578063d0bbbf4b146100f6578063ea3fc82314610112575b600080fd5b610076600480360381019061007191906119be565b610142565b60405161008d9b9a99989796959493929190611a93565b60405180910390f35b6100b060048036038101906100ab91906119be565b61070c565b6040516100bd9190611b84565b60405180910390f35b6100e060048036038101906100db91906119be565b6107dc565b6040516100ed9190611d2d565b60405180910390f35b610110600480360381019061010b9190611e84565b610e40565b005b61012c600480360381019061012791906119be565b611799565b6040516101399190611b84565b60405180910390f35b6001602052806000526040600020600091509050806000018054610165906120bf565b80601f0160208091040260200160405190810160405280929190818152602001828054610191906120bf565b80156101de5780601f106101b3576101008083540402835291602001916101de565b820191906000526020600020905b8154815290600101906020018083116101c157829003601f168201915b5050505050908060010180546101f3906120bf565b80601f016020809104026020016040519081016040528092919081815260200182805461021f906120bf565b801561026c5780601f106102415761010080835404028352916020019161026c565b820191906000526020600020905b81548152906001019060200180831161024f57829003601f168201915b505050505090806002018054610281906120bf565b80601f01602080910402602001604051908101604052809291908181526020018280546102ad906120bf565b80156102fa5780601f106102cf576101008083540402835291602001916102fa565b820191906000526020600020905b8154815290600101906020018083116102dd57829003601f168201915b50505050509080600301805461030f906120bf565b80601f016020809104026020016040519081016040528092919081815260200182805461033b906120bf565b80156103885780601f1061035d57610100808354040283529160200191610388565b820191906000526020600020905b81548152906001019060200180831161036b57829003601f168201915b50505050509080600401805461039d906120bf565b80601f01602080910402602001604051908101604052809291908181526020018280546103c9906120bf565b80156104165780601f106103eb57610100808354040283529160200191610416565b820191906000526020600020905b8154815290600101906020018083116103f957829003601f168201915b50505050509080600501805461042b906120bf565b80601f0160208091040260200160405190810160405280929190818152602001828054610457906120bf565b80156104a45780601f10610479576101008083540402835291602001916104a4565b820191906000526020600020905b81548152906001019060200180831161048757829003601f168201915b5050505050908060060180546104b9906120bf565b80601f01602080910402602001604051908101604052809291908181526020018280546104e5906120bf565b80156105325780601f1061050757610100808354040283529160200191610532565b820191906000526020600020905b81548152906001019060200180831161051557829003601f168201915b505050505090806007018054610547906120bf565b80601f0160208091040260200160405190810160405280929190818152602001828054610573906120bf565b80156105c05780601f10610595576101008083540402835291602001916105c0565b820191906000526020600020905b8154815290600101906020018083116105a357829003601f168201915b5050505050908060080160009054906101000a900473ffffffffffffffffffffffffffffffffffffffff16908060090180546105fb906120bf565b80601f0160208091040260200160405190810160405280929190818152602001828054610627906120bf565b80156106745780601f1061064957610100808354040283529160200191610674565b820191906000526020600020905b81548152906001019060200180831161065757829003601f168201915b50505050509080600a018054610689906120bf565b80601f01602080910402602001604051908101604052809291908181526020018280546106b5906120bf565b80156107025780601f106106d757610100808354040283529160200191610702565b820191906000526020600020905b8154815290600101906020018083116106e557829003601f168201915b505050505090508b565b60606000808373ffffffffffffffffffffffffffffffffffffffff1673ffffffffffffffffffffffffffffffffffffffff1681526020019081526020016000208054610757906120bf565b80601f0160208091040260200160405190810160405280929190818152602001828054610783906120bf565b80156107d05780601f106107a5576101008083540402835291602001916107d0565b820191906000526020600020905b8154815290600101906020018083116107b357829003601f168201915b50505050509050919050565b6107e4611839565b600160008373ffffffffffffffffffffffffffffffffffffffff1673ffffffffffffffffffffffffffffffffffffffff1681526020019081526020016000206040518061016001604052908160008201805461083f906120bf565b80601f016020809104026020016040519081016040528092919081815260200182805461086b906120bf565b80156108b85780601f1061088d576101008083540402835291602001916108b8565b820191906000526020600020905b81548152906001019060200180831161089b57829003601f168201915b505050505081526020016001820180546108d1906120bf565b80601f01602080910402602001604051908101604052809291908181526020018280546108fd906120bf565b801561094a5780601f1061091f5761010080835404028352916020019161094a565b820191906000526020600020905b81548152906001019060200180831161092d57829003601f168201915b50505050508152602001600282018054610963906120bf565b80601f016020809104026020016040519081016040528092919081815260200182805461098f906120bf565b80156109dc5780601f106109b1576101008083540402835291602001916109dc565b820191906000526020600020905b8154815290600101906020018083116109bf57829003601f168201915b505050505081526020016003820180546109f5906120bf565b80601f0160208091040260200160405190810160405280929190818152602001828054610a21906120bf565b8015610a6e5780601f10610a4357610100808354040283529160200191610a6e565b820191906000526020600020905b815481529060010190602001808311610a5157829003601f168201915b50505050508152602001600482018054610a87906120bf565b80601f0160208091040260200160405190810160405280929190818152602001828054610ab3906120bf565b8015610b005780601f10610ad557610100808354040283529160200191610b00565b820191906000526020600020905b815481529060010190602001808311610ae357829003601f168201915b50505050508152602001600582018054610b19906120bf565b80601f0160208091040260200160405190810160405280929190818152602001828054610b45906120bf565b8015610b925780601f10610b6757610100808354040283529160200191610b92565b820191906000526020600020905b815481529060010190602001808311610b7557829003601f168201915b50505050508152602001600682018054610bab906120bf565b80601f0160208091040260200160405190810160405280929190818152602001828054610bd7906120bf565b8015610c245780601f10610bf957610100808354040283529160200191610c24565b820191906000526020600020905b815481529060010190602001808311610c0757829003601f168201915b50505050508152602001600782018054610c3d906120bf565b80601f0160208091040260200160405190810160405280929190818152602001828054610c69906120bf565b8015610cb65780601f10610c8b57610100808354040283529160200191610cb6565b820191906000526020600020905b815481529060010190602001808311610c9957829003601f168201915b505050505081526020016008820160009054906101000a900473ffffffffffffffffffffffffffffffffffffffff1673ffffffffffffffffffffffffffffffffffffffff1673ffffffffffffffffffffffffffffffffffffffff168152602001600982018054610d25906120bf565b80601f0160208091040260200160405190810160405280929190818152602001828054610d51906120bf565b8015610d9e5780601f10610d7357610100808354040283529160200191610d9e565b820191906000526020600020905b815481529060010190602001808311610d8157829003601f168201915b50505050508152602001600a82018054610db7906120bf565b80601f0160208091040260200160405190810160405280929190818152602001828054610de3906120bf565b8015610e305780601f10610e0557610100808354040283529160200191610e30565b820191906000526020600020905b815481529060010190602001808311610e1357829003601f168201915b5050505050815250509050919050565b60008060008573ffffffffffffffffffffffffffffffffffffffff1673ffffffffffffffffffffffffffffffffffffffff1681526020019081526020016000208054610e8b906120bf565b905014611528576000600160008573ffffffffffffffffffffffffffffffffffffffff1673ffffffffffffffffffffffffffffffffffffffff16815260200190815260200160002060405180610160016040529081600082018054610eef906120bf565b80601f0160208091040260200160405190810160405280929190818152602001828054610f1b906120bf565b8015610f685780601f10610f3d57610100808354040283529160200191610f68565b820191906000526020600020905b815481529060010190602001808311610f4b57829003601f168201915b50505050508152602001600182018054610f81906120bf565b80601f0160208091040260200160405190810160405280929190818152602001828054610fad906120bf565b8015610ffa5780601f10610fcf57610100808354040283529160200191610ffa565b820191906000526020600020905b815481529060010190602001808311610fdd57829003601f168201915b50505050508152602001600282018054611013906120bf565b80601f016020809104026020016040519081016040528092919081815260200182805461103f906120bf565b801561108c5780601f106110615761010080835404028352916020019161108c565b820191906000526020600020905b81548152906001019060200180831161106f57829003601f168201915b505050505081526020016003820180546110a5906120bf565b80601f01602080910402602001604051908101604052809291908181526020018280546110d1906120bf565b801561111e5780601f106110f35761010080835404028352916020019161111e565b820191906000526020600020905b81548152906001019060200180831161110157829003601f168201915b50505050508152602001600482018054611137906120bf565b80601f0160208091040260200160405190810160405280929190818152602001828054611163906120bf565b80156111b05780601f10611185576101008083540402835291602001916111b0565b820191906000526020600020905b81548152906001019060200180831161119357829003601f168201915b505050505081526020016005820180546111c9906120bf565b80601f01602080910402602001604051908101604052809291908181526020018280546111f5906120bf565b80156112425780601f1061121757610100808354040283529160200191611242565b820191906000526020600020905b81548152906001019060200180831161122557829003601f168201915b5050505050815260200160068201805461125b906120bf565b80601f0160208091040260200160405190810160405280929190818152602001828054611287906120bf565b80156112d45780601f106112a9576101008083540402835291602001916112d4565b820191906000526020600020905b8154815290600101906020018083116112b757829003601f168201915b505050505081526020016007820180546112ed906120bf565b80601f0160208091040260200160405190810160405280929190818152602001828054611319906120bf565b80156113665780601f1061133b57610100808354040283529160200191611366565b820191906000526020600020905b81548152906001019060200180831161134957829003601f168201915b505050505081526020016008820160009054906101000a900473ffffffffffffffffffffffffffffffffffffffff1673ffffffffffffffffffffffffffffffffffffffff1673ffffffffffffffffffffffffffffffffffffffff1681526020016009820180546113d5906120bf565b80601f0160208091040260200160405190810160405280929190818152602001828054611401906120bf565b801561144e5780601f106114235761010080835404028352916020019161144e565b820191906000526020600020905b81548152906001019060200180831161143157829003601f168201915b50505050508152602001600a82018054611467906120bf565b80601f0160208091040260200160405190810160405280929190818152602001828054611493906120bf565b80156114e05780601f106114b5576101008083540402835291602001916114e0565b820191906000526020600020905b8154815290600101906020018083116114c357829003601f168201915b50505050508152505090507f9a4160c92f9f641f42960fd85f950d79d6934b716d57af40c04ef39ba0ec41508160405161151a9190611d2d565b60405180910390a15061178c565b6040518061016001604052808c81526020018b81526020018a81526020018981526020018881526020018781526020018681526020018581526020018473ffffffffffffffffffffffffffffffffffffffff16815260200183815260200182815250600160008573ffffffffffffffffffffffffffffffffffffffff1673ffffffffffffffffffffffffffffffffffffffff16815260200190815260200160002060008201518160000190805190602001906115e59291906118a9565b5060208201518160010190805190602001906116029291906118a9565b50604082015181600201908051906020019061161f9291906118a9565b50606082015181600301908051906020019061163c9291906118a9565b5060808201518160040190805190602001906116599291906118a9565b5060a08201518160050190805190602001906116769291906118a9565b5060c08201518160060190805190602001906116939291906118a9565b5060e08201518160070190805190602001906116b09291906118a9565b506101008201518160080160006101000a81548173ffffffffffffffffffffffffffffffffffffffff021916908373ffffffffffffffffffffffffffffffffffffffff1602179055506101208201518160090190805190602001906117169291906118a9565b5061014082015181600a0190805190602001906117349291906118a9565b50905050876000808573ffffffffffffffffffffffffffffffffffffffff1673ffffffffffffffffffffffffffffffffffffffff168152602001908152602001600020908051906020019061178a9291906118a9565b505b5050505050505050505050565b600060205280600052604060002060009150905080546117b8906120bf565b80601f01602080910402602001604051908101604052809291908181526020018280546117e4906120bf565b80156118315780601f1061180657610100808354040283529160200191611831565b820191906000526020600020905b81548152906001019060200180831161181457829003601f168201915b505050505081565b6040518061016001604052806060815260200160608152602001606081526020016060815260200160608152602001606081526020016060815260200160608152602001600073ffffffffffffffffffffffffffffffffffffffff16815260200160608152602001606081525090565b8280546118b5906120bf565b90600052602060002090601f0160209004810192826118d7576000855561191e565b82601f106118f057805160ff191683800117855561191e565b8280016001018555821561191e579182015b8281111561191d578251825591602001919060010190611902565b5b50905061192b919061192f565b5090565b5b80821115611948576000816000905550600101611930565b5090565b6000604051905090565b600080fd5b600080fd5b600073ffffffffffffffffffffffffffffffffffffffff82169050919050565b600061198b82611960565b9050919050565b61199b81611980565b81146119a657600080fd5b50565b6000813590506119b881611992565b92915050565b6000602082840312156119d4576119d3611956565b5b60006119e2848285016119a9565b91505092915050565b600081519050919050565b600082825260208201905092915050565b60005b83811015611a25578082015181840152602081019050611a0a565b83811115611a34576000848401525b50505050565b6000601f19601f8301169050919050565b6000611a56826119eb565b611a6081856119f6565b9350611a70818560208601611a07565b611a7981611a3a565b840191505092915050565b611a8d81611980565b82525050565b6000610160820190508181036000830152611aae818e611a4b565b90508181036020830152611ac2818d611a4b565b90508181036040830152611ad6818c611a4b565b90508181036060830152611aea818b611a4b565b90508181036080830152611afe818a611a4b565b905081810360a0830152611b128189611a4b565b905081810360c0830152611b268188611a4b565b905081810360e0830152611b3a8187611a4b565b9050611b4a610100830186611a84565b818103610120830152611b5d8185611a4b565b9050818103610140830152611b728184611a4b565b90509c9b505050505050505050505050565b60006020820190508181036000830152611b9e8184611a4b565b905092915050565b600082825260208201905092915050565b6000611bc2826119eb565b611bcc8185611ba6565b9350611bdc818560208601611a07565b611be581611a3a565b840191505092915050565b611bf981611980565b82525050565b6000610160830160008301518482036000860152611c1d8282611bb7565b91505060208301518482036020860152611c378282611bb7565b91505060408301518482036040860152611c518282611bb7565b91505060608301518482036060860152611c6b8282611bb7565b91505060808301518482036080860152611c858282611bb7565b91505060a083015184820360a0860152611c9f8282611bb7565b91505060c083015184820360c0860152611cb98282611bb7565b91505060e083015184820360e0860152611cd38282611bb7565b915050610100830151611cea610100860182611bf0565b50610120830151848203610120860152611d048282611bb7565b915050610140830151848203610140860152611d208282611bb7565b9150508091505092915050565b60006020820190508181036000830152611d478184611bff565b905092915050565b600080fd5b600080fd5b7f4e487b7100000000000000000000000000000000000000000000000000000000600052604160045260246000fd5b611d9182611a3a565b810181811067ffffffffffffffff82111715611db057611daf611d59565b5b80604052505050565b6000611dc361194c565b9050611dcf8282611d88565b919050565b600067ffffffffffffffff821115611def57611dee611d59565b5b611df882611a3a565b9050602081019050919050565b82818337600083830152505050565b6000611e27611e2284611dd4565b611db9565b905082815260208101848484011115611e4357611e42611d54565b5b611e4e848285611e05565b509392505050565b600082601f830112611e6b57611e6a611d4f565b5b8135611e7b848260208601611e14565b91505092915050565b60008060008060008060008060008060006101608c8e031215611eaa57611ea9611956565b5b60008c013567ffffffffffffffff811115611ec857611ec761195b565b5b611ed48e828f01611e56565b9b505060208c013567ffffffffffffffff811115611ef557611ef461195b565b5b611f018e828f01611e56565b9a505060408c013567ffffffffffffffff811115611f2257611f2161195b565b5b611f2e8e828f01611e56565b99505060608c013567ffffffffffffffff811115611f4f57611f4e61195b565b5b611f5b8e828f01611e56565b98505060808c013567ffffffffffffffff811115611f7c57611f7b61195b565b5b611f888e828f01611e56565b97505060a08c013567ffffffffffffffff811115611fa957611fa861195b565b5b611fb58e828f01611e56565b96505060c08c013567ffffffffffffffff811115611fd657611fd561195b565b5b611fe28e828f01611e56565b95505060e08c013567ffffffffffffffff8111156120035761200261195b565b5b61200f8e828f01611e56565b9450506101006120218e828f016119a9565b9350506101208c013567ffffffffffffffff8111156120435761204261195b565b5b61204f8e828f01611e56565b9250506101408c013567ffffffffffffffff8111156120715761207061195b565b5b61207d8e828f01611e56565b9150509295989b509295989b9093969950565b7f4e487b7100000000000000000000000000000000000000000000000000000000600052602260045260246000fd5b600060028204905060018216806120d757607f821691505b6020821081036120ea576120e9612090565b5b5091905056fea2646970667358221220c00d8cd5231bac173bf4d6da05584219073690a4807b057e6e36942dc151b8af64736f6c634300080d0033",
  "immutableReferences": {},
  "source": "// SPDX-License-Identifier: MIT\r\npragma solidity ^0.8.13;\r\n\r\ncontract patientInfo {\r\n    struct Patient {\r\n        string firstName;\r\n        string lastName;\r\n        string dateOfBirth;\r\n        string email;\r\n        string gender;\r\n        string patientAddress;\r\n        string phoneNumber;\r\n        string bloodgroup;\r\n        address metaMaskAccount;\r\n        string insuranceProvider;\r\n        string policyNumber;\r\n    }\r\n\r\n    mapping(address => string) public metaMaskToEmail;\r\n    mapping(address => Patient) public patients;\r\n\r\n    event PatientExists(Patient patient);\r\n\r\n    function registerPatient(\r\n        string memory _firstName,\r\n        string memory _lastName,\r\n        string memory _dateOfBirth,\r\n        string memory _email,\r\n        string memory _gender,\r\n        string memory _patientAddress,\r\n        string memory _phoneNumber,\r\n        string memory _bloodgroup,\r\n        address _metaMaskAccount,\r\n        string memory _insuranceProvider,\r\n        string memory _policyNumber\r\n    ) public {\r\n        if (bytes(metaMaskToEmail[_metaMaskAccount]).length != 0) {\r\n            Patient memory existingPatient = patients[_metaMaskAccount];\r\n            emit PatientExists(existingPatient);\r\n            return;\r\n        }\r\n\r\n        patients[_metaMaskAccount] = Patient(\r\n            _firstName,\r\n            _lastName,\r\n            _dateOfBirth,\r\n            _email,\r\n            _gender,\r\n            _patientAddress,\r\n            _phoneNumber,\r\n            _bloodgroup,\r\n            _metaMaskAccount,\r\n            _insuranceProvider,\r\n            _policyNumber\r\n        );\r\n\r\n        metaMaskToEmail[_metaMaskAccount] = _email;\r\n    }\r\n    function getPatient(address _metaMaskAccount) public view returns (Patient memory) {\r\n        return patients[_metaMaskAccount];\r\n    }\r\n\r\n    function getEmailByMetaMask(address _metaMaskAccount) public view returns (string memory) {\r\n        return metaMaskToEmail[_metaMaskAccount];\r\n    }\r\n}\r\n",
  "sourcePath": "C:\\Users\\divye\\OneDrive\\Desktop\\WorkSpace\\Electronic_Health_Records\\Truffle\\contracts\\paientInfo.sol",
  "compiler": {
    "name": "solc",
    "version": "0.8.13+commit.abaa5c0e.Emscripten.clang"
  },
  "schemaVersion": "3.4.16",
  "updatedAt": "2024-07-03T11:01:14.023Z",
  "networkType": "ethereum",
  "devdoc": {
    "kind": "dev",
    "methods": {},
    "version": 1
  },
  "userdoc": {
    "kind": "user",
    "methods": {},
    "version": 1
  }
}