{
  "contractName": "patientInfo",
  "abi": [
    {
      "inputs": [
        {
          "internalType": "address",
          "name": "",
          "type": "address"
        }
      ],
      "name": "metaMaskToEmail",
      "outputs": [
        {
          "internalType": "string",
          "name": "",
          "type": "string"
        }
      ],
      "stateMutability": "view",
      "type": "function"
    },
    {
      "inputs": [
        {
          "internalType": "address",
          "name": "",
          "type": "address"
        }
      ],
      "name": "patients",
      "outputs": [
        {
          "internalType": "string",
          "name": "firstName",
          "type": "string"
        },
        {
          "internalType": "string",
          "name": "lastName",
          "type": "string"
        },
        {
          "internalType": "string",
          "name": "dateOfBirth",
          "type": "string"
        },
        {
          "internalType": "string",
          "name": "email",
          "type": "string"
        },
        {
          "internalType": "string",
          "name": "gender",
          "type": "string"
        },
        {
          "internalType": "string",
          "name": "patientAddress",
          "type": "string"
        },
        {
          "internalType": "string",
          "name": "phoneNumber",
          "type": "string"
        },
        {
          "internalType": "string",
          "name": "bloodgroup",
          "type": "string"
        },
        {
          "internalType": "address",
          "name": "metaMaskAccount",
          "type": "address"
        },
        {
          "internalType": "string",
          "name": "insuranceProvider",
          "type": "string"
        },
        {
          "internalType": "string",
          "name": "policyNumber",
          "type": "string"
        }
      ],
      "stateMutability": "view",
      "type": "function"
    },
    {
      "inputs": [
        {
          "internalType": "string",
          "name": "_firstName",
          "type": "string"
        },
        {
          "internalType": "string",
          "name": "_lastName",
          "type": "string"
        },
        {
          "internalType": "string",
          "name": "_dateOfBirth",
          "type": "string"
        },
        {
          "internalType": "string",
          "name": "_email",
          "type": "string"
        },
        {
          "internalType": "string",
          "name": "_gender",
          "type": "string"
        },
        {
          "internalType": "string",
          "name": "_patientAddress",
          "type": "string"
        },
        {
          "internalType": "string",
          "name": "_phoneNumber",
          "type": "string"
        },
        {
          "internalType": "string",
          "name": "_bloodgroup",
          "type": "string"
        },
        {
          "internalType": "address",
          "name": "_metaMaskAccount",
          "type": "address"
        },
        {
          "internalType": "string",
          "name": "_insuranceProvider",
          "type": "string"
        },
        {
          "internalType": "string",
          "name": "_policyNumber",
          "type": "string"
        }
      ],
      "name": "registerPatient",
      "outputs": [],
      "stateMutability": "nonpayable",
      "type": "function"
    },
    {
      "inputs": [
        {
          "internalType": "address",
          "name": "_metaMaskAccount",
          "type": "address"
        }
      ],
      "name": "getPatient",
      "outputs": [
        {
          "components": [
            {
              "internalType": "string",
              "name": "firstName",
              "type": "string"
            },
            {
              "internalType": "string",
              "name": "lastName",
              "type": "string"
            },
            {
              "internalType": "string",
              "name": "dateOfBirth",
              "type": "string"
            },
            {
              "internalType": "string",
              "name": "email",
              "type": "string"
            },
            {
              "internalType": "string",
              "name": "gender",
              "type": "string"
            },
            {
              "internalType": "string",
              "name": "patientAddress",
              "type": "string"
            },
            {
              "internalType": "string",
              "name": "phoneNumber",
              "type": "string"
            },
            {
              "internalType": "string",
              "name": "bloodgroup",
              "type": "string"
            },
            {
              "internalType": "address",
              "name": "metaMaskAccount",
              "type": "address"
            },
            {
              "internalType": "string",
              "name": "insuranceProvider",
              "type": "string"
            },
            {
              "internalType": "string",
              "name": "policyNumber",
              "type": "string"
            }
          ],
          "internalType": "struct patientInfo.Patient",
          "name": "",
          "type": "tuple"
        }
      ],
      "stateMutability": "view",
      "type": "function"
    },
    {
      "inputs": [
        {
          "internalType": "address",
          "name": "_metaMaskAccount",
          "type": "address"
        }
      ],
      "name": "getEmailByMetaMask",
      "outputs": [
        {
          "internalType": "string",
          "name": "",
          "type": "string"
        }
      ],
      "stateMutability": "view",
      "type": "function"
    },
    {
      "inputs": [
        {
          "internalType": "address",
          "name": "_metaMaskAccount",
          "type": "address"
        }
      ],
      "name": "isPatientRegistered",
      "outputs": [
        {
          "internalType": "bool",
          "name": "",
          "type": "bool"
        }
      ],
      "stateMutability": "view",
      "type": "function"
    }
  ],
  "bytecode": "0x608060405234801561001057600080fd5b50611b04806100206000396000f3fe608060405234801561001057600080fd5b50600436106100625760003560e01c80630869cfbc1461006757806328fce6ca146100a157806380b6b1b8146100d1578063b5368e2014610101578063d0bbbf4b14610131578063ea3fc8231461014d575b600080fd5b610081600480360381019061007c9190611366565b61017d565b6040516100989b9a9998979695949392919061143b565b60405180910390f35b6100bb60048036038101906100b69190611366565b610747565b6040516100c8919061152c565b60405180910390f35b6100eb60048036038101906100e69190611366565b610817565b6040516100f89190611569565b60405180910390f35b61011b60048036038101906101169190611366565b61086d565b604051610128919061170b565b60405180910390f35b61014b60048036038101906101469190611862565b610ed1565b005b61016760048036038101906101629190611366565b611141565b604051610174919061152c565b60405180910390f35b60016020528060005260406000206000915090508060000180546101a090611a9d565b80601f01602080910402602001604051908101604052809291908181526020018280546101cc90611a9d565b80156102195780601f106101ee57610100808354040283529160200191610219565b820191906000526020600020905b8154815290600101906020018083116101fc57829003601f168201915b50505050509080600101805461022e90611a9d565b80601f016020809104026020016040519081016040528092919081815260200182805461025a90611a9d565b80156102a75780601f1061027c576101008083540402835291602001916102a7565b820191906000526020600020905b81548152906001019060200180831161028a57829003601f168201915b5050505050908060020180546102bc90611a9d565b80601f01602080910402602001604051908101604052809291908181526020018280546102e890611a9d565b80156103355780601f1061030a57610100808354040283529160200191610335565b820191906000526020600020905b81548152906001019060200180831161031857829003601f168201915b50505050509080600301805461034a90611a9d565b80601f016020809104026020016040519081016040528092919081815260200182805461037690611a9d565b80156103c35780601f10610398576101008083540402835291602001916103c3565b820191906000526020600020905b8154815290600101906020018083116103a657829003601f168201915b5050505050908060040180546103d890611a9d565b80601f016020809104026020016040519081016040528092919081815260200182805461040490611a9d565b80156104515780601f1061042657610100808354040283529160200191610451565b820191906000526020600020905b81548152906001019060200180831161043457829003601f168201915b50505050509080600501805461046690611a9d565b80601f016020809104026020016040519081016040528092919081815260200182805461049290611a9d565b80156104df5780601f106104b4576101008083540402835291602001916104df565b820191906000526020600020905b8154815290600101906020018083116104c257829003601f168201915b5050505050908060060180546104f490611a9d565b80601f016020809104026020016040519081016040528092919081815260200182805461052090611a9d565b801561056d5780601f106105425761010080835404028352916020019161056d565b820191906000526020600020905b81548152906001019060200180831161055057829003601f168201915b50505050509080600701805461058290611a9d565b80601f01602080910402602001604051908101604052809291908181526020018280546105ae90611a9d565b80156105fb5780601f106105d0576101008083540402835291602001916105fb565b820191906000526020600020905b8154815290600101906020018083116105de57829003601f168201915b5050505050908060080160009054906101000a900473ffffffffffffffffffffffffffffffffffffffff169080600901805461063690611a9d565b80601f016020809104026020016040519081016040528092919081815260200182805461066290611a9d565b80156106af5780601f10610684576101008083540402835291602001916106af565b820191906000526020600020905b81548152906001019060200180831161069257829003601f168201915b50505050509080600a0180546106c490611a9d565b80601f01602080910402602001604051908101604052809291908181526020018280546106f090611a9d565b801561073d5780601f106107125761010080835404028352916020019161073d565b820191906000526020600020905b81548152906001019060200180831161072057829003601f168201915b505050505090508b565b60606000808373ffffffffffffffffffffffffffffffffffffffff1673ffffffffffffffffffffffffffffffffffffffff168152602001908152602001600020805461079290611a9d565b80601f01602080910402602001604051908101604052809291908181526020018280546107be90611a9d565b801561080b5780601f106107e05761010080835404028352916020019161080b565b820191906000526020600020905b8154815290600101906020018083116107ee57829003601f168201915b50505050509050919050565b6000806000808473ffffffffffffffffffffffffffffffffffffffff1673ffffffffffffffffffffffffffffffffffffffff168152602001908152602001600020805461086390611a9d565b9050119050919050565b6108756111e1565b600160008373ffffffffffffffffffffffffffffffffffffffff1673ffffffffffffffffffffffffffffffffffffffff168152602001908152602001600020604051806101600160405290816000820180546108d090611a9d565b80601f01602080910402602001604051908101604052809291908181526020018280546108fc90611a9d565b80156109495780601f1061091e57610100808354040283529160200191610949565b820191906000526020600020905b81548152906001019060200180831161092c57829003601f168201915b5050505050815260200160018201805461096290611a9d565b80601f016020809104026020016040519081016040528092919081815260200182805461098e90611a9d565b80156109db5780601f106109b0576101008083540402835291602001916109db565b820191906000526020600020905b8154815290600101906020018083116109be57829003601f168201915b505050505081526020016002820180546109f490611a9d565b80601f0160208091040260200160405190810160405280929190818152602001828054610a2090611a9d565b8015610a6d5780601f10610a4257610100808354040283529160200191610a6d565b820191906000526020600020905b815481529060010190602001808311610a5057829003601f168201915b50505050508152602001600382018054610a8690611a9d565b80601f0160208091040260200160405190810160405280929190818152602001828054610ab290611a9d565b8015610aff5780601f10610ad457610100808354040283529160200191610aff565b820191906000526020600020905b815481529060010190602001808311610ae257829003601f168201915b50505050508152602001600482018054610b1890611a9d565b80601f0160208091040260200160405190810160405280929190818152602001828054610b4490611a9d565b8015610b915780601f10610b6657610100808354040283529160200191610b91565b820191906000526020600020905b815481529060010190602001808311610b7457829003601f168201915b50505050508152602001600582018054610baa90611a9d565b80601f0160208091040260200160405190810160405280929190818152602001828054610bd690611a9d565b8015610c235780601f10610bf857610100808354040283529160200191610c23565b820191906000526020600020905b815481529060010190602001808311610c0657829003601f168201915b50505050508152602001600682018054610c3c90611a9d565b80601f0160208091040260200160405190810160405280929190818152602001828054610c6890611a9d565b8015610cb55780601f10610c8a57610100808354040283529160200191610cb5565b820191906000526020600020905b815481529060010190602001808311610c9857829003601f168201915b50505050508152602001600782018054610cce90611a9d565b80601f0160208091040260200160405190810160405280929190818152602001828054610cfa90611a9d565b8015610d475780601f10610d1c57610100808354040283529160200191610d47565b820191906000526020600020905b815481529060010190602001808311610d2a57829003601f168201915b505050505081526020016008820160009054906101000a900473ffffffffffffffffffffffffffffffffffffffff1673ffffffffffffffffffffffffffffffffffffffff1673ffffffffffffffffffffffffffffffffffffffff168152602001600982018054610db690611a9d565b80601f0160208091040260200160405190810160405280929190818152602001828054610de290611a9d565b8015610e2f5780601f10610e0457610100808354040283529160200191610e2f565b820191906000526020600020905b815481529060010190602001808311610e1257829003601f168201915b50505050508152602001600a82018054610e4890611a9d565b80601f0160208091040260200160405190810160405280929190818152602001828054610e7490611a9d565b8015610ec15780601f10610e9657610100808354040283529160200191610ec1565b820191906000526020600020905b815481529060010190602001808311610ea457829003601f168201915b5050505050815250509050919050565b6040518061016001604052808c81526020018b81526020018a81526020018981526020018881526020018781526020018681526020018581526020018473ffffffffffffffffffffffffffffffffffffffff16815260200183815260200182815250600160008573ffffffffffffffffffffffffffffffffffffffff1673ffffffffffffffffffffffffffffffffffffffff1681526020019081526020016000206000820151816000019080519060200190610f8e929190611251565b506020820151816001019080519060200190610fab929190611251565b506040820151816002019080519060200190610fc8929190611251565b506060820151816003019080519060200190610fe5929190611251565b506080820151816004019080519060200190611002929190611251565b5060a082015181600501908051906020019061101f929190611251565b5060c082015181600601908051906020019061103c929190611251565b5060e0820151816007019080519060200190611059929190611251565b506101008201518160080160006101000a81548173ffffffffffffffffffffffffffffffffffffffff021916908373ffffffffffffffffffffffffffffffffffffffff1602179055506101208201518160090190805190602001906110bf929190611251565b5061014082015181600a0190805190602001906110dd929190611251565b50905050876000808573ffffffffffffffffffffffffffffffffffffffff1673ffffffffffffffffffffffffffffffffffffffff1681526020019081526020016000209080519060200190611133929190611251565b505050505050505050505050565b6000602052806000526040600020600091509050805461116090611a9d565b80601f016020809104026020016040519081016040528092919081815260200182805461118c90611a9d565b80156111d95780601f106111ae576101008083540402835291602001916111d9565b820191906000526020600020905b8154815290600101906020018083116111bc57829003601f168201915b505050505081565b6040518061016001604052806060815260200160608152602001606081526020016060815260200160608152602001606081526020016060815260200160608152602001600073ffffffffffffffffffffffffffffffffffffffff16815260200160608152602001606081525090565b82805461125d90611a9d565b90600052602060002090601f01602090048101928261127f57600085556112c6565b82601f1061129857805160ff19168380011785556112c6565b828001600101855582156112c6579182015b828111156112c55782518255916020019190600101906112aa565b5b5090506112d391906112d7565b5090565b5b808211156112f05760008160009055506001016112d8565b5090565b6000604051905090565b600080fd5b600080fd5b600073ffffffffffffffffffffffffffffffffffffffff82169050919050565b600061133382611308565b9050919050565b61134381611328565b811461134e57600080fd5b50565b6000813590506113608161133a565b92915050565b60006020828403121561137c5761137b6112fe565b5b600061138a84828501611351565b91505092915050565b600081519050919050565b600082825260208201905092915050565b60005b838110156113cd5780820151818401526020810190506113b2565b838111156113dc576000848401525b50505050565b6000601f19601f8301169050919050565b60006113fe82611393565b611408818561139e565b93506114188185602086016113af565b611421816113e2565b840191505092915050565b61143581611328565b82525050565b6000610160820190508181036000830152611456818e6113f3565b9050818103602083015261146a818d6113f3565b9050818103604083015261147e818c6113f3565b90508181036060830152611492818b6113f3565b905081810360808301526114a6818a6113f3565b905081810360a08301526114ba81896113f3565b905081810360c08301526114ce81886113f3565b905081810360e08301526114e281876113f3565b90506114f261010083018661142c565b81810361012083015261150581856113f3565b905081810361014083015261151a81846113f3565b90509c9b505050505050505050505050565b6000602082019050818103600083015261154681846113f3565b905092915050565b60008115159050919050565b6115638161154e565b82525050565b600060208201905061157e600083018461155a565b92915050565b600082825260208201905092915050565b60006115a082611393565b6115aa8185611584565b93506115ba8185602086016113af565b6115c3816113e2565b840191505092915050565b6115d781611328565b82525050565b60006101608301600083015184820360008601526115fb8282611595565b915050602083015184820360208601526116158282611595565b9150506040830151848203604086015261162f8282611595565b915050606083015184820360608601526116498282611595565b915050608083015184820360808601526116638282611595565b91505060a083015184820360a086015261167d8282611595565b91505060c083015184820360c08601526116978282611595565b91505060e083015184820360e08601526116b18282611595565b9150506101008301516116c86101008601826115ce565b506101208301518482036101208601526116e28282611595565b9150506101408301518482036101408601526116fe8282611595565b9150508091505092915050565b6000602082019050818103600083015261172581846115dd565b905092915050565b600080fd5b600080fd5b7f4e487b7100000000000000000000000000000000000000000000000000000000600052604160045260246000fd5b61176f826113e2565b810181811067ffffffffffffffff8211171561178e5761178d611737565b5b80604052505050565b60006117a16112f4565b90506117ad8282611766565b919050565b600067ffffffffffffffff8211156117cd576117cc611737565b5b6117d6826113e2565b9050602081019050919050565b82818337600083830152505050565b6000611805611800846117b2565b611797565b90508281526020810184848401111561182157611820611732565b5b61182c8482856117e3565b509392505050565b600082601f8301126118495761184861172d565b5b81356118598482602086016117f2565b91505092915050565b60008060008060008060008060008060006101608c8e031215611888576118876112fe565b5b60008c013567ffffffffffffffff8111156118a6576118a5611303565b5b6118b28e828f01611834565b9b505060208c013567ffffffffffffffff8111156118d3576118d2611303565b5b6118df8e828f01611834565b9a505060408c013567ffffffffffffffff811115611900576118ff611303565b5b61190c8e828f01611834565b99505060608c013567ffffffffffffffff81111561192d5761192c611303565b5b6119398e828f01611834565b98505060808c013567ffffffffffffffff81111561195a57611959611303565b5b6119668e828f01611834565b97505060a08c013567ffffffffffffffff81111561198757611986611303565b5b6119938e828f01611834565b96505060c08c013567ffffffffffffffff8111156119b4576119b3611303565b5b6119c08e828f01611834565b95505060e08c013567ffffffffffffffff8111156119e1576119e0611303565b5b6119ed8e828f01611834565b9450506101006119ff8e828f01611351565b9350506101208c013567ffffffffffffffff811115611a2157611a20611303565b5b611a2d8e828f01611834565b9250506101408c013567ffffffffffffffff811115611a4f57611a4e611303565b5b611a5b8e828f01611834565b9150509295989b509295989b9093969950565b7f4e487b7100000000000000000000000000000000000000000000000000000000600052602260045260246000fd5b60006002820490506001821680611ab557607f821691505b602082108103611ac857611ac7611a6e565b5b5091905056fea2646970667358221220fa1a27d1423a4239ddf55d570dbf05a10a6fa84f6ffcd6c036d1bb83ab0a823164736f6c634300080d0033",
  "immutableReferences": {},
  "source": "// SPDX-License-Identifier: MIT\r\npragma solidity ^0.8.13;\r\n\r\ncontract patientInfo {\r\n    struct Patient {\r\n        string firstName;\r\n        string lastName;\r\n        string dateOfBirth;\r\n        string email;\r\n        string gender;\r\n        string patientAddress;\r\n        string phoneNumber;\r\n        string bloodgroup;\r\n        address metaMaskAccount;\r\n        string insuranceProvider;\r\n        string policyNumber;\r\n    }\r\n\r\n    mapping(address => string) public metaMaskToEmail;\r\n    mapping(address => Patient) public patients;\r\n\r\n    function registerPatient(\r\n        string memory _firstName,\r\n        string memory _lastName,\r\n        string memory _dateOfBirth,\r\n        string memory _email,\r\n        string memory _gender,\r\n        string memory _patientAddress,\r\n        string memory _phoneNumber,\r\n        string memory _bloodgroup,\r\n        address _metaMaskAccount,\r\n        string memory _insuranceProvider,\r\n        string memory _policyNumber\r\n    ) public {\r\n        patients[_metaMaskAccount] = Patient(\r\n            _firstName,\r\n            _lastName,\r\n            _dateOfBirth,\r\n            _email,\r\n            _gender,\r\n            _patientAddress,\r\n            _phoneNumber,\r\n            _bloodgroup,\r\n            _metaMaskAccount,\r\n            _insuranceProvider,\r\n            _policyNumber\r\n        );\r\n\r\n        metaMaskToEmail[_metaMaskAccount] = _email;\r\n    }\r\n\r\n    function getPatient(address _metaMaskAccount) public view returns (Patient memory) {\r\n        return patients[_metaMaskAccount];\r\n    }\r\n\r\n    function getEmailByMetaMask(address _metaMaskAccount) public view returns (string memory) {\r\n        return metaMaskToEmail[_metaMaskAccount];\r\n    }\r\n\r\n    function isPatientRegistered(address _metaMaskAccount) public view returns (bool) {\r\n        // Check if the patient is registered by checking if their email is set\r\n        return bytes(metaMaskToEmail[_metaMaskAccount]).length > 0;\r\n    }\r\n}\r\n",
  "sourcePath": "C:\\Users\\Pranith\\Documents\\GitHub\\Electronic_Health_Records\\Truffle\\contracts\\paientInfo.sol",
  "compiler": {
    "name": "solc",
    "version": "0.8.13+commit.abaa5c0e.Emscripten.clang"
  },
  "schemaVersion": "3.4.16",
  "updatedAt": "2024-07-06T11:55:27.177Z",
  "devdoc": {
    "kind": "dev",
    "methods": {},
    "version": 1
  },
  "userdoc": {
    "kind": "user",
    "methods": {},
    "version": 1
  }
}